:100000000C9448020C9465020C9465020C946502F1
:100010000C9465020C9465020C9465020C946502C4
:100020000C9465020C9465020C9465020C946502B4
:100030000C9465020C9465020C9465020C946502A4
:100040000C9465020C9465020C9465020C94650294
:100050000C9465020C9465020C9465020C94650284
:100060000C9465020C9465024E414E494E49545918
:10007000494E46CDCCCC3D0AD7233C17B7D1387773
:10008000CC2B329595E6241FB14F0A000020410089
:1000900000C84200401C4620BCBE4CCA1B0E5AAED3
:1000A000C59D7400407A10F35A00A0724E180900E2
:1000B00010A5D4E80000E87648170000E40B5402CD
:1000C0000000CA9A3B000000E1F505000080969808
:1000D00000000040420F000000A086010000001058
:1000E0002700000000E8030000000064000000009A
:1000F000000A00000000000100000000002C76D87B
:1001000088DC674F0823DFC1DFAE59E1B1B796E560
:10011000E3E453C63AE651997696E8E6C28426EBC4
:10012000898C9B62ED407C6FFCEFBC9C9F40F2BAD7
:10013000A56FA5F490055A2AF75C936B6CF9676D6F
:10014000C11BFCE0E40D47FEF520E6B500D0ED90C4
:100150002E0300943577050080841E080000204E91
:100160000A000000C80C333333330F986E1283112A
:1001700041EF8D2114893BE65516CFFEE6DB18D101
:10018000844B381BF77C1D901DA4BBE424203284D3
:10019000725E228100C9F124ECA1E53D27496E661B
:1001A000696E697479004572726F72004D6F6420D8
:1001B0006279207A65726F206572726F720044698D
:1001C00076206279207A65726F206572726F720094
:1001D0007371727428006C6F672800322E373138C3
:1001E000323800332E31343135390074616E2800D5
:1001F000636F73280073696E28004D5200456E745A
:1002000065722065787072657373696F6E3A00531A
:100210007562747261637465642066726F6D206DBF
:10022000656D004D2D00456E7465722065787072A5
:10023000657373696F6E3A00416464656420746F1E
:10024000206D656D6F7279004D2B00414E53004556
:100250005850002900312F2800312F78005E3300DC
:1002600078C2B3005E320078C2B200332E3134312E
:10027000353900CF80002800737172742800E2883D
:100280009A00655E2800655E006C6E28006C6E004A
:100290006C6F6728006C6F67004253005E007461EA
:1002A0006E280074616E00636F732800636F7300C3
:1002B00073696E280073696E00456E7465722065FF
:1002C000787072657373696F6E3A004D656D6F7209
:1002D0007920636C6561726564004D43004F43543F
:1002E0000042494E0044454300484558005D0066C1
:1002F000616374280066616374006D6F64007261ED
:1003000064280072616400646567280064656700A2
:100310005B006362727428006362727400616273CE
:10032000280061627300322E37313832383138009C
:10033000650031305E0031305E00456E74657220BC
:1003400065787072657373696F6E3A00434C520042
:10035000795E78006174616E28006174616E00617D
:10036000636F73280061636F73006173696E2800A7
:100370006173696E00456E74657220657870726590
:100380007373696F6E3A00526573756C743A00202E
:10039000202020202020202020202020202020007D
:1003A000456E7465722065787072657373696F6EDF
:1003B0003A00456E74657220657870726573736972
:1003C0006F6E3A00416C706861206D6F6465204FFC
:1003D000464600416C706861206D6F6465204F4E29
:1003E00000456E7465722065787072657373696F0D
:1003F0006E3A005368696674206D6F6465204F46DD
:1004000046005368696674206D6F6465204F4E0026
:10041000456E7465722065787072657373696F6E6E
:100420003A0057656C636F6D6520210067016C01B0
:10043000710176017A0152017E01800184018901F6
:100440008B018F01930197019C019E01A201A601DE
:10045000AA01AE0168016D0172015401B101B4013C
:10046000B801BB01BE015001C201C501C901CD01E6
:10047000D101D301D701DB01DE01E1013738392B8E
:10048000443435362D533132332A41302E3D2F43FB
:1004900011241FBECFEFD8E0DEBFCDBF11E0A0E03A
:1004A000B1E0EAECFBE402C005900D92A43EB10776
:1004B000D9F722E0A4EEB1E001C01D92A831B20745
:1004C000E1F70E94A6190C94E3250C940000CA01E0
:1004D000B9010895EF92FF920F931F93C801B701DE
:1004E0001F910F91FF90EF900895CA01B9019058A4
:1004F00008959B01AC0160E070E080E89FE30E94FA
:10050000FF1C089529E23CE543E150E40E946C1E83
:100510009B01AC0160E070E080E89FE30E94FF1C5B
:100520000895CA01B9010E94BD1B9B01AC0160E0A6
:1005300070E080E89FE30E94FF1C08959B01AC01DE
:100540000E946C1E20E030E040E85FE30E94BD1B8B
:100550009B01AC0160E070E080E89FE30E94FF1C1B
:100560000895CA01B90190580895EF92FF920F9330
:100570001F93C801B7011F910F91FF90EF9008954D
:100580004F925F926F927F928F929F92AF92BF92A3
:10059000CF92DF92EF92FF920F931F93CF93DF934F
:1005A000CDB7DEB762970FB6F894DEBF0FBECDBFF2
:1005B00069837A838B839C8329013A01ED86FE86C9
:1005C0000F87188BDE82CD824B015C01DA8AC98AE3
:1005D000AEC0A3019201C501B401E989FA89099568
:1005E0002AE037ED43E25CE30E946C1E6D837E835C
:1005F0008F8398872AE037ED43EA5BE3C501B401B6
:100600000E94BD1B6B017C0120E030E040E05FE315
:100610006D817E818F8198850E946C1EA30192015D
:100620000E94BD1B9B01AC01C701B601E989FA8993
:1006300009952AE037ED43E25CE30E946C1E698372
:100640007A838B839C8320E030E040E05FE30E946C
:100650006C1EA30192010E94BD1B9B01AC01C7014E
:10066000B601E989FA8909952AE037ED43E25CE3AE
:100670000E946C1E6B017C012AE037ED43E25CE3D3
:10068000C501B4010E94BD1B4B015C01A70196018D
:10069000C301B2010E94BD1B9B01AC01C501B401A5
:1006A000E989FA89099569877A878B879C872981E7
:1006B0003A814B815C81CA01B9010E94BD1B2D8129
:1006C0003E814F8158850E94BD1B69837A838B834D
:1006D0009C83A7019601C701B6010E94BD1B9B0127
:1006E000AC0169817A818B819C810E94BD1B6B0169
:1006F0007C012AE037ED43E25CE369857A858B85EE
:100700009C850E946C1E9B01AC01C701B6010E9432
:10071000BD1B20E030E040EC50E40E94FF1C9B0138
:10072000AC01C301B2010E94BD1B2B013C012D8510
:100730003E854F855889C501B4010E94BC1B6B01E1
:100740007C012CEA35EC47E257E30E94671E18163D
:100750000CF43FCF2CEA35EC47E257EBC701B6016A
:100760000E94FA1C87FD35CFC301B20162960FB615
:10077000F894DEBF0FBECDBFDF91CF911F910F91D7
:10078000FF90EF90DF90CF90BF90AF909F908F90B1
:100790007F906F905F904F9008952F923F924F926D
:1007A0005F926F927F928F929F92AF92BF92CF9201
:1007B000DF92EF92FF920F931F93CF93DF93CDB70A
:1007C000DEB7AC970FB6F894DEBF0FBECDBF2B01DE
:1007D0003C012D833E834F835887E986FA860B8739
:1007E0001C87A9A6BAA6CBA6DCA6140198C1E984E9
:1007F000FA840B851C852D813E814F815885C3016C
:10080000B201F10109952AE037ED43E25CE30E9471
:100810006C1E6D8F7E8F8F8F98A3E984FA840B8571
:100820001C852D813E814F815885C301B2012396DD
:10083000EEADFFAD239709952AE037ED43E25CE387
:100840000E946C1E69A37AA38BA39CA320E030E0D6
:1008500040E05FE30E946C1E29853A854B855C85EC
:100860000E94BD1B6D877E878F87988B20E030E0CC
:1008700040E05FE36D8D7E8D8F8D98A10E946C1E90
:100880002D813E814F8158850E94BD1B4B015C012B
:100890002AE037ED43EA5BE3C301B2010E94BD1BCE
:1008A00069837A838B839C83ED84FE840F8518890A
:1008B000A5019401F10109952AE037ED43E25CE3DB
:1008C0000E946C1E6D8B7E8B8F8B988FED84FE84C7
:1008D0000F851889A501940169817A818B819C819A
:1008E0002396EEADFFAD239709952AE037ED43E25D
:1008F0005CE30E946C1E6D877E878F87988B20E05B
:1009000030E040E05FE30E946C1E29853A854B850C
:100910005C850E94BD1B698B7A8B8B8B9C8B20E046
:1009200030E040E05FE36D897E898F89988D0E9479
:100930006C1E2D813E814F8158850E94BD1B4B014D
:100940005C01E988FA880B891C89AC019B016981EB
:100950007A818B819C81F10109952AE037ED43E290
:100960005CE30E946C1E698F7A8F8B8F9C8FE98865
:10097000FA880B891C89A501940169817A818B8190
:100980009C812396EEADFFAD239709952AE037EDC4
:1009900043E25CE30E946C1E69837A838B839C83B1
:1009A0009B01AC0169857A858B859C850E94BD1B66
:1009B000698B7A8B8B8B9C8B298D3A8D4B8D5C8DC3
:1009C0006D817E818F8198850E94BD1B4B015C01EA
:1009D0002AE037ED43E25CE3C301B2010E94BD1B94
:1009E0002B013C01E988FA880B891C89A501940137
:1009F000F10109956DA37EA38FA398A7E988FA88D2
:100A00000B891C89A5019401C301B2012396EEADA7
:100A1000FFAD239709954B015C012D893E894F89D4
:100A2000588DCA01B9010E94BD1B2D8D3E8D4F8D81
:100A300058A10E94BD1B6B017C01298D3A8D4B8D05
:100A40005C8DCA01B9010E94BD1B9B01AC01C701AD
:100A5000B6010E94BD1B6B017C012AE037ED43E229
:100A60005CE36DA17EA18FA198A50E946C1E9B01E5
:100A7000AC01C701B6010E94BD1B20E030E040EC94
:100A800050E40E94FF1C9B01AC016D817E818F812F
:100A900098850E94BD1B6D837E838F8398872D85EB
:100AA0003E854F855889CA01B9010E94BD1B29A105
:100AB0003AA14BA15CA10E94BD1B6B017C01298165
:100AC0003A814B815C81CA01B9010E94BD1B9B0127
:100AD000AC01C701B6010E94BD1B6B017C012AE07D
:100AE00037ED43E25CE3C501B4010E946C1E9B013B
:100AF000AC01C701B6010E94BD1B20E030E040EC14
:100B000050E40E94FF1C9B01AC0169857A858B85AE
:100B10009C850E94BD1B69877A878B879C8729A546
:100B20003AA54BA55CA5C301B2010E94BC1B6B0199
:100B30007C012FE632E143E85AE30E94671E181653
:100B40000CF455CE2FE632E143E85AEBC701B6016B
:100B50000E94FA1C87FD4BCE6D817E818F81988526
:100B6000AC960FB6F894DEBF0FBECDBFDF91CF912C
:100B70001F910F91FF90EF90DF90CF90BF90AF90BB
:100B80009F908F907F906F905F904F903F902F90AD
:100B900008954F925F926F927F928F929F92AF9241
:100BA000BF92CF92DF92EF92FF920F931F932B0190
:100BB0003C014130510509F4BCC042305105A1F15E
:100BC0004330510509F45CC04430510509F46DC14E
:100BD0004530510509F4BDC04630510509F487C0C0
:100BE0004730510509F424C14830510509F08CC142
:100BF00020E030E040E85FEB0E94FA1C87FD0BC06C
:100C000020E030E040E85FE3C301B2010E94671ECC
:100C100018160CF0D2C081E291E09F938F930E944E
:100C20005C1F0F900F901DC020E030E0A9010E94D2
:100C3000FA1C882399F020E030E0A901C301B20139
:100C40000E94671E18160CF4A0C020E030E0A90135
:100C5000C301B2010E94FA1C87FDCDC060E070E0C4
:100C6000CB011F910F91FF90EF90DF90CF90BF903D
:100C7000AF909F908F907F906F905F904F9008956E
:100C800020E030E0A9010E94FA1C882309F478C012
:100C900020E030E0A901C301B2010E94671E1816CE
:100CA0000CF4E6C020E030E0A901C301B2010E94CB
:100CB000FA1C87FFD3CF63015201D7FAD094D7F83B
:100CC000D09481EB92E09F938F9355EB852E52E069
:100CD000952EE12CF12C870120E030E040E85FE325
:100CE000C801B7010E94CD030F900F90BACF20E04A
:100CF00030E0A9010E94FA1C18160CF0EFC020E0A9
:100D000030E0A901C301B2010E94671E18160CF061
:100D1000A5CF32E8C32E32E0D32E8301720120E04A
:100D200030E0A90160E070E080E89FE30E94C0022B
:100D300098CFB7E6CB2EB2E0DB2E8C017B0120E012
:100D400030E040E85FE360E070E0CB010E94C00269
:100D500088CF20E030E0A9010E94FA1C18160CF0A0
:100D6000C0C020E030E0A901C301B2010E94671EAB
:100D700049E7C42E42E0D42E18160CF06FCFCDCF29
:100D800060E070E080E89FE36CCF85E792E09F939E
:100D90008F93FAE68F2EF2E09F2E63015201E12C31
:100DA000F12C00E81FE320E030E0A901CA01B901FD
:100DB0000E94CD030F900F9054CF20E030E040E828
:100DC0005FE3C301B2010E94FA1C882309F48CC0BE
:100DD00020E030E040E85FEBC301B2010E94FA1C62
:100DE0009AEAC92E97E0D92E811155C06BED7FE0AC
:100DF00089EC9FEB36CF63015201D7FAD094D7F834
:100E0000D09485E792E09F938F937AE6872E72E0E5
:100E1000972EE12CF12C00E81FE320E030E0A9013F
:100E2000CA01B9010E94CD0390580F900F9019CFBD
:100E300020E030E0A9010E94FA1C87FD4FC020E0AD
:100E400030E0A901C301B2010E94FA1C882309F411
:100E500005CF21E9C22E22E0D22E8301720120E0CB
:100E600030E040E85FE3CA01B9010E94C002F9CE58
:100E700081EB92E09F938F9365EB862E62E0962E36
:100E80006301520126CF4A30510509F0E7CE8EE9C1
:100E9000C82E82E0D82E8301720120E030E0A90143
:100EA000CA01B9010E94C002DCCE43E050E00E94BA
:100EB000C9056B017C0120E030E0A9010E94FA1C09
:100EC000811117C080E091E09F938F930E945C1F77
:100ED0000F900F9060E070E0CB01C3CE85E191E010
:100EE000F3CF89E091E0F0CF6BED7FE089EC9FE3F9
:100EF000B8CE42E050E0C301B2010E94C905A7018B
:100F000096010E94FF1CADCE4930510509F0BBCFC0
:100F100020E030E040E85FEB0E94FA1C87FD7BCECA
:100F200020E030E040E85FE3C301B2010E94671EA9
:100F300018160CF470CE48E050E0C301B2010E94D4
:100F4000C9059B01AC016BED7FE089EC9FE30E943A
:100F5000BC1B87CE9B01AC010E946C1E9B01AC01A7
:100F600060E070E080E89FE30E94BC1B47E050E037
:100F70000E94C9059B01AC0160E070E080E89FE33E
:100F80000E94FF1C0895CF93DF93EC019881DA0152
:100F9000ED91FC919923E1F0EF33F105CCF421962A
:100FA000B0E0A0E009C0FA0120813181F901EA0F27
:100FB000FB1FEF33F10564F4E60FF71F90831196E2
:100FC00099919111F0CFEA01E881F981EA0FFB1FB5
:100FD000DA01ED93FC936E0F7F1FEB011882DF9116
:100FE000CF9108954CE754E030E020E02115310521
:100FF00009F439C0409A2130310509F439C0419AC9
:101000002230310509F438C0429A439885E38A9525
:10101000F1F70000189925C0FA018491199903C0CD
:10102000FA01319684911A9903C0FA01329684919B
:101030004E9903C0FA01339684914F9903C0FA0187
:1010400034968491811108C02F5F3F4F4B5F5F4FF3
:101050002430310509F0CACF409A419A429A439A06
:10106000089580E0DBCF4098419A429A439ACECFD0
:101070004198429A439ACACF4298439AC7CFCF9297
:10108000DF92EF92FF920F931F93CF93DF9397FD21
:1010900033C0823091054CF18C010F5F1F4FC12C82
:1010A000D12C20E8E22E2FE3F22EC2E0D0E0BE01E8
:1010B0000D2E000C880B990B0E94A91D9B01AC0101
:1010C000C701B6010E946C1E6B017C0121960C17B2
:1010D0001D0769F7C701B601DF91CF911F910F91ED
:1010E000FF90EF90DF90CF900895C12CD12C80E835
:1010F000E82E8FE3F82EEECFC12CD12C90ECE92E08
:101100009FE7F92EE7CFCF92DF92EF92FF920F93F6
:101110001F93CF93DF936B017C018A0157FD1DC0A4
:1011200060E070E080E89FE3452B71F0D0E0C0E024
:1011300060E070E080E89FE3A70196010E946C1ECA
:101140002196C017D107C1F7DF91CF911F910F9161
:10115000FF90EF90DF90CF900895AC019B0160E08D
:1011600070E080E89FE30E94FF1C6B017C011195F9
:1011700001951109DBCF2C9887FD42C05A9886FF54
:101180002FC05B9A85FF2FC05C9A84FF2FC05D9AA9
:101190002B9A95E09A95F1F700002B98EFE1F3E098
:1011A0003197F1F700C0000083FF28C05A9A82FFF0
:1011B00023C05B9A81FF1EC05C9A80FF19C05D9AB4
:1011C0002B9AF5E0FA95F1F700002B9881508230C8
:1011D000C8F0E7ECF0E03197F1F700C000000895A7
:1011E0005B9885FDD1CF5C9884FDD1CF5D98D0CF41
:1011F0005D98E6CF5C98E1CF5B98DCCF5A98D7CF6B
:101200005A9ABDCF8FE39FE10197F1F700C000002C
:101210000895249A239A559A549A539A529A2FEFE2
:1012200080E792E0215080409040E1F700C000004C
:101230002C985D985C985B9A5A9A2B9A25E02A958F
:10124000F1F700002B988FE19EE40197F1F700C0C1
:1012500000002B9A95E09A95F1F700002B988FE902
:101260009FE00197F1F700C000002B9A95E09A9556
:10127000F1F700002B988FE99FE00197F1F700C08C
:1012800000005A982B9A95E09A95F1F700002B9858
:101290008FE99FE00197F1F700C0000088E20E940B
:1012A000BB088CE00E94BB0886E00E94BB0881E07E
:1012B0000E94BB0882E00E94BB088FE39FE1019778
:1012C000F1F700C0000008952C9A87FD40C05A989D
:1012D00086FF2CC05B9A85FF2CC05C9A84FF2CC0D3
:1012E0005D9A2B9A95E09A95F1F700002B98EFE123
:1012F000F3E03197F1F700C0000083FF26C05A9A4F
:1013000082FF21C05B9A81FF19C05C9A80FD19C0E1
:101310005D982B9AF5E0FA95F1F700002B9887EC91
:1013200090E00197F1F700C0000008955B9885FDFB
:10133000D4CF5C9884FDD4CF5D98D3CF5C9880FFE8
:10134000E7CF5D9AE6CF5B98DECF5A98D9CF5A9A0D
:10135000BFCFEF92FF920F931F93CF93DF93DC01E8
:10136000EC91E356E23108F056C0EA018B017C01B2
:101370000E2E000CFF0BE154F64F0C94F21E4D0A9A
:101380000B0A890A0B0A0B0A0B0A0B0A0B0A0B0A37
:10139000C50A0B0A0B0A0B0A010B0B0A3D0BD109FC
:1013A000120A65EF71E080EF91E00E94401F80918A
:1013B000F001688179818823D9F06F337105C4F415
:1013C000E1EFF1E007C028813981620F731F6F33AD
:1013D000710574F4600F711FDB018C93BF01605FB6
:1013E000714081918111EFCF88819981680F791FB8
:1013F00079836883600F711FFB0110828091F00177
:10140000882339F0C1EFD1E00E94640989918111EC
:10141000FBCFD7011C92DF91CF911F910F91FF90CD
:10142000EF9008956BEE71E080EF91E00E94401F15
:101430008091F001688179818823D9F06F3371053B
:10144000C4F4E1EFF1E007C028813981620F731F16
:101450006F33710574F4600F711FDB018C93BF0152
:10146000605F714081918111EFCF88819981680F10
:10147000791F79836883600F711FFB01108280914F
:10148000F001882331F2C1EFD1E00E946409899113
:101490008111FBCFD7011C92BECF60EF71E080EFCE
:1014A00091E00E94401F8091F0016881798188233A
:1014B000D9F06F337105C4F4E1EFF1E007C0288182
:1014C0003981620F731F6F33710574F4600F711FE0
:1014D000DB018C93BF01605F714081918111EFCF7F
:1014E00088819981680F791F79836883600F711FE4
:1014F000FB0110828091F001882309F48ACFC1EFAB
:10150000D1E00E94640989918111FBCFD7011C921F
:1015100082CF6BED71E080EF91E00E94401F8091DF
:10152000F001688179818823D9F06F337105C4F4A3
:10153000E1EFF1E007C028813981620F731F6F333B
:10154000710574F4600F711FDB018C93BF01605F44
:10155000714081918111EFCF88819981680F791F46
:1015600079836883600F711FFB0110828091F00105
:10157000882309F44ECFC1EFD1E00E94640989911C
:101580008111FBCFD7011C9246CF66ED71E080EF51
:1015900091E00E94401F8091F00168817981882349
:1015A000D9F06F337105C4F4E1EFF1E007C0288191
:1015B0003981620F731F6F33710574F4600F711FEF
:1015C000DB018C93BF01605F714081918111EFCF8E
:1015D00088819981680F791F79836883600F711FF3
:1015E000FB0110828091F001882309F412CFC1EF32
:1015F000D1E00E94640989918111FBCFD7011C922F
:101600000ACF63EE71E080EF91E00E94401F80916D
:10161000F001688179818823D9F06F337105C4F4B2
:10162000E1EFF1E007C028813981620F731F6F334A
:10163000710574F4600F711FDB018C93BF01605F53
:10164000714081918111EFCF88819981680F791F55
:1016500079836883600F711FFB0110828091F00114
:10166000882309F4D6CEC1EFD1E00E9464098991A4
:101670008111FBCFD7011C92CECE60ED71E080EFDF
:1016800091E00E94401F8091F001E881F981882358
:10169000B1F0EF33F1059CF4A1EFB1E003C0EF33FB
:1016A000F1056CF4E00FF11F8083FD01E05FF14074
:1016B0008D9168817981E60FF71F8111F0CFF98351
:1016C000E883E00FF11F10828091F001882309F474
:1016D000A0CEC1EFD1E00E94640989918111FBCFB6
:1016E000D7011C9298CE2F923F924F925F926F92A9
:1016F0007F928F929F92AF92BF92CF92DF92EF92A2
:10170000FF920F931F93CF93DF9300D000D000D0B0
:101710001F92CDB7DEB79F838E8344E050E06DE328
:1017200071E00E944E1F892B09F47AC144E050E019
:1017300063E471E08E819F810E944E1F892B09F422
:10174000EFC044E050E069E471E08E819F810E9427
:101750004E1F892B09F4F1C144E050E06DE271E0C5
:101760008E819F810E944E1F892B09F433C243E072
:1017700050E062E371E08E819F810E944E1F892BB1
:1017800009F4BBC145E050E066E371E08E819F81C2
:101790000E944E1F892B09F469C245E050E06CE3BA
:1017A00071E08E819F810E944E1F892B09F47EC2B9
:1017B00045E050E062E471E08E819F810E944E1FFF
:1017C000892B09F427C245E050E068E471E08E817E
:1017D0009F810E944E1F892B09F4B3C243E050E061
:1017E0006EE471E08E819F810E944E1F8C01892BD7
:1017F00009F4C3C243E050E062E571E08E819F814D
:101800000E944E1F8C01892B09F4F9C244E050E07C
:1018100066E571E08E819F810E944E1F892B09F43D
:1018200093C345E050E06BE571E08E819F810E949B
:101830004E1F892B09F4C3C345E050E061E671E017
:101840008E819F810E944E1F892B09F4D6C3412CA3
:10185000512C32015BE2598373016201EE81FF81F9
:10186000A080A11009C087C0EE81FF813196FF835F
:10187000EE83A080AA2081F10A2D0A2C000C110B06
:10188000C8010E942E1F892B79F7005311090A30D5
:10189000110518F0FEE2AF1225C28E819F810E94D1
:1018A0002A1F2B013C01EE81FF8120812223A1F020
:1018B000822F022E000C990BC0970A9718F02E3237
:1018C00009F010C22E813F812F5F3F4F3F832E834F
:1018D000F90120812111ECCF59815B3209F409C350
:1018E0000CF41FC289818F3209F4C4C28E3509F409
:1018F000D5C28D3209F0B2CFA12CA3019201C7014C
:10190000B6010E94BC1B6B017C01AA2009F4A6CF82
:101910002E813F812F5F3F4F3F832E83A9829ECF31
:101920008E819F8104960E942A1FEE81FF8124816F
:10193000222379F0293269F03596FB83EA8302C0CD
:10194000293239F0EA81FB812191FB83EA8321115D
:10195000F7CF2BED3FE049E450E40E946C1E20E0FD
:1019600030E044E353E40E94FF1C43E050E00E9457
:10197000C9056B017C01C092E401D092E501E092BF
:10198000E601F092E701A7019601C701B6010E94A6
:10199000D91E81110AC146015701E894B7F82FEF0B
:1019A0003FEF4FE75FE7C501B4010E94D91E8111E7
:1019B00071C02FEF3FEF4FE75FE7C501B4010E9411
:1019C000FA1C18160CF066C0EDE9F1E0849188234A
:1019D00071F02EE931E03B832A830E946409EA8199
:1019E000FB8184913196FB83EA838111F6CF2796A0
:1019F0000FB6F894DEBF0FBECDBFDF91CF911F9120
:101A00000F91FF90EF90DF90CF90BF90AF909F909D
:101A10008F907F906F905F904F903F902F900895A0
:101A20008E819F8104960E942A1FEE81FF8124816E
:101A3000222379F0293269F03596FB83EA8302C0CC
:101A4000293239F0EA81FB812191FB83EA8321115C
:101A5000F7CF2BED3FE049E450E40E946C1E20E0FC
:101A600030E044E353E40E94FF1C42E050E00E9457
:101A7000C9056B017C017FCF80E090E0A0E8BFE367
:101A80008093E4019093E501A093E601B093E70110
:101A90006C017D0100EF11E024E048E0C701B601D0
:101AA0000E940C1FF80101900020E9F73297808115
:101AB000803369F40E171F0728F00CC031E0E03FB7
:101AC000F30741F03197118280818033B9F38E3270
:101AD00009F410828091F001882309F488CF41EF46
:101AE00051E05B834A830E946409EA81FB81819112
:101AF000FB83EA838111F7CF7ACF8E819F81039692
:101B00000E942A1FEE81FF812381222379F029324E
:101B100069F03496FB83EA8302C0293239F0EA8106
:101B2000FB812191FB83EA832111F7CF45E050E04F
:101B30000E94C9056B017C011ECF8E819F81049696
:101B40000E942A1FEE81FF812481222379F029320D
:101B500069F03596FB83EA8302C0293239F0EA81C5
:101B6000FB812191FB83EA832111F7CF2BED3FE02D
:101B700049E450E40E946C1E20E030E044E353E46A
:101B80000E94FF1C44E050E00E94C9056B017C01EB
:101B9000F2CE80E090E0A0ECBFE78093E401909368
:101BA000E501A093E601B093E701E6EAF1E0849154
:101BB000882309F41CCF27EA31E03B832A830E9463
:101BC0006409EA81FB8184913196FB83EA83811168
:101BD000F6CF0DCF8E819F8104960E942A1FEE8141
:101BE000FF812481222379F0293269F03596FB8325
:101BF000EA8302C0293239F0EA81FB812191FB831B
:101C0000EA832111F7CF46E050E00E94C9056B013D
:101C10007C01B1CE8E819F8105960E942A1FEE81A4
:101C2000FF812581222379F0293269F03696FB83E2
:101C3000EA8302C0293239F0EA81FB812191FB83DA
:101C4000EA832111F7CF49E050E00E94C90520E066
:101C500030E044E353E40E946C1E2BED3FE049E486
:101C600050E40E94FF1C6B017C0185CE8E819F8118
:101C700005960E942A1FEE81FF812581222379F09B
:101C8000293269F03696FB83EA8302C0293239F0A3
:101C9000EA81FB812191FB83EA832111F7CF47E0A1
:101CA00050E00E94C9056B017C0165CE8E819F8149
:101CB00005960E942A1FEE81FF812581222379F05B
:101CC000293269F03696FB83EA8302C0293239F063
:101CD000EA81FB812191FB83EA832111F7CF48E060
:101CE00050E0B3CFEE81FF81A08086ED8A0D823077
:101CF00008F4B1C0FFE2AF1609F4ADC02EE5A2169C
:101D000009F4A9C08A2D877F853209F4A4C0AA20CE
:101D100009F40AC24E815F814F5F5F4F5F834E833C
:101D20009DCD553209F4EEC0A12C5A3209F096CD62
:101D3000A3019201C701B6010E946C1E6B017C01D8
:101D4000E4CD8E819F8105960E942A1FEE81FF813E
:101D50002581222379F0293269F03696FB83EA83C4
:101D600002C0293239F0EA81FB812191FB83EA83A9
:101D70002111F7CF4AE050E068CF8E819F81039612
:101D80000E942A1FEE81FF812381222379F02932CC
:101D900069F03496FB83EA8302C0293239F0EA8184
:101DA000FB812191FB83EA832111F7CF0E94711DF2
:101DB0007B836A8377FDE6C08A819B81892B09F446
:101DC0005BCE74E5872E78EF972E7DE2A72E70E428
:101DD000B72EC12CD12C60E8E62E6FE3F62EA501BC
:101DE0009401C701B6010E946C1E6B017C010F5F5C
:101DF0001F4FEA81FB810E171F0789F7BCCD8E812B
:101E00009F8103960E942A1F0E94711D7B836A8313
:101E100077FD42C18A819B81892B09F42DCE812CCB
:101E2000912C40E2A42E41E4B42EC12CD12C30E8F8
:101E3000E32E3FE3F32EA5019401C701B6010E94F2
:101E40006C1E6B017C010F5F1F4FEA81FB810E1737
:101E50001F0789F790CDF981FB3209F42BC10CF4EF
:101E600014C129812F3239F02E35C9F02D3209F0F5
:101E70004FCD43CDA12C20E030E0A901C301B20138
:101E80000E94FA1C882309F43AC1A3019201C701F8
:101E9000B6010E94FF1C6B017C0137CDA12CC30150
:101EA000B2010E94711D6A837B838C839D838A802B
:101EB0009B8097FC76C08114910409F404C116013B
:101EC000EA82BF2C10E000E0C12CD12C90E8E92E72
:101ED0009FE3F92E91014A815B2DC701B6010E9453
:101EE0006C1E6B017C010F5F1F4F0815190591F7E0
:101EF0000CCDA3019201C701B6010E94BD1B6B016D
:101F00007C01ACCCA12C20E030E0A901C301B201DE
:101F10000E94FA1C882309F4DDC0C701B6010E94A3
:101F2000711D8B01C301B2010E94711DAB01C8017B
:101F3000BA010E94DE1EBC01990F880B990B0E940A
:101F4000A91D6B017C01E1CC8E819F8104960E94CA
:101F50002A1FEE81FF812481222379F0293269F042
:101F60003596FB83EA8302C0293239F0EA81FB818E
:101F70002191FB83EA832111F7CF6B017C01E89467
:101F8000F7F8F9CC44275527461B570B5B834A8348
:101F9000E2EB8E2EEAE59E2EECEBAE2EEEE3BE2EAD
:101FA00018CFA701960160E070E080E89FE30E94EF
:101FB000FF1C6B017C0191948194910880CF8E81EC
:101FC0009F8105960E942A1FEE81FF812581222391
:101FD00079F0293269F03696FB83EA8302C0293210
:101FE00039F0EA81FB812191FB83EA832111F7CF4C
:101FF0000E94351C6B017C01BECC8E819F810596B1
:102000000E942A1F0E94711D9B01EE81FF81458164
:10201000442379F0493269F03696FB83EA8302C0A3
:10202000493239F0EA81FB814191FB83EA83411116
:10203000F7CF37FDAECD223031050CF41DCD8B012D
:102040000F5F1F4FC12CD12C20E8E22E2FE3F22E80
:1020500022E030E03B832A834A815B81BA01550F3D
:10206000880B990B0E94A91D9B01AC01C701B60109
:102070000E946C1E6B017C018A819B8101969B836F
:102080008A838017910741F776CCF53209F43BCF6C
:10209000FA3209F44DCE3CCC44275527461B570B4A
:1020A0005B834A835DEC852E5CEC952EA92C5DE369
:1020B000B52EBBCEA3019201C701B6010E94BD1B84
:1020C0006B017C0122CCC12CD12C80E8E82E8FE35F
:1020D000F82E1BCCECEAF1E08491882309F487CC3C
:1020E0002DEA31E03B832A830E946409EA81FB8167
:1020F00084913196FB83EA838111F6CF78CCEEEBA5
:10210000F1E08491882309F472CC4FEB51E05B83BA
:102110004A830E946409EA81FB8184913196FB83A2
:10212000EA838111F6CF63CC39813B3209F4C2CF07
:102130005CF049814F3209F49ECE4E3509F4AFCEA2
:102140004D3209F08BCBD9CB353209F4DCCE3A32A3
:1021500009F084CBA3019201C701B6010E946C1E55
:102160006B017C017BCBAF92BF92CF92DF92EF925B
:10217000FF920F931F93CF93DF93FC01A0810A2E50
:10218000000CBB0BF12CE12C10E000E030E020E073
:10219000E701C458DB4FFE01E20FF31FE491EA1799
:1021A0001B06E1F02F5F3F4F25303105A1F70F5F90
:1021B0001F4FF5E0EF0EF11C0430110539F71092B6
:1021C000EF011092EE01DF91CF911F910F91FF90DF
:1021D000EF90DF90CF90BF90AF900895EA017B0120
:1021E0006C01F801EE0FFF1FEE0FFF1FE00FF11F54
:1021F000E20FF31FEE0FFF1FE45DFB4F05911491FB
:1022000060E773E0C8010E94371F892B09F424C1DD
:1022100065E673E0C8010E94371F892B09F4A8C046
:102220006AE573E0C8010E94371F892B09F4DBC0FF
:1022300060E573E0C8010E94371F892B09F448C18B
:102240006CE473E0C8010E94371F892B09F47EC13A
:1022500066E373E0C8010E94371F892B09F43CC173
:1022600060E373E0C8010E94371F892B09F48AC11B
:1022700062E273E0C8010E94371F892B09F4BCC1D8
:1022800068E173E0C8010E94371F892B09F4F2C18D
:1022900060E173E0C8010E94371F892B09F4E6C191
:1022A0006CE073E0C8010E94371F892B09F41CC23F
:1022B00063E073E0C8010E94371F5C01892B09F4B9
:1022C00049C26AEF72E0C8010E94371F892B09F4E6
:1022D00081C265EF72E0C8010E94371F5C01892B43
:1022E00009F47FC26DEE72E0C8010E94371F892B8E
:1022F00009F4C8C269EE72E0C8010E94371F892B39
:1023000009F46EC065EE72E0C8010E94371F892B88
:1023100009F466C061EE72E0C8010E94371F892B84
:1023200009F45EC06DED72E0C8010E94371F892B71
:1023300009F456C06AED72E0C8010E94371F892B6C
:1023400009F03DCF1092E8011092E9011092EA01E4
:102350001092EB0181E00E94BB08CBECD2E0FE01C1
:1023600084912196882309F477C20E946409F7CFEB
:102370006FE573E080EF91E00E94401F8091F001D3
:10238000688179818823D9F06F337105C4F4E1EF56
:10239000F1E007C028813981620F731F6F33710527
:1023A00074F46E0D7F1DDB018C93BF01605F714083
:1023B00081918111EFCF88819981680F791F79838D
:1023C00068836E0D7F1DFB0110828091F0018823D0
:1023D00039F0C1EFD1E00E94640989918111FBCFEE
:1023E000D6011C92ECCE64E573E080EF91E00E9490
:1023F000401F8091F001688179818823D9F06F3383
:102400007105C4F4E1EFF1E007C028813981620F62
:10241000731F6F33710574F46E0D7F1DDB018C9398
:10242000BF01605F714081918111EFCF88819981F7
:10243000680F791F798368836E0D7F1DFB01108201
:102440008091F001882361F2C1EFD1E00E9464091C
:1024500089918111FBCFC4CF6AE673E080EF91E0F0
:102460000E94401F8091F001688179818823D9F012
:102470006F337105C4F4E1EFF1E007C028813981C1
:10248000620F731F6F33710574F46E0D7F1DDB01D6
:102490008C93BF01605F714081918111EFCF888182
:1024A0009981680F791F798368836E0D7F1DFB0109
:1024B00010828091F001882309F492CFC1EFD1E01E
:1024C0000E94640989918111FBCFD6011C9277CEBD
:1024D0008EE5D6018C9373CE62E373E080EF91E0DA
:1024E0000E94401F2091F001888199812223D9F018
:1024F0008F339105C4F4E1EFF1E007C048815981C1
:10250000840F951F8F33910574F48E0D9F1DDC0190
:102510002C93CF01805F914021912111EFCF288131
:102520003981820F931F998388838E0D9F1DFC0133
:1025300010828091F001882309F452CFC1EFD1E0DD
:102540000E94640989918111FBCF4ACF81E00E94EA
:10255000BB08EAE3F3E08491882351F00BE313E036
:102560000E946409F80184910F5F1F4F8111F8CF19
:1025700080EC0E94BB0819821882D7011C92F601D8
:1025800010821DCE66E273E080EF91E00E94401F52
:102590002091F001888199812223D9F08F33910510
:1025A000C4F4E1EFF1E007C048815981840F951F21
:1025B0008F33910574F48E0D9F1DDC012C93CF0198
:1025C000805F914021912111EFCF28813981820FC5
:1025D000931F998388838E0D9F1DFC01108280912B
:1025E000F001882309F4FCCEC1EFD1E00E94640918
:1025F00089918111FBCFF4CE6DE173E080EF91E022
:102600000E94401F2091F001888199812223D9F0F6
:102610008F339105C4F4E1EFF1E007C0488159819F
:10262000840F951F8F33910574F48E0D9F1DDC016F
:102630002C93CF01805F914021912111EFCF288110
:102640003981820F931F998388838E0D9F1DFC0112
:1026500010828091F001882309F4C2CEC1EFD1E04D
:102660000E94640989918111FBCFBACE8BE5D60116
:102670008C93A5CD62E173E080EF91E00E94401F52
:102680002091F001888199812223D9F08F3391051F
:10269000C4F4E1EFF1E007C048815981840F951F30
:1026A0008F33910574F48E0D9F1DDC012C93CF01A7
:1026B000805F914021912111EFCF28813981820FD4
:1026C000931F998388838E0D9F1DFC01108280913A
:1026D000F001882309F484CEC1EFD1E00E9464099F
:1026E00089918111FBCF7CCE67E073E080EF91E0B0
:1026F0000E94401F2091F001888199812223B9F026
:102700008F339105A4F4E1EFF1E08E0D9F1DDC0104
:102710002C93CF01805F91402191222309F455C071
:1027200048815981840F951F8F33910574F39983E4
:1027300088838E0D9F1DFC0110828091F0018823FB
:1027400009F44ECEC1EFD1E00E9464098991811154
:10275000FBCF46CE6EEF72E080EF91E00E94401F0B
:102760004091F0014423D1F128813981C9012F33EF
:102770003105B4F4E1EFF1E006C09501280F391FEF
:102780002F3331056CF42E0D3F1DD9014C93CF0131
:10279000805F91405C014191888199814111EDCF29
:1027A0008A0D9B1D998388838E0D9F1DDC011C92D1
:1027B0008091F001882309F413CEC1EFD1E00E948B
:1027C000640989918111FBCF0BCE28813981820F59
:1027D000931FADCF85E2F6018083F1CC888199818A
:1027E000DFCF6FEE72E080EF91E00E94401F4091DA
:1027F000F001442309F455C028813981C9012F33E0
:102800003105ACF4E1EFF1E02E0D3F1DD9014C9301
:10281000CF01805F91405C0141918881998144237F
:1028200031F09501280F391F2F3331056CF38A0DD4
:102830009B1D998388838E0D9F1DDC011C928091C6
:10284000F001882309F4CCCDC1EFD1E00E946409E6
:1028500089918111FBCFC4CDFFEF23ED80E3F150CF
:1028600020408040E1F700C0000081E00E94BB08EA
:10287000C9EBD2E0FE0184912196882339F00E94B1
:102880006409F8CF8DE5F601808399CC80EC0E9435
:10289000BB08E7018991882309F4A2CD0E9464094D
:1028A000F9CF88819981C3CF8F929F92AF92BF92C7
:1028B000CF92DF92EF92FF920F931F93CF93DF930C
:1028C000CDB7DEB7C054D1090FB6F894DEBF0FBE46
:1028D000CDBF6A01FC01A0810A2E000CBB0B50E0A9
:1028E00040E0F12CE12C30E020E08A0104581B4F3D
:1028F000F801E20FF31FE491EA171B0631F12F5F95
:102900003F4F25303105A1F7EFEFEE1AFE0A4B5F7E
:102910005F4FF4E0EF16F10431F71092ED011092E1
:10292000EC01C05CDF4F0FB6F894DEBF0FBECDBF29
:10293000DF91CF911F910F91FF90EF90DF90CF909B
:10294000BF90AF909F908F9008955B014C01F7016D
:10295000EE0FFF1FEE0FFF1FEE0DFF1DE20FF31F27
:10296000EE0FFF1FEC5AFB4F0591149165EB72E0DF
:10297000C8010E94371F892B09F43CC16CEA72E040
:10298000C8010E94371F892B09F4B3C063EA72E0C3
:10299000C8010E94371F892B09F4EDC06CE972E071
:1029A000C8010E94371F892B09F467C169E972E0E9
:1029B000C8010E94371F892B09F463C165E972E0E1
:1029C000C8010E94371F892B09F45FC16DE872E0CE
:1029D000C8010E94371F892B09F49BC166E872E089
:1029E000C8010E94371F892B09F4D7C16EE772E036
:1029F000C8010E94371F892B09F40FC266E772E0F5
:102A0000C8010E94371F892B09F447C263E772E0AF
:102A1000C8010E94371F892B09F443C267E672E0A0
:102A2000C8010E94371F7C01892B09F4BCC260E6F3
:102A300072E0C8010E94371F7C01892B09F472C221
:102A400069E572E0C8010E94371F7C01892B09F4F7
:102A500003C463E572E0C8010E94371F892B09F4A3
:102A6000F7C36FE472E0C8010E94371F892B09F495
:102A7000C5C36BE472E0C8010E94371F892B09F4BB
:102A80009FC368E472E0C8010E94371F892B09F4D4
:102A900026C363E272E0C8010E94371F892B09F444
:102AA000F3C26AEF71E0C8010E94371F892B09F059
:102AB00034CF6091E8017091E9018091EA01909131
:102AC000EB0100EF11E022E048E00E940C1FF8014A
:102AD00001900020E9F732978081803309F0AEC27F
:102AE00021E0E03FF20709F008F4ABC23197118210
:102AF000F3CF67EA72E080EF91E00E94401F80917F
:102B0000F001882309F445C1D6016D917C916F33A2
:102B10007105D4F4E1EFF1E008C0D6012D913C91AC
:102B2000620F731F6F3371057CF46A0D7B1DDB012F
:102B30008C93BF01605F714081918111EECFF601EE
:102B400080819181680F791FD6016D937C936A0D06
:102B50007B1DFB0110828091F001882349F001EF79
:102B600011E00E946409D8018D918D018111F9CF86
:102B7000F4011082D2CE6EE972E080EF91E00E9403
:102B8000401F8091F001F601608171818823E9F096
:102B90006F337105D4F4E1EFF1E008C0D6012D9157
:102BA0003C91620F731F6F3371057CF46A0D7B1DBE
:102BB000DB018C93BF01605F714081918111EECF89
:102BC000F60180819181680F791FD6016D937C9306
:102BD0006A0D7B1DFB0110828091F001882341F278
:102BE00001EF11E00E946409D8018D918D018111DE
:102BF000F9CFBECF60EB72E080EF91E00E94401F02
:102C00008091F001882309F480C0D6016D917C91F8
:102C10006F337105D4F4E1EFF1E008C0D6012D91D6
:102C20003C91620F731F6F3371057CF46A0D7B1D3D
:102C3000DB018C93BF01605F714081918111EECF08
:102C4000F60180819181680F791FD6016D937C9385
:102C50006A0D7B1DFB0110828091F001882309F42D
:102C600087CF01EF11E00E946409D8018D918D0199
:102C70008111F9CFF401108250CE8EE5F4018083EA
:102C80004CCE84E4D4018C9348CE60E972E080EFAE
:102C900091E00E94401F2091F001F6018081918116
:102CA0002223E9F08F339105D4F4E1EFF1E008C07D
:102CB000D6014D915C91840F951F8F3391057CF463
:102CC0008A0D9B1DDC012C93CF01805F91402191E7
:102CD0002111EECFF60120813181820F931FD601A1
:102CE0008D939C938A0D9B1DFC0110828091F001B5
:102CF000882309F43DCF01EF11E00E946409D80157
:102D00008D918D018111F9CF33CFF60160817181F1
:102D10009CCF69E872E080EF91E00E94401F209113
:102D2000F001F601808191812223E9F08F33910532
:102D3000D4F4E1EFF1E008C0D6014D915C91840F2D
:102D4000951F8F3391057CF48A0D9B1DDC012C931C
:102D5000CF01805F914021912111EECFF6012081BA
:102D60003181820F931FD6018D939C938A0D9B1DF9
:102D7000FC0110828091F001882309F4F9CE01EF63
:102D800011E00E946409D8018D918D018111F9CF64
:102D9000EFCEF60160817181D7CE62E872E080EFFC
:102DA00091E00E94401F2091F001F6018081918105
:102DB0002223E9F08F339105D4F4E1EFF1E008C06C
:102DC000D6014D915C91840F951F8F3391057CF452
:102DD0008A0D9B1DDC012C93CF01805F91402191D6
:102DE0002111EECFF60120813181820F931FD60190
:102DF0008D939C938A0D9B1DFC0110828091F001A4
:102E0000882309F4B5CE01EF11E00E946409D801CE
:102E10008D918D018111F9CFABCE68E772E080EF23
:102E200091E00E94401F2091F001F6018081918184
:102E30002223E9F08F339105D4F4E1EFF1E008C0EB
:102E4000D6014D915C91840F951F8F3391057CF4D1
:102E50008A0D9B1DDC012C93CF01805F9140219155
:102E60002111EECFF60120813181820F931FD6010F
:102E70008D939C938A0D9B1DFC0110828091F00123
:102E8000882309F475CE01EF11E00E946409D8018E
:102E90008D918D018111F9CF6BCE88E2F401808391
:102EA0003CCD6BE672E080EF91E00E94401F2091E4
:102EB000F001222309F4BAC0D6018D919C918F3381
:102EC0009105D4F4E1EFF1E008C0D6014D915C9199
:102ED000840F951F8F3391057CF48A0D9B1DDC01B7
:102EE0002C93CF01805F914021912111EECFF6010B
:102EF00020813181820F931FD6018D939C938A0D7F
:102F00009B1DFC0110828091F001882309F430CED2
:102F100001EF11E00E946409D8018D918D018111AA
:102F2000F9CF26CE6DE572E080EF91E00E94401F60
:102F30004091F001442309F47DC0F60120813181E4
:102F4000C9012F333105BCF4E1EFF1E006C0970170
:102F5000280F391F2F33310574F42A0D3B1DD90179
:102F60004C93CF01805F91407C014191D6018D91BE
:102F70009C914111ECCF8E0D9F1DF60191838083B2
:102F80008A0D9B1DDC011C928091F001882309F4BD
:102F9000EFCD01EF11E00E946409F80181918F01EA
:102FA0008111F9CFE5CD64E672E080EF91E00E94F7
:102FB000401F4091F0014423A9F1D6012D913C918D
:102FC000C9012F333105B4F4E1EFF1E02A0D3B1DC7
:102FD000D9014C93CF01805F91407C014191D60192
:102FE0008D919C91442331F09701280F391F2F3385
:102FF000310564F38E0D9F1DF601918380838A0D48
:103000009B1DDC011C928091F001882309F4B0CD56
:1030100001EF11E00E946409F80181918F01811193
:10302000F9CFA6CDF60180819181E4CFF6018081B0
:10303000918162CFD6018D919C919DCF8E3209F402
:10304000108200EF11E0F801CF01805F91402191E3
:10305000D6014D915C91840F951FD501A80FB91F22
:10306000222329F08F33910514F42C93EDCFF60130
:10307000918380831C92D8018D918D01882309F45E
:1030800077CD0E946409F7CFB501CE0101960E9469
:10309000471FCE0101960E942A1F9B01AC0160913F
:1030A000E8017091E9018091EA019091EB010E94A1
:1030B000BC1B6093E8017093E9018093EA0190934F
:1030C000EB0181E00E94BB080FE012E0F80184915F
:1030D0000F5F1F4F882371F10E946409F7CFB5017C
:1030E000CE0101960E94471FCE0101960E942A1F21
:1030F0009B01AC016091E8017091E9018091EA01C6
:103100009091EB010E94BD1B6093E8017093E9016F
:103110008093EA019093EB0181E00E94BB0808E3F1
:1031200012E0F80184910F5F1F4F8823D1F00E94B5
:103130006409F7CFFFEF23ED80E3F150204080409A
:10314000E1F700C0000081E00E94BB080DEF11E034
:10315000F80184910F5F1F4F8823D1F00E9464090A
:10316000F7CFFFEF23ED80E3F15020408040E1F7FF
:1031700000C0000081E00E94BB0806E212E0F801F6
:1031800084910F5F1F4F882379F00E946409F7CF65
:1031900080EC0E94BB08D5018D915D01882309F464
:1031A000E7CC0E946409F7CF80EC0E94BB08D501F0
:1031B0008D915D01882309F4DBCC0E946409F7CF6F
:1031C0006091E4017091E5018091E6019091E70141
:1031D00000EF11E022E048E00E940C1FF80101908E
:1031E0000020E9F732978081803361F421E0E03FED
:1031F000F20759F050F031971182F5CF85E4F401D0
:1032000080838BCB8E3209F4108200EF11E0F8013D
:10321000CF01805F91402191D6014D915C91840F47
:10322000951FD501A80FB91F222329F08F339105CF
:1032300014F42C93EDCFF601918380831C92D80176
:103240008D918D01882309F493CC0E946409F7CFF6
:1032500089E2D4018C9361CB65E572E080EF91E067
:103260000E94401F4091F0014423F1F0F6012081BB
:103270003181C9012F333105D4F4E1EFF1E02A0D9A
:103280003B1DD9014C93CF01805F91407C0141915E
:10329000D6018D919C91442351F09701280F391F3D
:1032A0002F33310564F303C0D6018D919C918E0DAF
:1032B0009F1DF601918380838A0D9B1DDC011C926A
:1032C0008091F001882309F453CC01EF11E00E94B2
:1032D0006409F80181918F018111F9CF49CCCF9315
:1032E000DF93EC018881882331F021960E946409E4
:1032F00089918111FBCFDF91CF910895CF93DF9317
:10330000EC012196FC018491882339F00E94640924
:10331000FE01849121968111F9CFDF91CF9108951B
:1033200081E00C94BB08389A399A3A9A3B9A409AB1
:10333000419A429A439A20982198229856985798F1
:10334000289A299A2A9A5E9A5F9A0895CF93DF93D2
:10335000CDB7DEB7C354D1090FB6F894DEBF0FBEA8
:10336000CDBF1A821982FE0133968EE3DF011D92D2
:103370008A95E9F723961FAE1EAE23970E9409098E
:103380000E949319E2E2F4E08491882351F003E271
:1033900014E00E946409F80184910F5F1F4F8111AE
:1033A000F8CFFFEF27EA41E6F15020404040E1F737
:1033B00000C0000081E00E94BB08E0E1F4E08491DD
:1033C000882351F001E114E00E946409F80184911E
:1033D0000F5F1F4F8111F8CF80EC0E94BB0881EE78
:1033E000E82E83E0F82E92EBC92E93E0D92E20EA46
:1033F000A22E23E0B22E3FE8832E33E0932E47E83F
:10340000642E43E0742E55E7452E53E0552E0E945E
:10341000F20724968FAF24978823C9F3833531F1BF
:10342000813409F4E5C0833409F43DC123962EADFF
:103430003FAD2397843409F46EC08D3309F459C12C
:103440002F3331050CF46AC0FFEF25EA4EE0F1504E
:1034500020404040E1F700C000000E94F20724969F
:103460008FAF2497882399F28335D1F681E090E0DD
:103470002091EE013091EF01232B11F090E080E0DC
:103480009093EF018093EE0181E00E94BB08809150
:10349000EE019091EF01E2E0F4E0892B11F4E3EF0B
:1034A000F3E08F010F5F1F4F8491882341F00E944A
:1034B0006409F80184910F5F1F4F8111F8CFFFEF6E
:1034C00023ED40E3F15020404040E1F700C0000010
:1034D00081E00E94BB08F7018491882351F002EE3D
:1034E00013E00E946409F80184910F5F1F4F81115E
:1034F000F8CF80EC0E94BB088981882309F4A4CF0F
:103500008E010E5F1F4F0E946409D8018D918D01BD
:103510008111F9CF99CF12161306CCF18091EE01EB
:103520009091EF01892B09F0D8C08091EC01909126
:10353000ED01AE014F5B5F4FBE016F5F7F4F892B87
:1035400009F4ABC0CE018D5B9F4F0E9454142496AA
:103550008FAD2497882309F477CF23964EAD5FADC6
:1035600023979A012F5F3F4F23963FAF2EAF2397AC
:1035700061E070E06C0F7D1F460F571FDA018C93DE
:10358000260F371FF90110820E9464095DCF215078
:10359000310923963FAF2EAF239741E050E04C0F07
:1035A0005D1F240F351FD9011C9280EC0E94BB08BF
:1035B000F4018491882351F000E913E00E9464092A
:1035C000F80184910F5F1F4F8111F8CF80EC0E94AA
:1035D000BB088981882309F437CF8E010E5F1F4F06
:1035E0000E946409D8018D918D018111F9CF2CCFF2
:1035F00081E090E02091EC013091ED01232B11F05E
:1036000090E080E09093ED018093EC0181E00E94D6
:10361000BB088091EC019091ED01E3EDF3E0892B83
:1036200011F4E4ECF3E08F010F5F1F4F84918823C6
:1036300041F00E946409F80184910F5F1F4F8111CE
:10364000F8CFFFEF23ED40E3F15020404040E1F799
:1036500000C0000081E00E94BB08F601849188232D
:1036600051F003EB13E00E946409F80184910F5FAD
:103670001F4F8111F8CF80EC0E94BB0889818823FD
:1036800009F4E2CE8E010E5F1F4F0E946409D8013B
:103690008D918D018111F9CFD7CECE018D5B9F4FDA
:1036A0000E94A90954CF81E00E94BB08F5018491D2
:1036B000882351F001EA13E00E946409F801849123
:1036C0000F5F1F4F8111F8CF80EC0E94BB0823963B
:1036D0001FAE1EAE23971982B7CEAE014F5B5F4F70
:1036E000BE016F5F7F4FCE018D5B9F4F0E94B31075
:1036F0002ECFE1E0F0E0EC0FFD1F2E0F3F1FD901B0
:103700001C9281E00E94BB08F3018491882351F050
:1037100008E813E00E946409F80184910F5F1F4FCD
:103720008111F8CF80EC0E94BB08CE0101960E9467
:10373000730B23961FAE1EAE23971982FFEF2BE764
:1037400042E9F15020404040E1F700C0000081E034
:103750000E94BB08F2018491882351F006E713E030
:103760000E946409F80184910F5F1F4F8111F8CF07
:1037700080EC0E94BB0868CE5058BB27AA270E9445
:10378000D41B0C942D1E0E941F1E38F00E94261E72
:1037900020F039F49F3F19F426F40C941C1E0EF40B
:1037A000E095E7FB0C94081EE92F0E943E1E58F39B
:1037B000BA17620773078407950720F079F4A6F516
:1037C0000C94601E0EF4E0950B2EBA2FA02D0B0169
:1037D000B90190010C01CA01A0011124FF27591B56
:1037E00099F0593F50F4503E68F11A16F040A22F5C
:1037F000232F342F4427585FF3CF469537952795CD
:10380000A795F0405395C9F77EF41F16BA0B620BCB
:10381000730B840BBAF09150A1F0FF0FBB1F661F12
:10382000771F881FC2F70EC0BA0F621F731F841F55
:1038300048F4879577956795B795F7959E3F08F07B
:10384000B0CF9395880F08F09927EE0F979587953D
:103850000895492FE5E593959E9F912DE3E0E99F1B
:103860004019EE2708950C940E1E0E94461ED8F3B0
:103870009923C9F3DF93CF931F930F93FF92EF9296
:10388000DF92CF92BF92AF929F928F929F5780F418
:10389000919588232AF09395660F771F881FDAF792
:1038A000D8DF4A951AF009F44E5F9395919501C0BF
:1038B000D0DF91589F93FF27FF248F019F014F0175
:1038C000DF01EF01660F771F881FAA1F4A95D2F705
:1038D00098E0000F111F000F111FEE0FA801AA247E
:1038E0004E0F511DA11C6A01EA2C440F551FAA1C42
:1038F0004C0D5D1DAE1C4160A41BB50BCA0920F424
:10390000A40FB51FCA1D07C0AF01440F551F040FF8
:10391000151F0160E16043E0660F771F881FAA1F33
:10392000BB1FCC1F4A95C1F79A9599F690E1000FFD
:10393000111F221F331F881C991C1094C1F7EE0F12
:10394000FF1FFF1C0024A00150016001EE24400F66
:10395000511FA21EB31EC81CD91CE11C4E0F5F1FB5
:10396000AF1CB11CC11CD11CE11C009441F0440FE0
:10397000551FAA1CBB1CCC1CDD1CEE1CE8CFA41BD5
:10398000B50BCA09DB096C097D098E0940F4A40F47
:10399000B51FCA1DDB1D6C1D7D1D8E1D0AC00E0FBF
:1039A0001F1F2F1D311D811C911C0094C1F7016048
:1039B000E16043E0AA0FBB1FCC1FDD1F661F771F0E
:1039C000881F4A95B9F79A9509F0B1CFBF018F2D9D
:1039D0009F91880F9695879597F98F909F90AF90BC
:1039E000BF90CF90DF90EF90FF900F911F91CF91FC
:1039F000DF9108950E94E41D08F481E008950E947B
:103A0000131D0C942D1E0E94261E58F00E941F1E8E
:103A100040F029F45F3F29F00C94081E51110C94DA
:103A2000611E0C941C1E0E943E1E68F39923B1F384
:103A3000552391F3951B550BBB27AA2762177307D4
:103A4000840738F09F5F5F4F220F331F441FAA1F68
:103A5000A9F335D00E2E3AF0E0E832D09150504024
:103A6000E695001CCAF72BD0FE2F29D0660F771FD2
:103A7000881FBB1F261737074807AB07B0E809F0B8
:103A8000BB0B802DBF01FF2793585F4F3AF09E3F3D
:103A9000510578F00C94081E0C94611E5F3FE4F30E
:103AA000983ED4F3869577956795B795F7959F5F80
:103AB000C9F7880F911D9695879597F90895E1E0CC
:103AC000660F771F881FBB1F621773078407BA072B
:103AD00020F0621B730B840BBA0BEE1F88F7E09586
:103AE00008950E94781D6894B1110C94611E089588
:103AF0000E94461E88F09F5798F0B92F9927B7511A
:103B0000B0F0E1F0660F771F881F991F1AF0BA9581
:103B1000C9F714C0B13091F00E94601EB1E0089561
:103B20000C94601E672F782F8827B85F39F0B93F53
:103B3000CCF3869577956795B395D9F73EF4909534
:103B40008095709561957F4F8F4F9F4F0895E894B2
:103B500009C097FB3EF490958095709561957F4FD5
:103B60008F4F9F4F9923A9F0F92F96E9BB27939583
:103B7000F695879577956795B795F111F8CFFAF493
:103B8000BB0F11F460FF1BC06F5F7F4F8F4F9F4FC4
:103B900016C0882311F096E911C0772321F09EE822
:103BA000872F762F05C0662371F096E8862F70E088
:103BB00060E02AF09A95660F771F881FDAF7880F62
:103BC0009695879597F90895990F0008550FAA0BB8
:103BD000E0E8FEEF16161706E807F907C0F0121620
:103BE0001306E407F50798F0621B730B840B950B23
:103BF00039F40A2661F0232B242B252B21F4089578
:103C00000A2609F4A140A6958FEF811D811D089514
:103C100097F99F6780E870E060E008959F3F31F07A
:103C2000915020F4879577956795B795880F911DEA
:103C30009695879597F908959FEF80EC0895002455
:103C40000A941616170618060906089500240A9401
:103C500012161306140605060895092E0394000C87
:103C600011F4882352F0BB0F40F4BF2B11F460FF16
:103C700004C06F5F7F4F8F4F9F4F089557FD90583F
:103C8000440F551F59F05F3F71F04795880F97FB20
:103C9000991F61F09F3F79F08795089512161306DA
:103CA0001406551FF2CF4695F1DF08C01616170609
:103CB0001806991FF1CF869571056105089408953E
:103CC000E894BB2766277727CB0197F908950E94D0
:103CD000E41D08F48FEF08950E947F1E0C942D1EA2
:103CE0000E941F1E38F00E94261E20F0952311F01E
:103CF0000C94081E0C941C1E11240C94611E0E942E
:103D00003E1E70F3959FC1F3950F50E0551F629FC3
:103D1000F001729FBB27F00DB11D639FAA27F00D24
:103D2000B11DAA1F649F6627B00DA11D661F829F4B
:103D30002227B00DA11D621F739FB00DA11D621F30
:103D4000839FA00D611D221F749F3327A00D611D4D
:103D5000231F849F600D211D822F762F6A2F11242F
:103D60009F5750409AF0F1F088234AF0EE0FFF1F62
:103D7000BB1F661F771F881F91505040A9F79E3FB9
:103D8000510580F00C94081E0C94611E5F3FE4F313
:103D9000983ED4F3869577956795B795F795E7950F
:103DA0009F5FC1F7FE2B880F911D9695879597F918
:103DB00008950E94E41D880B990B089597FB072E28
:103DC00016F4009407D077FD09D00E94F81E07FC76
:103DD00005D03EF4909581959F4F0895709561951B
:103DE0007F4F0895EE0FFF1F0590F491E02D099489
:103DF000AA1BBB1B51E107C0AA1FBB1FA617B70711
:103E000010F0A61BB70B881F991F5A95A9F780952C
:103E10009095BC01CD010895EF920F931F93CF931E
:103E2000DF93E80134E047FD34E1042E000C550B2C
:103E300057FF03C0519541955109E32E022F242FBE
:103E4000AE010E944C21CE01DF91CF911F910F91C5
:103E5000EF900895662777270C94AB2291110C946C
:103E6000D324803219F089508550C8F70895FB019A
:103E7000DC018D91059080190110D9F3990B0895FB
:103E8000FB01DC0105900D920020E1F70895FB0194
:103E9000DC0101900D920020E1F70895FB01DC01A7
:103EA0004150504030F08D910190801919F400205C
:103EB000B9F7881B990B0895B0E0A0E0E2E6FFE1B6
:103EC0000C94AD25AE014B5F5F4FFA01619171918A
:103ED000AF0180911202909113020E94721FE2E0E2
:103EE0000C94C925ABE0B0E0E8E7FFE10C949D2518
:103EF0007C013B018A01FC0117821682838181FFCC
:103F0000C8C1CE0101965C01F7019381F30193FDD5
:103F1000859193FF81913F01882309F453C1853234
:103F200039F493FD859193FF81913F01853229F406
:103F3000B70190E00E940425E7CF912C212C312C71
:103F4000FFE1F31538F08B3211F190F4803209F172
:103F5000833229F137FC3CC020ED280F2A3050F580
:103F600036FE20C08AE0989E200D1124922E06C0B5
:103F70008D3291F0803371F7689430F8F30193FD3E
:103F8000859193FF81913F018111DACF21C068941F
:103F900031F8689432F8F2CF689433F8EFCF689430
:103FA00034F8ECCFEAE02E9E200D1124222E6894E6
:103FB00035F8E4CF8E3229F436FC04C1689436F823
:103FC000DDCF8C3619F4689437F8D8CF8836B1F243
:103FD000982F9F7D95549330E0F08336A1F183377D
:103FE000C1F1833509F063C02801F2E04F0E511C86
:103FF000F801C080D180692D70E036FC02C06FEFFF
:104000007FEFC6010E94EE244C01689437F88201CC
:104010000AC00C5F1F4FFFE3F98388248394912C1F
:104020006501E89437F833FE2DC0522C81149104B9
:1040300071F5552009F468CFB70180E290E00E9445
:1040400004255A94F6CFF801808189830E5F1F4FB3
:10405000E4CF2801F2E04F0E511CF801C080D1805E
:10406000692D70E036FC02C06FEF7FEFC6010E9441
:10407000F9244C018201D5CFB70180E290E00E9483
:1040800004252A942814190409F0B0F7CECFF601BC
:1040900037FC859137FE81916F01B70190E00E9456
:1040A000042551105A94F1E08F1A9108BFCF84363D
:1040B00019F0893609F077C0F80137FE6BC06081CE
:1040C0007181828193810C5F1F4FF32DFF763F2E0C
:1040D00097FF09C090958095709561957F4F8F4FA0
:1040E0009F4F689437F82AE030E0A5010E943425FC
:1040F000C82ECA188C2C432C36FE0CC0E89440F80D
:10410000C91440F434FE05C032FC03C0F32DFE7E1A
:104110004F2E892C44FE95C0FE01EC0DF11D8081CF
:10412000803309F087C0242D297E422E842D88708B
:10413000582E43FC95C040FE8FC09C2C821418F46E
:104140002C0C922C981844FE91C0B70180E390E0AB
:104150000E94042542FE09C088E790E041FE02C0AB
:1041600088E590E0B7010E940425C91408F48AC0CC
:10417000CA94D12C9FEFC91AD90ACA0CDB1CF601CC
:1041800082916F01B70190E00E940425AC14BD0438
:10419000B1F74FCF60817181072E000C880B990B0E
:1041A0000E5F1F4F92CFD32CE894D4F82AE030E072
:1041B000853739F1232D297FD22E8F3601F148F42E
:1041C0008835A9F0F701868197812B96E2E10C945E
:1041D000B925803749F08837A9F7D4FE02C0689422
:1041E000D2F820E130E00DC06894D4F8F6CF34FE68
:1041F00003C0822F8660D82E20E132E002C028E082
:1042000030E0F801D7FE0FC0608171818281938117
:104210000C5F1F4FA5010E943425C82ECA183D2CE3
:10422000E89437F867CF6081718190E080E00E5F9D
:104230001F4FF0CF42FC02C0839478CF83948394C5
:1042400075CF842D867809F471CFF6CFB70180E25F
:1042500090E00E94042583948214C0F3512C73CF04
:10426000522C5818821408F46ECFF8CF842D86781B
:1042700009F47BCF8BE241FE80E247FC8DE2B7017F
:1042800090E071CFB70180E390E00E9404259A94FA
:104290006CCF8FEF9FEF99CFA9E0B0E0E2E5F1E2BC
:1042A0000C94A3256A01F22EB02E102FFBE3AF2E43
:1042B000A01608F41BE31F5F012F27E0AE014F5F3C
:1042C0005F4F0E94FB23BC018981982F9970913028
:1042D00009F43FC09BE2E1FC04C09E2D9170E0FC1C
:1042E0003AC05E2D5071E82FE87083FF46C084E02D
:1042F000911101C083E0EF2DE81B8F1508F0E0E07D
:10430000D6018E2F20E2552351F1992329F0D601B1
:104310009C93C60101966C0196012D5F3F4FE2FE12
:1043200024C08EE4D6018C9391E411969C9311974E
:1043300012968C93D9018E2F90E281111BC0E20F4F
:10434000F32FF11D10828EEF9FEF2996ECE00C9475
:10435000BF259DE2C6CF90E2C4CF2D93815081113D
:10436000FCCFCE0ED11CE0E0D0CF8EE6D6018C93F0
:1043700091E6DBCF9D938150E0CF482F447082FFC0
:104380003DC084E0911101C083E08F1510F4EF2D42
:10439000E81BD6018E2F20E2552309F1992329F03D
:1043A000D6019C93C60101966C0196012D5F3F4F8B
:1043B000E2FE1BC089E4D6018C938EE411968C93A7
:1043C000119786E412968C93D9018E2F90E2882360
:1043D00009F4B5CF9D938150FACF2D93815081116F
:1043E000FCCFCE0ED11CE0E0D9CF89E6D6018C936C
:1043F0008EE611968C93119786E6E4CF9B0177FFAA
:1044000002C030E020E0A1E0B0E0911102C0B0E0D5
:10441000A0E0F9013196AE0FBF1F8B2C912CBB2071
:1044200009F461C05401EFEFAE1ABE0AAA0DBB1D1C
:10443000FA161B0619F014F04F2D4A1B511188C0B3
:10444000E3FC59C07601A42FB0E2A1114FC0C40E05
:10445000D11C992309F45BC040E0D6011196F60106
:1044600090836D01552309F448C0012F060F9A81EE
:10447000582F507184FF03C0913309F40150101676
:104480000CF047C0093008F008E0EEE2FE2E5B01B8
:10449000A01AB10885019194819491082F3F3207A9
:1044A00029F4D601FC92F60131966F016217730769
:1044B00094F1021713077CF5DB01A21BB30BAA24AE
:1044C000A394B12CAC0EBD1EAA0DBB1D11968C91F0
:1044D00021503109D601119628153905F4F0F6015D
:1044E00080836D01DBCFB12CA12CA0CFF701B1935C
:1044F0007F01A150AACF9111B0CFD601942F50E3E4
:1045000002C05D9391509111FCCFC40ED11C40E0CC
:10451000ACCF01E0BACF80E3DBCF6217730731F491
:10452000963388F4953311F4552369F0F6018083AE
:10453000FD01842F90E2811108C0A40FB11D1C92CF
:1045400090E080E002CF81E3F1CF91938150F3CFEF
:10455000911183CF8ACFB0E0A0E0E1EBF2E20C94BE
:10456000A3255C017B016115710519F0DB018D93B9
:104570009C9385010F5F1F4FF501D0818D2F90E037
:104580000E942E1F6C01892BB9F5DD32B9F50F5F42
:104590001F4FD5011196DC91C1E05801F1E0AF1A2F
:1045A000B10843E050E060E770E0C5010E94D62406
:1045B000892B69F5680182E0C80ED11C45E050E006
:1045C0006BE670E0C6010E94D624892B21F46801B5
:1045D00097E0C90ED11CE114F10419F0D701CD9276
:1045E000DC9260E070E080E89FEFC111FFC060E006
:1045F00070E080E89FE7FAC05801BBCFDB3229F4B6
:1046000085010E5F1F4FF501D181C0E0C6CF43E0A9
:1046100050E068E670E0C5010E94D624892BE9F0DD
:10462000F80110E000E020E030E0A9015F01B0ED0A
:104630008B2E8D0E89E08815C8F19C2E689491F818
:104640008C2F8870C2FF16C0811102C00F5F1F4FF0
:104650003196D501DC91C92DE9CFE114F10429F09F
:104660000E5F1F4FF7011183008360E070E080EC64
:104670009FE7BCC0882311F001501109A5E0B0E00C
:104680000E9492259B01AC01220F331F441F551F2E
:10469000280D311D411D511D283999E93907490758
:1046A00099E15907A8F2C6609C2ED2CFAEEF8A12CC
:1046B00006C0C3FD3CC09C2E689493F8C9CFDF7D33
:1046C000D534A9F580818D3239F4C061DF011296AD
:1046D000818162E070E006C0DF018B32C1F3119688
:1046E00061E070E080535D01A61AB70A8A30F8F4E1
:1046F000E0E8CE16ECE0DE065CF4B601660F771F4C
:10470000660F771FC60ED71ECC0CDD1CC80ED11C41
:104710005D01FFEFAF1ABF0A8C9180538A30A8F178
:10472000C4FF03C0D194C194D1080C0D1D1DC1FF5D
:1047300009C0E114F10431F081E0A81AB108D701F1
:10474000AD92BC92CA01B9010E94A71DC370C330CB
:1047500009F490584B015C0120E030E0A9010E946F
:10476000FA1C882309F440C0CFE9D0E017FF05C048
:10477000119501951109C7E8D0E06E01B8E1CB1A97
:10478000D10880E2E82EF12C0FC0D501B1CFFE0197
:1047900025913591459154910E191F09C501B40118
:1047A0000E946C1E4B015C01D501C4010E151F0552
:1047B00074F72497F594E794CC16DD06A9F78A2FB1
:1047C000880F8B2F881F8F3F49F020E030E0A90130
:1047D000C501B4010E94FA1C811106C082E290E07A
:1047E0009093170280931602C501B401CDB7DEB7CE
:1047F000ECE00C94BF25283008F027E03327DA01DD
:10480000990F311D87FD916000966105710539F49E
:1048100032602E5F3D9330E32A95E1F708959F3F84
:1048200030F080387105610509F03C5F3C5F3D93D5
:10483000913008F08068911DDF93CF931F930F9301
:10484000FF92EF92192F987F9695E92F969596955E
:10485000E90FFF27E350FF4F99273327EE24FF246A
:10486000A701E70105900894079428F4360FE71E86
:10487000F81E491F511D660F771F881F991F069448
:10488000A1F70590079428F4E70EF81E491F561F5C
:10489000C11D770F881F991F661F0694A1F7059009
:1048A000079428F4F80E491F561FC71FD11D880F03
:1048B000991F661F771F0694A1F70590079420F4AF
:1048C000490F561FC71FD81F990F661F771F881FD4
:1048D0000694A9F784911095177041F0D695C79565
:1048E00057954795F794E7941A95C1F7E3EAF0E0F6
:1048F00068941590159135916591959105907FE299
:104900007395E118F10A430B560BC90BD009C0F798
:10491000E10CF11E431F561FC91FD01D7EF47033DA
:1049200011F48A95E6CFE894015030F0080F0AF4AC
:104930000027021708F4202F2395022F7A3328F03E
:1049400079E37D932A95E9F710C07D932A9589F63E
:10495000069497956795379517951794E118F10A7E
:10496000430B560BC90BD00998F023957E91739594
:104970007A3308F070E37C932013B8F77E9170616E
:104980007D9330F0839571E37D9370E32A95E1F791
:104990001124EF90FF900F911F91CF91DF919927F4
:1049A00087FD90950895992788270895FB01DC01DC
:1049B0004150504088F08D9181341CF08B350CF4BF
:1049C000805E659161341CF06B350CF4605E861B73
:1049D000611171F3990B0895881BFCCFFC010590C0
:1049E000615070400110D8F7809590958E0F9F1FF1
:1049F0000895FC016150704001900110D8F7809536
:104A000090958E0F9F1F08950F931F93CF93DF9361
:104A1000182F092FEB018B8181FD09C01FEF0FEFCC
:104A2000812F902FDF91CF911F910F91089582FFD9
:104A300014C02E813F818C819D81281739073CF459
:104A4000E881F981CF0101969983888310838E8153
:104A50009F8101969F838E83E3CFE885F985812F1F
:104A60000995892BA1F3DACFFA01AA27283051F151
:104A7000203181F1E8946F936E7F6E5F7F4F8F4F8F
:104A80009F4FAF4FB1E03ED0B4E03CD0670F781FEE
:104A9000891F9A1FA11D680F791F8A1F911DA11DD3
:104AA0006A0F711D811D911DA11D20D009F468940C
:104AB0003F912AE0269F11243019305D3193DEF6B4
:104AC000CF010895462F4770405D4193B3E00FD06A
:104AD000C9F7F6CF462F4F70405D4A3318F0495D55
:104AE00031FD4052419302D0A9F7EACFB4E0A69538
:104AF0009795879577956795BA95C9F7009761055A
:104B0000710508959B01AC010A2E069457954795AF
:104B100037952795BA95C9F7620F731F841F951FA4
:104B2000A01D08950E94D425A59F900DB49F900DBF
:104B3000A49F800D911D112408952F923F924F92B2
:104B40005F926F927F928F929F92AF92BF92CF921D
:104B5000DF92EF92FF920F931F93CF93DF93CDB726
:104B6000DEB7CA1BDB0B0FB6F894DEBF0FBECDBF9E
:104B700009942A88398848885F846E847D848C846F
:104B80009B84AA84B984C884DF80EE80FD800C8178
:104B90001B81AA81B981CE0FD11D0FB6F894DEBF5B
:104BA0000FBECDBFED010895A29FB001B39FC0011C
:104BB000A39F700D811D1124911DB29F700D811D49
:0A4BC0001124911D0895F894FFCF11
:104BCA00496E66696E697479004D61746820457230
:104BDA00726F722E004D617468206572726F722E48
:104BEA00004D617468204572726F723A006C6F678B
:104BFA0028006C6E28007371727428006173696EE4
:104C0A00280061636F7328006174616E2800655E15
:104C1A00280031305E006162732800636272742872
:104C2A00006661637428006173696E0061636F7363
:104C3A00006174616E00795E7800434C5200650031
:104C4A006162730063627274005B0064656700727C
:104C5A006164006D6F640066616374005D004845BD
:104C6A0058004445430042494E004F4354004D43C7
:104C7A00004253006C6F67006C6E00655E00E2884C
:104C8A009A00CF800078C2B20078C2B300312F7880
:104C9A0000290045585000414E53004D2B004D2D20
:044CAA00004D520067
:00000001FF
