:100000000C94DF010C94FC010C94FC010C94FC0199
:100010000C94FC010C94FC010C94FC010C94FC016C
:100020000C94FC010C94FC010C94FC010C94FC015C
:100030000C94FC010C94FC010C94FC010C94FC014C
:100040000C94FC010C94FC010C94FC010C94FC013C
:100050000C94FC010C94FC010C94FC010C94FC012C
:100060000C94FC010C94FC01036EDB363D9A9999CB
:10007000993DABAAAA2A3E000000803F084AD73B20
:100080003BCE016E84BCBFFDC12F3D6C74319ABD67
:1000900056833DDA3D00C77F11BED9E4BB4C3E918B
:1000A0006BAAAABE000000803F07634236B79BD808
:1000B000A71A39685618AEBAAB558C1D3CB7CC5749
:1000C00063BD6DEDFD753EF6177231BF0000008017
:1000D0003F072C7AA5BA6CC590DA3B9365FC8BBCC4
:1000E00053F810FD3C5692834DBD879D3AB63DCBEB
:1000F000C9BF5BBE73DA0FC93F05A84CCDB2D44E61
:10010000B93836A9020C50B9918688083CA6AAAA2B
:100110002ABE000000803F08000000BE9224491261
:100120003EABAAAA2ABECDCCCC4C3E00000080BE7D
:10013000ABAAAAAA3E00000000BF000000803F005A
:1001400000000000084178D3BB4387D1133D190E4E
:100150003CC3BD4282AD2B3E68EC8276BED98FE1B6
:10016000A93E4C80EFFFBE01C4FF7F3F00000000AE
:10017000000664EC1B3C04BC163E3BE5B93CC93CA4
:1001800037C29E5A3D660498083EEA69AAAA3E0014
:100190000000803F4E414E494E495459494E46CD8C
:1001A000CCCC3D0AD7233C17B7D13877CC2B32952E
:1001B00095E6241FB14F0A000020410000C842000C
:1001C000401C4620BCBE4CCA1B0E5AAEC59D7400D6
:1001D000407A10F35A00A0724E18090010A5D4E816
:1001E0000000E87648170000E40B54020000CA9AA9
:1001F0003B000000E1F505000080969800000040FB
:10020000420F000000A0860100000010270000003F
:1002100000E803000000006400000000000A000085
:100220000000000100000000002C76D888DC674F39
:100230000823DFC1DFAE59E1B1B796E5E3E453C669
:100240003AE651997696E8E6C28426EB898C9B6261
:10025000ED407C6FFCEFBC9C9F40F2BAA56FA5F40B
:1002600090055A2AF75C936B6CF9676DC11BFCE033
:10027000E40D47FEF520E6B500D0ED902E03009486
:100280003577050080841E080000204E0A0000001B
:10029000C80C333333330F986E12831141EF8D2125
:1002A00014893BE65516CFFEE6DB18D1844B381B8C
:1002B000F77C1D901DA4BBE424203284725E228151
:1002C00000C9F124ECA1E53D274D52004D2D004D14
:1002D0002B00414E5300455850002900312F780023
:1002E00078C2B30078C2B200CF80002800E2889ABA
:1002F00000655E006C6E006C6F67004253005E002C
:1003000074616E00636F730073696E004D43004F3C
:1003100043540042494E0044454300484558005D5F
:100320000066616374006D6F6400726164006465EF
:1003300067005B0063627274006162730065003184
:10034000305E00434C5200795E78006174616E004B
:1003500061636F73006173696E00F601FB01000257
:10036000050209020D021102130217021C021E02ED
:10037000220226022A022F023102350239023D02F0
:100380004102F701FC0101020F02440247024B0245
:100390004E0251029701550258025C02600264024B
:1003A00066026A026E02710274023738392B4434D5
:1003B00035362D533132332A41302E3D2F4311240F
:1003C0001FBECFEFD8E0DEBFCDBF12E0A0E0B1E0AE
:1003D000E8E1FBE302C005900D92A837B107D9F719
:1003E00022E0A8E7B2E001C01D92A639B207E1F70A
:1003F0000E9442110C948A1D0C9400004AEA53E0BA
:1004000030E020E02115310509F439C0409A21304F
:10041000310509F439C0419A2230310509F438C058
:10042000429A439885E38A95F1F70000189925C010
:10043000FA018491199903C0FA01319684911A99AD
:1004400003C0FA01329684914E9903C0FA013396A3
:1004500084914F9903C0FA0134968491811108C0A8
:100460002F5F3F4F4B5F5F4F2430310509F0CACFFC
:10047000409A419A429A439A089580E0DBCF40988F
:10048000419A429A439ACECF4198429A439ACACF10
:100490004298439AC7CFCF92DF92EF92FF920F9389
:1004A0001F93CF93DF93823091054CF18C010F5F46
:1004B0001F4FC12CD12C90E8E92E9FE3F92EC2E00A
:1004C000D0E0BE010D2E000C880B990B0E945D152B
:1004D0009B01AC01C701B6010E94B3176B017C01FF
:1004E00021960C171D0769F7C701B601DF91CF915F
:1004F0001F910F91FF90EF90DF90CF900895C12C46
:10050000D12C80E8E82E8FE3F82EEECF7F928F92E9
:100510009F92AF92BF92CF92DF92EF92FF920F9392
:100520001F93CF93DF938C01DC01ED91FC91EF01E0
:10053000D080D11009C0B2C02196F801D183C08308
:10054000D880DD2009F4A9C08D2D0D2C000C990B4D
:100550000E9434197C01892B79F7FDE2DF12FAC081
:10056000FE013196D801ED93FC93EE24E394F12C37
:10057000D08080ED8D0D8A3008F0F0C0EF0121961B
:1005800060E070E0CB0120E030E040E251E40E9406
:10059000B3174B015C016D2DDD0C770B60537109B6
:1005A000072E000C880B990B0E945D15A501940184
:1005B0000E942313FE01D801CD93DC93D99020ED46
:1005C0002D0D2A3000F3BEE2DB12BEC05F012FEF1B
:1005D000A21AB20AD801AD92BC92718020ED270D0B
:1005E0002A30D8F56F01B2E0CB0ED11CEF01C095D7
:1005F000D09520E030E040E251E40E94B3174B0177
:100600005C01672D770C770B60537109072E000C86
:10061000880B990B0E945D15A50194010E9423137C
:100620004E018C0C9D1C5601F801D182C082D6016E
:100630007C90BFEFCB1ADB0A20ED270D2A30C8F2E1
:100640008114910451F020E030E040E251E40E9436
:10065000AF14E1E08E1A9108B1F7EF2821F190581C
:10066000272D2F7D253419F5F5013196D801ED930D
:10067000FC93D50111962C912D3239F150E040E0D8
:100680002B3261F5F5013296D801ED93FC93D5013B
:1006900012962C9150E040E021C0FE015F01708075
:1006A00060E070E0CB01272D2F7D2534E9F2DF914A
:1006B000CF911F910F91FF90EF90DF90CF90BF905F
:1006C000AF909F908F907F9008953196D801ED93D1
:1006D000FC93D50112962C9141E050E030ED320FA1
:1006E0003A3028F73196D0E0C0E0DE01AA0FBB1FF8
:1006F000AA0FBB1FCA0FDB1FCC0FDD1F022E000C81
:10070000330B20533109C20FD31FD801ED93FC9353
:10071000219130ED320F3A3040F3452B91F0209784
:1007200031F220E030E040E251E40E94AF14219722
:10073000C1F7BDCF20E030E040E251E40E94B317A2
:1007400021972097B9F7B3CFD801AD90BC90F501B0
:10075000708083CFD801ED91FC910ACF60E070E00A
:10076000CB0131CF8F929F92AF92BF920F930B32FA
:1007700009F445C074F00F32E1F00E35C9F10D32C5
:1007800021F1B901CA010F91BF90AF909F908F9056
:100790000895053231F10A32A1F70E94B3179B0187
:1007A000AC01B901CA010F91BF90AF909F908F909B
:1007B00008950E94AF149B01AC01B901CA010F91C9
:1007C000BF90AF909F908F9008950E9422139B013D
:1007D000AC01B901CA010F91BF90AF909F908F906B
:1007E00008950F91BF90AF909F908F900C94A31598
:1007F0000F91BF90AF909F908F900C9420180E9403
:1008000023139B01AC01B901CA010F91BF90AF90B6
:100810009F908F9008952C9887FD40C05A9886FF2E
:100820002CC05B9A85FF2CC05C9A84FF2CC05D9A1B
:100830002B9A95E09A95F1F700002B98EFE8F1E0FC
:100840003197F1F700C0000083FF26C05A9A82FF5B
:1008500021C05B9A81FF19C05C9A80FD19C05D9828
:100860002B9AF5E0FA95F1F700002B988FE39FE1C2
:100870000197F1F700C0000008955B9885FDD4CF83
:100880005C9884FDD4CF5D98D3CF5C9880FFE7CF90
:100890005D9AE6CF5B98DECF5A98D9CF5A9ABFCFF0
:1008A000249A239A559A549A539A529A2FEF80E792
:1008B00092E0215080409040E1F700C000002C9869
:1008C0005D985C985B9A5A9A2B9A25E02A95F1F7E5
:1008D00000002B988FE19EE40197F1F700C0000023
:1008E0002B9A95E09A95F1F700002B988FE891E00C
:1008F0000197F1F700C000002B9A95E09A95F1F767
:1009000000002B988FE891E00197F1F700C00000FC
:100910005A982B9A95E09A95F1F700002B988FE85A
:1009200091E00197F1F700C0000088E20E940B04FB
:100930008CE00E940B0481E00E940B0486E00C9482
:100940000B042C9A87FD40C05A9886FF2CC05B9AF6
:1009500085FF2CC05C9A84FF2CC05D9A2B9A95E091
:100960009A95F1F700002B98EFE8F1E03197F1F755
:1009700000C0000083FF26C05A9A82FF21C05B9A04
:1009800081FF19C05C9A80FD19C05D982B9AF5E033
:10099000FA95F1F700002B988FE99FE00197F1F7A6
:1009A00000C0000008955B9885FDD4CF5C9884FD5D
:1009B000D4CF5D98D3CF5C9880FFE7CF5D9AE6CF28
:1009C0005B98DECF5A98D9CF5A9ABFCFAF92BF92D9
:1009D000CF92DF92EF92FF920F931F93CF93DF930B
:1009E00000D0CDB7DEB78C019A83898344E050E014
:1009F00061E071E00E945819892B09F4EAC044E0D3
:100A000050E067E071E0C8010E945819892B09F491
:100A1000B5C044E050E06DE071E0C8010E94581993
:100A2000892B09F475C145E050E060E071E0C80130
:100A30000E945819892B09F494C145E050E066E002
:100A400071E0C8010E945819892B09F42EC145E0B4
:100A500050E06CE071E0C8010E945819892B09F43C
:100A6000C2C145E050E062E171E0C8010E9458193E
:100A7000892B09F4D7C144E050E068E171E0C80176
:100A80000E945819892B09F48BC143E050E06DE1B5
:100A900071E0C8010E945819892B09F4E8C143E0AC
:100AA00050E061E271E0C8010E945819892B09F4F5
:100AB000FFC145E050E065E271E0C8010E945819AD
:100AC000892B09F418C244E050E06BE271E0C801E0
:100AD0000E945819892B09F42DC245E050E060E3CB
:100AE00071E0C8010E945819892B09F042C27801AF
:100AF00085E0E80EF11CFA82E982C7010E9416190E
:100B00005C01F8018581882371F0893209F475C28E
:100B1000369603C0993209F470C27F019191911108
:100B2000F9CFFA82E982C12CD12C80E8E82E8FE33C
:100B3000F82EF2E0AF16B1040CF475C08FEFA81ACE
:100B4000B80AC12CD12C90E8E92E9FE3F92E02E0DF
:100B500010E0B801012E000C880B990B0E945D1566
:100B60009B01AC01C701B6010E94B3176B017C0168
:100B70000F5F1F4F0A151B0561F755C0C80104968A
:100B80009A8389830E941219A981BA812C91222308
:100B900079F0293209F4B4C0FD01319603C029323D
:100BA00009F4AEC0DF01FA83E98321912111F7CF67
:100BB0002BED3FE049E450E40E94B31720E030E021
:100BC00044E353E40E94AF140E94AA146B017C0119
:100BD0002AC0C80104969A8389830E941219A981A8
:100BE000BA812C91222379F0293209F48DC0FD01BC
:100BF000319603C0293209F487C0DF01FA83E98303
:100C000021912111F7CF2BED3FE049E450E40E9400
:100C1000B31720E030E044E353E40E94AF140E9495
:100C200070186B017C01C0927802D0927902E09238
:100C30007A02F0927B0204E812E024E048E0C70167
:100C4000B6010E94F418F80101900020E9F73297EC
:100C50008081803369F40E171F0728F00CC082E0F2
:100C6000E438F80741F03197118280818033B9F37D
:100C70008E3209F4108280918402882349F005E8BD
:100C800012E00E94A104F80181918F018111F9CF36
:100C90000F900F90DF91CF911F910F91FF90EF90E8
:100CA000DF90CF90BF90AF900895C80105969A83CA
:100CB00089830E941219A981BA812C91222379F08B
:100CC000293209F4ABC0FD01319603C0293209F481
:100CD000A5C0DF01FA83E98321912111F7CF0E949A
:100CE000111320E030E044E353E40E94B3172BEDEE
:100CF0003FE049E450E40E94AF146B017C0193CFC4
:100D00001196BA83A98354CF1196BA83A9837BCF56
:100D1000C80104969A8389830E941219A981BA8115
:100D20002C91222369F02932B9F1FD01319602C0DC
:100D3000293291F1DF01FA83E98321912111F8CF62
:100D40002BED3FE049E450E40E94B31720E030E08F
:100D500044E353E40E94AF140E94C2186B017C016B
:100D600062CFC80105969A8389830E941219A981CE
:100D7000BA812C91222369F0293289F1FD01319643
:100D800002C0293261F1DF01FA83E9832191211147
:100D9000F8CF0E948F13A5CF1196BA83A983D0CF25
:100DA000C80104969A8389830E941219A981BA8185
:100DB0002C91222379F0293209F476C0FD01319675
:100DC00003C0293209F470C0DF01FA83E98321915D
:100DD0002111F7CF0E9427176B017C0124CF1196B8
:100DE000BA83A983D6CFC80105969A8389830E94C6
:100DF0001219A981BA812C91222369F0293279F143
:100E0000FD01319602C0293251F1DF01FA83E983F5
:100E100021912111F8CF0E94AA1363CF1196BA83B2
:100E2000A9835DCFC80105969A8389830E94121910
:100E3000A981BA812C91222369F02932A1F0FD0108
:100E4000319602C0293279F0DF01FA83E9832191DA
:100E50002111F8CF0E947E186B017C01E4CE11961F
:100E6000BA83A983D8CF1196BA83A983F3CFC801D7
:100E700003969A8389830E941219A981BA812C91C1
:100E8000222369F0293299F1FD01319602C02932FD
:100E900071F1DF01FA83E98321912111F8CF0E94DA
:100EA00037176B017C01BFCE1196BA83A98392CF0D
:100EB000C80103969A8389830E941219A981BA8175
:100EC0002C91222379F0293209F48FC0FD0131964B
:100ED00003C0293209F489C0DF01FA83E983219133
:100EE0002111F7CF0E9429156B017C019CCE119630
:100EF000BA83A983D4CFC80105969A8389830E94B7
:100F00001219A981BA812C91222379F0293209F48E
:100F100070C0FD01319603C0293209F46AC0DF01B7
:100F2000FA83E98321912111F7CF0E94E5136B0128
:100F30007C0179CEC80104969A8389830E94121994
:100F4000A981BA812C91222379F0293209F45BC05E
:100F5000FD01319603C0293209F455C0DF01FA833F
:100F6000E98321912111F7CF6B017C01E894F7F817
:100F70005ACE44E050E066E371E0C8010E9458197F
:100F8000892B09F476C044E050E06BE371E0C801BE
:100F90000E945819892BD9F5C80104969A83898330
:100FA0000E941219E981FA812081222379F02932E5
:100FB00009F47CC0DF01119603C0293209F476C020
:100FC000FD01BA83A9832D912111F7CF2BED3FE0CD
:100FD00049E450E40E94B31720E030E044E353E4D6
:100FE0000E94AF146B017C011ECE1196BA83A983B7
:100FF00079CF1196BA83A98398CFFFEFEF1AFF0A32
:10100000FA82E98290CD1196BA83A983ADCFCE0141
:1010100001960E9486026B017C01E981FA81808140
:10102000882309F400CECF0101969A838983B0808A
:101030008181882391F08F010E5F1F4F07C01A83B3
:101040000983F80181918F01882339F0082E000C63
:10105000990B0E943419892B91F7CE0101960E94B9
:1010600086029B01AC010B2DC701B6010E94B203A1
:10107000D2CFC80104969A8389830E941219E9810C
:10108000FA812081222309F42CCE293259F0DF0184
:101090001196FD01BA83A9832D91222309F421CE53
:1010A0002932B9F73196FA83E9831BCE3196FA8358
:1010B000E9838CCFCF92DF92EF92FF920F931F9331
:1010C000CF93DF93FC01A0810A2E000CBB0BF12C07
:1010D000E12C10E000E030E020E0E701C655DC4FF5
:1010E000FE01E20FF31FE491EA171B06D1F02F5F18
:1010F0003F4F25303105A1F70F5F1F4FE5E0EE0EA2
:10110000F11C0430110539F710928302109282020B
:10111000DF91CF911F910F91FF90EF90DF90CF90D3
:101120000895EA017B016C01F801EE0FFF1FEE0F3D
:10113000FF1FE00FF11FE20FF31FEE0FFF1FE65A34
:10114000FC4F0591149165E573E0C8010E943D19BB
:10115000892B09F42BC160E573E0C8010E943D1999
:10116000892B09F4CFC06BE473E0C8010E943D19DC
:10117000892B09F4F2C067E473E0C8010E943D19AD
:10118000892B09F43FC163E473E0C8010E943D1953
:10119000892B09F468C16FE373E0C8010E943D190F
:1011A000892B09F433C16DE373E0C8010E943D1936
:1011B000892B09F473C169E373E0C8010E943D19EA
:1011C000892B09F495C164E373E0C8010E943D19BD
:1011D000892B09F4BBC162E373E0C8010E943D1989
:1011E000892B09F4AFC16EE273E0C8010E943D197A
:1011F000892B09F4D5C16AE273E0C8010E943D1948
:10120000892B09F4F7C166E273E0C8010E943D1919
:10121000892B09F419C261E273E0C8010E943D19EB
:10122000892B09F415C26FE173E0C8010E943D19D2
:10123000892B09F437C26BE173E0C8010E943D19A4
:10124000892B09F487C067E173E0C8010E943D194A
:10125000892B09F47FC063E173E0C8010E943D1946
:10126000892B09F477C06FE073E0C8010E943D1933
:10127000892B09F46FC06CE073E0C8010E943D192E
:10128000892B09F041CF10927C0210927D021092BE
:101290007E0210927F0281E00E940B048FE39FE1A7
:1012A0000197F1F700C000008DE4C0E4D1E0219681
:1012B0000E94A10488818111FACF9FEFE3EDF0E352
:1012C0009150E040F040E1F700C0000081E00E9452
:1012D0000B048FE39FE10197F1F700C0000085E464
:1012E000CFE4D1E021960E94A10488818111FACF38
:1012F00080EC0E940B04E7018991882359F10E9438
:10130000A104FACF86E0E6E0F1E0A4E8B2E00190C3
:101310000D928A95E1F764E872E0C7010E944619D0
:1013200084E892E0FC0101900020E9F7CF018558A4
:10133000924028813981820F931F998388838091FD
:101340008402882339F0C5E8D2E00E94A104899183
:101350008111FBCFF6011082D7CE86E0ECE0F1E000
:10136000A4E8B2E001900D928A95E1F764E872E09A
:10137000C7010E94461984E892E0FC010190002018
:10138000E9F7CF018558924028813981820F931F58
:1013900099838883809184028823E1F2C5E8D2E0B2
:1013A0000E94A10489918111FBCFD4CF86E0E0E0B7
:1013B000F1E0A4E8B2E001900D928A95E1F764E8CB
:1013C00072E0C7010E94461984E892E0FC01019096
:1013D0000020E9F7CF018558924028813981820F9A
:1013E000931F9983888380918402882309F4B2CF64
:1013F000C5E8D2E00E94A10489918111FBCFF601DA
:10140000108282CE8EE5F60180837ECE81E390E36A
:1014100090938502809384028EE590E090938702FA
:101420008093860264E872E0C7010E94461984E84E
:1014300092E0FC0101900020E9F7CF01855892402D
:1014400028813981820F931F998388838091840238
:10145000882309F47FCFC5E8D2E00E94A1048991D6
:101460008111FBCF77CF81E00E940B048FE39FE1D6
:101470000197F1F700C0000000E511E085E40E944B
:10148000A104F80181918F018111F9CF80EC0E94B4
:101490000B0419821882F70110825CCF88E0E1E624
:1014A000F1E0A4E8B2E001900D928A95E1F764E8DA
:1014B00072E0C7010E94461984E892E0FC010190A5
:1014C0000020E9F7CF018558924028813981820FA9
:1014D000931F9983888380918402882309F43ACFEB
:1014E000C5E8D2E00E94A10489918111FBCF32CFDF
:1014F00085E0EBE2F1E0A4E8B2E001900D928A957C
:10150000E1F764E872E0C7010E94461984E892E0BE
:10151000FC0101900020E9F7CF0185589240288115
:101520003981820F931F9983888380918402882355
:1015300009F410CFC5E8D2E00E94A104899181117D
:10154000FBCF08CF8BE5F6018083DECD86E0E5E2B8
:10155000F1E0A4E8B2E001900D928A95E1F764E829
:1015600072E0C7010E94461984E892E0FC010190F4
:101570000020E9F7CF018558924028813981820FF8
:10158000931F9983888380918402882309F4E2CE93
:10159000C5E8D2E00E94A10489918111FBCFDACE87
:1015A00085E0E6E3F1E0A4E8B2E001900D928A95CF
:1015B000E1F764E872E0C7010E94461984E892E00E
:1015C000FC0101900020E9F7CF0185589240288165
:1015D0003981820F931F99838883809184028823A5
:1015E00009F4B8CEC5E8D2E00E94A1048991811126
:1015F000FBCFB0CE85E0EBE3F1E0A4E8B2E00190F0
:101600000D928A95E1F764E872E0C7010E944619DD
:1016100084E892E0FC0101900020E9F7CF018558B1
:10162000924028813981820F931F9983888380910A
:101630008402882309F48ECEC5E8D2E00E94A1047A
:1016400089918111FBCF86CE85E2F60180835CCD46
:1016500086E0E0E3F1E0A4E8B2E001900D928A9523
:10166000E1F764E872E0C7010E94461984E892E05D
:10167000FC0101900020E9F7CF01855892402881B4
:101680003981820F931F99838883809184028823F4
:1016900009F460CEC5E8D2E00E94A10489918111CD
:1016A000FBCF58CE8DE5F60180832ECDAF92BF9251
:1016B000CF92DF92EF92FF920F931F93CF93DF931E
:1016C000CDB7DEB7E2970FB6F894DEBF0FBECDBF41
:1016D0005B016A01FC01A0810A2E000CBB0B50E0EB
:1016E00040E010E000E030E020E0BA0166557C4FB9
:1016F000FB01E20FF31FE491EA171B0609F12F5FCC
:101700003F4F25303105A1F70F5F1F4F4B5F5F4FF4
:101710000430110541F71092810210928002E29686
:101720000FB6F894DEBF0FBECDBFDF91CF911F91F2
:101730000F91FF90EF90DF90CF90BF90AF90089502
:101740007C01F801EE0FFF1FEE0FFF1FE00FF11FEE
:10175000E20FF31FEE0FFF1FEE57FC4F05911491A0
:1017600068E073E0C8010E943D19892B09F412C199
:1017700064E073E0C8010E943D19892B09F4B0C0F0
:1017800060E073E0C8010E943D19892B09F4D6C0BE
:101790006EEF72E0C8010E943D19892B09F429C13E
:1017A0006BEF72E0C8010E943D19892B09F425C135
:1017B00067EF72E0C8010E943D19892B09F421C12D
:1017C00064EF72E0C8010E943D19892B09F446C1FB
:1017D00061EF72E0C8010E943D19892B09F46EC1C6
:1017E0006DEE72E0C8010E943D19892B09F496C183
:1017F0006BEE72E0C8010E943D19892B09F4BBC150
:1018000068EE72E0C8010E943D19892B09F4B7C146
:1018100064EE72E0C8010E943D19892B09F408C2E8
:1018200060EE72E0C8010E943D19892B09F4D4C111
:101830006CED72E0C8010E943D19892B09F442C386
:101840006AED72E0C8010E943D19892B09F436C384
:1018500066ED72E0C8010E943D19892B09F409C3A5
:1018600062ED72E0C8010E943D19892B09F4E3C2C0
:101870006FEC72E0C8010E943D19892B09F480C207
:101880006CEC72E0C8010E943D19892B09F41DC25D
:1018900069EC72E0C8010E943D19892B09F03BCF29
:1018A00060917C0270917D0280917E0290917F0216
:1018B00004E812E022E048E00E94F418F8010190E8
:1018C0000020E9F732978081803309F0DDC122E002
:1018D000E438F20709F008F4DAC131971182F3CF46
:1018E00085E0E7E0F1E0A4E8B2E001900D928A958E
:1018F000E1F764E872E0C5010E94461984E892E0CD
:10190000FC0101900020E9F7CF0185589240F601D3
:1019100020813181820F931F918380838091840283
:10192000882349F005E812E00E94A104F8018191A2
:101930008F018111F9CFF7011082EDCE85E0EDE046
:10194000F1E0A4E8B2E001900D928A95E1F764E835
:1019500072E0C5010E94461984E892E0FC01019002
:101960000020E9F7CF0185589240F60120813181AE
:10197000820F931F91838083809184028823D9F200
:1019800005E812E00E94A104F80181918F01811104
:10199000F9CFD1CF85E0E1E0F1E0A4E8B2E0019039
:1019A0000D928A95E1F764E872E0C5010E9446193C
:1019B00084E892E0FC0101900020E9F7CF0185580E
:1019C0009240F60120813181820F931F91838083A1
:1019D00080918402882309F4AECF05E812E00E94CA
:1019E000A104F80181918F018111F9CFF7011082D3
:1019F00092CE8EE5F70180838ECE84E4F70180835A
:101A00008ACE85E0E8E1F1E0A4E8B2E001900D9231
:101A10008A95E1F764E872E0C5010E94461984E8FE
:101A200092E0FC0101900020E9F7CF018558924037
:101A3000F60120813181820F931F918380838091F1
:101A40008402882309F477CF05E812E00E94A104FC
:101A5000F80181918F018111F9CF6DCF8CE69EE65F
:101A6000909385028093840288E290E090938702AD
:101A70008093860264E872E0C5010E94461984E8FA
:101A800092E0FC0101900020E9F7CF0185589240D7
:101A9000F60120813181820F931F91838083809191
:101AA0008402882309F447CF05E812E00E94A104CC
:101AB000F80181918F018111F9CF3DCF85E69EE537
:101AC000909385028093840288E290E0909387024D
:101AD0008093860264E872E0C5010E94461984E89A
:101AE00092E0FC0101900020E9F7CF018558924077
:101AF000F60120813181820F931F91838083809131
:101B00008402882309F417CF05E812E00E94A1049B
:101B1000F80181918F018111F9CF0DCF86E0E2E1CB
:101B2000F1E0A4E8B2E001900D928A95E1F764E853
:101B300072E0C5010E94461984E892E0FC01019020
:101B40000020E9F7CF0185589240F60120813181CC
:101B5000820F931F9183808380918402882309F4EC
:101B6000EACE05E812E00E94A104F80181918F01FC
:101B70008111F9CFE0CE88E2F7018083CCCD88E0F7
:101B8000EDE8F1E0A4E8B2E001900D928A95E1F76A
:101B900064E872E0C5010E94461984E892E0FC0105
:101BA00001900020E9F7CF0185589240F60120818D
:101BB0003181820F931F91838083809184028823D7
:101BC00009F4B9CE05E812E00E94A104F801819160
:101BD0008F018111F9CFAFCE8EE593E3909385020B
:101BE000809384021092860264E872E0C5010E942C
:101BF000461984E892E0FC0101900020E9F7CF014A
:101C000085589240F60120813181820F931F918384
:101C1000808380918402882309F48DCE05E812E048
:101C20000E94A104F80181918F018111F9CF83CE27
:101C30008EE592E39093850280938402109286024F
:101C400064E872E0C5010E94461984E892E0FC0154
:101C500001900020E9F7CF0185589240F6012081DC
:101C60003181820F931F9183808380918402882326
:101C700009F461CE05E812E00E94A104F801819107
:101C80008F018111F9CF57CE8E3209F4108264E8AA
:101C900072E0C5010E944619F80101900020E9F7A1
:101CA000CF0185589240F60120813181820F931F28
:101CB0009183808304E812E0F80181918F018823E9
:101CC00009F439CE0E94A104F7CFB501CE010196E7
:101CD0000E945119CE0101960E9412199B01AC017C
:101CE00060917C0270917D0280917E0290917F02D2
:101CF0000E94221360937C0270937D0280937E0287
:101D000090937F0281E00E940B048FE39FE1019793
:101D1000F1F700C0000083E509E711E00F5F1F4FF6
:101D20000E94A104F80180818111F8CFFFEF23ED1B
:101D300080E3F15020408040E1F700C0000081E0E6
:101D40000E940B04EFE3FFE13197F1F700C00000C0
:101D500085E40FE411E00F5F1F4F0E94A104F8011A
:101D600080818111F8CF80EC0E940B048501F8017D
:101D700081918F01882309F4DECD0E94A104F7CF61
:101D8000B501CE0101960E945119CE0101960E9423
:101D900012199B01AC0160917C0270917D028091CF
:101DA0007E0290917F020E94231360937C027093C5
:101DB0007D0280937E0290937F0281E00E940B045B
:101DC0008FE39FE10197F1F700C0000081E409E68D
:101DD00011E00F5F1F4F0E94A104F8018081811163
:101DE000F8CFFFEF23ED80E3F15020408040E1F792
:101DF00000C0000081E00E940B04EFE3FFE1319797
:101E0000F1F700C0000085E40FE411E00F5F1F4F01
:101E10000E94A104F80180818111F8CF80EC0E941A
:101E20000B048501F80181918F01882309F483CD8A
:101E30000E94A104F7CF609178027091790280919D
:101E40007A0290917B0204E812E022E048E00E94CE
:101E5000F418F80101900020E9F73297808180336F
:101E600061F422E0E438F20759F050F03197118222
:101E7000F5CF85E4F70180834ECC8E3209F41082D1
:101E800064E872E0C5010E944619F8010190002043
:101E9000E9F79F0125583240F60180819181820F38
:101EA000931F9183808304E812E0F80181918F01F0
:101EB000882309F440CD0E94A104F7CF89E2F701FD
:101EC000808329CC84E0E5E9F1E0A4E8B2E0019068
:101ED0000D928A95E1F764E872E0C5010E94461907
:101EE00084E892E0FC0101900020E9F7CF018558D9
:101EF0009240F60120813181820F931F918380836C
:101F000080918402882309F416CD05E812E00E942E
:101F1000A104F80181918F018111F9CF0CCD0F93AC
:101F20001F93CF93DF932091820230918302232B62
:101F300009F060C02091800230918102232B11F5BD
:101F4000DC01EC91E356E23108F04FC08A019B01BD
:101F5000EC010E2E000CFF0BE055F04F0C94EE1828
:101F6000E810F50FB910F50FF50FF50FF50FF50F98
:101F7000F50F8B10F50FF50FF50F5D10F50F2E1007
:101F8000C80F0010DF91CF911F910F910C94560B49
:101F900085E0E1E0F1E0A4E8B2E001900D928A95DD
:101FA000E1F764E872E0C9010E94461984E892E012
:101FB000FC0101900020E9F7CF0185589240D8013B
:101FC0002D913C911197820F931F8D939C9380913B
:101FD0008402882349F005E812E00E94A104F80178
:101FE00081918F018111F9CF1882DF91CF911F91DB
:101FF0000F910895DF91CF911F910F910C945A0882
:1020000085E0EDE0F1E0A4E8B2E001900D928A9560
:10201000E1F764E872E0C9010E94461984E892E0A1
:10202000FC0101900020E9F7CF0185589240D801CA
:102030002D913C911197820F931F8D939C938091CA
:102040008402882389F205E812E00E94A104F801C5
:1020500081918F018111F9CF1882C7CF86E0E2E12B
:10206000F1E0A4E8B2E001900D928A95E1F764E80E
:1020700072E0C9010E94461984E892E0FC010190D7
:102080000020E9F7CF0185589240D8012D913C916D
:102090001197820F931F8D939C93809184028823C4
:1020A00009F4A2CF05E812E00E94A104F801819191
:1020B0008F018111F9CF188298CF88E0EDE8F1E027
:1020C000A4E8B2E001900D928A95E1F764E872E02D
:1020D000C9010E94461984E892E0DC010D900020BD
:1020E000E9F7CD0185589240F80120813181820FB6
:1020F000931F9183808380918402882309F474CF95
:1021000005E812E00E94A104D8018D918D01811192
:10211000F9CF18826ACF85E0E8E1F1E0A4E8B2E007
:1021200001900D928A95E1F764E872E0C9010E947E
:10213000461984E892E0DC010D900020E9F7CD011A
:1021400085589240F80120813181820F931F91833D
:10215000808380918402882309F446CF05E812E049
:102160000E94A104D8018D918D018111F9CF1882AF
:102170003CCF88E0E1E6F1E0A4E8B2E001900D9206
:102180008A95E1F764E872E0C9010E94461984E883
:1021900092E0FC0101900020E9F7CF0185589240C0
:1021A000D8012D913C911197820F931F8D939C9391
:1021B00080918402882309F417CF05E812E00E9479
:1021C000A104F80181918F018111F9CF18820DCFFF
:1021D00085E0E7E0F1E0A4E8B2E001900D928A9595
:1021E000E1F764E872E0C9010E94461984E892E0D0
:1021F000DC010D900020E9F7CD0185589240F801EF
:1022000020813181820F931F91838083809184028A
:10221000882309F4E9CE05E812E00E94A104D80160
:102220008D918D018111F9CF1882DFCECF93DF938D
:10223000EC018881882331F021960E94A1048991C4
:102240008111FBCFDF91CF91089581E00E940B04B3
:102250008FE39FE10197F1F700C000000895389ADD
:10226000399A3A9A3B9A409A419A429A439A2098CC
:102270002198229856985798289A299A2A9A5E9ACD
:102280005F9A0895CF93DF93CDB7DEB7E5970FB68A
:10229000F894DEBF0FBECDBF1A821982FE013396BD
:1022A00080E3DF011D928A95E9F71CAA1BAA0E9410
:1022B00050040E942F1104ED11E087E50E94A10453
:1022C000F80181918F018111F9CFFFEF27EA41E6F3
:1022D000F15020404040E1F700C0000081E00E9442
:1022E0000B048FE39FE10197F1F700C0000000E5C8
:1022F00011E085E40E94A104D8018D918D01811126
:10230000F9CF80EC0E940B040E94FE018DAB882364
:10231000D9F3833511F1813409F4A0C0833409F471
:10232000F6C02BA93CA9843409F470C08D3309F49C
:1023300033C1213331050CF46DC0FFEF25EA4EE0C7
:10234000F15020404040E1F700C000000E94FE0133
:102350008DAB8823C9F28335F1F681E090E02091BE
:10236000820230918302232B11F090E080E0909361
:1023700083028093820281E00E940B04EFE3FFE17D
:102380003197F1F700C000008091820290918302A2
:1023900007EA11E0892B11F009E911E0D8018D91CC
:1023A0008D010E94A104D8018D918D018111F9CF79
:1023B000BFEFE3EDF0E3B150E040F040E1F700C0E3
:1023C000000081E00E940B048FE39FE10197F1F789
:1023D00000C0000000E511E085E40E94A104D801DE
:1023E0008D918D018111F9CF80EC0E940B048981C0
:1023F000882309F4A2CF8E010E5F1F4F0E94A10413
:10240000F80181918F018111F9CF97CF1216130630
:102410000CF497C0AE014D5C5F4FBE016F5F7F4F04
:10242000CE01C5960E948F0F8DA9882309F485CF10
:102430004BA95CA99A012F5F3F4F3CAB2BABE1E06E
:10244000F0E0EC0FFD1F4E0F5F1FDA018C932E0F93
:102450003F1FF90110820E94A1046FCF81E090E03C
:102460002091800230918102232B11F090E080E0D6
:10247000909381028093800281E00E940B048FE39D
:102480009FE10197F1F700C00000809180029091D8
:10249000810204EC11E0892B11F006EB11E0F80148
:1024A00081918F010E94A104D8018D918D0181112C
:1024B000F9CFBFEFE3EDF0E3B150E040F040E1F7DA
:1024C00000C0000081E00E940B048FE39FE10197B0
:1024D000F1F700C0000000E511E085E40E94A104CE
:1024E000D8018D918D018111F9CF80EC0E940B04F0
:1024F0008981882309F421CF8E010E5F1F4F0E942E
:10250000A104F80181918F018111F9CF16CF81E0EB
:102510000E940B048FE39FE10197F1F700C00000D8
:1025200000E511E085E40E94A104D8018D918D01A0
:102530008111F9CF80EC0E940B041CAA1BAA1982FE
:10254000FCCE215031093CAB2BABE1E0F0E0EC0FCD
:10255000FD1F2E0F3F1FD9011C9280EC0E940B041F
:102560000EED11E080E20E94A104F80181918F013B
:102570008111F9CF80EC0E940B048981882309F432
:10258000DCCE8E010E5F1F4F0E94A104D8018D91F9
:102590008D018111F9CFD1CEE1E0F0E0EC0FFD1F0C
:1025A0002E0F3F1FD9011C9281E00E940B04EFE324
:1025B000FFE13197F1F700C000000FEE11E082E576
:1025C0000E94A104D8018D918D018111F9CF80EC79
:1025D0000E940B04CE0101960E94E6041CAA1BAACD
:1025E0001982BFEFEBE7F2E9B150E040F040E1F7CC
:1025F00000C0000081E00E940B048FE39FE101977F
:10260000F1F700C0000000E511E085E40E94A1049C
:10261000D8018D918D018111F9CF80EC0E940B04BE
:102620008CCE9F939F770E94EC150F90002042F470
:102630009058A2EA2AED3FE049E450E40E943A13A0
:102640000C9497165058BB27AA270E943A130C9453
:1026500097160E945E1638F00E94651620F039F435
:102660009F3F19F426F40C9420160EF4E095E7FB36
:102670000C940C16E92F0E94BC1658F3BA17620787
:1026800073078407950720F079F4A6F50C94DE16FD
:102690000EF4E0950B2EBA2FA02D0B01B90190017D
:1026A0000C01CA01A0011124FF27591B99F0593FC1
:1026B00050F4503E68F11A16F040A22F232F342F09
:1026C0004427585FF3CF469537952795A795F04057
:1026D0005395C9F77EF41F16BA0B620B730B840B6C
:1026E000BAF09150A1F0FF0FBB1F661F771F881F24
:1026F000C2F70EC0BA0F621F731F841F48F487957C
:1027000077956795B795F7959E3F08F0B0CF93956D
:10271000880F08F09927EE0F9795879508959F9356
:102720009F77EEE389379E0728F4E8E6F0E00E9401
:102730004A160CC00E94EC159058A2EA2AED3FE020
:1027400049EC5FE30E943A130E9497160F9007FC32
:1027500090580895DF93DD27B92FBF7740E85FE3F6
:102760001616170648075B0718F4D92F0E94E516BE
:102770009F938F937F936F930E94BE18ECE7F0E0D6
:102780000E9423160E9497162F913F914F915F91BF
:102790000E94C617DD2351F09058A2EA2AED3FE0CF
:1027A00049EC5FE3D0785D270E943A13DF910C94E7
:1027B0009716492FE5E593959E9F912DE3E0E99FBC
:1027C0004019EE2708950C9412160E94C416D8F3EF
:1027D0009923C9F3DF93CF931F930F93FF92EF9247
:1027E000DF92CF92BF92AF929F928F929F5780F4C9
:1027F000919588232AF09395660F771F881FDAF743
:10280000D8DF4A951AF009F44E5F9395919501C06F
:10281000D0DF91589F93FF27FF248F019F014F0125
:10282000DF01EF01660F771F881FAA1F4A95D2F7B5
:1028300098E0000F111F000F111FEE0FA801AA242E
:102840004E0F511DA11C6A01EA2C440F551FAA1CF2
:102850004C0D5D1DAE1C4160A41BB50BCA0920F4D4
:10286000A40FB51FCA1D07C0AF01440F551F040FA9
:10287000151F0160E16043E0660F771F881FAA1FE4
:10288000BB1FCC1F4A95C1F79A9599F690E1000FAE
:10289000111F221F331F881C991C1094C1F7EE0FC3
:1028A000FF1FFF1C0024A00150016001EE24400F17
:1028B000511FA21EB31EC81CD91CE11C4E0F5F1F66
:1028C000AF1CB11CC11CD11CE11C009441F0440F91
:1028D000551FAA1CBB1CCC1CDD1CEE1CE8CFA41B86
:1028E000B50BCA09DB096C097D098E0940F4A40FF8
:1028F000B51FCA1DDB1D6C1D7D1D8E1D0AC00E0F70
:102900001F1F2F1D311D811C911C0094C1F70160F8
:10291000E16043E0AA0FBB1FCC1FDD1F661F771FBE
:10292000881F4A95B9F79A9509F0B1CFBF018F2D4D
:102930009F91880F9695879597F98F909F90AF906C
:10294000BF90CF90DF90EF90FF900F911F91CF91AC
:10295000DF9108950E946E16E3950C94A8160E94CC
:10296000C3140C9497160E94651658F00E945E16C8
:1029700040F029F45F3F29F00C940C1651110C948F
:10298000DF160C9420160E94BC1668F39923B1F34D
:10299000552391F3951B550BBB27AA276217730785
:1029A000840738F09F5F5F4F220F331F441FAA1F19
:1029B000A9F335D00E2E3AF0E0E832D091505040D5
:1029C000E695001CCAF72BD0FE2F29D0660F771F83
:1029D000881FBB1F261737074807AB07B0E809F069
:1029E000BB0B802DBF01FF2793585F4F3AF09E3FEE
:1029F000510578F00C940C160C94DF165F3FE4F34D
:102A0000983ED4F3869577956795B795F7959F5F30
:102A1000C9F7880F911D9695879597F90895E1E07C
:102A2000660F771F881FBB1F621773078407BA07DB
:102A300020F0621B730B840BBA0BEE1F88F7E09536
:102A4000089529F416F00C940C160C94DE160C94D0
:102A500020160E94C416A8F39638A0F707F80F9224
:102A6000E8942BE33AEA48EB5FE70E94C9170F921C
:102A70000F920F924DB75EB70F920E947F17E9EA4F
:102A8000F0E00E9423164F915F91EF91FF91E59541
:102A9000EE1FFF1F49F0FE57E0684427EE0F441F6A
:102AA000FA95E1F74195550B0E94F1160F9007FE3C
:102AB0000C94E5160895E89409C097FB3EF49095B0
:102AC0008095709561957F4F8F4F9F4F9923A9F007
:102AD000F92F96E9BB279395F69587957795679596
:102AE000B795F111F8CFFAF4BB0F11F460FF1BC0DA
:102AF0006F5F7F4F8F4F9F4F16C0882311F096E96D
:102B000011C0772321F09EE8872F762F05C066231A
:102B100071F096E8862F70E060E02AF09A95660FD3
:102B2000771F881FDAF7880F9695879597F908958C
:102B30000E945E1620F019F00E94651650F40C9465
:102B400020160C94DF16E92F0E94BC1688F355233B
:102B5000B1F3E7FB6217730784079507A8F189F3C0
:102B6000E92FFF2788232AF03197660F771F881FE8
:102B7000DAF7952F5527442332F091505040220F19
:102B8000331F441FD2F7BB27E91BF50B621B730BE6
:102B9000840BB109B1F222F4620F731F841FB11DBF
:102BA00031972AF0660F771F881FBB1FEFCF915018
:102BB000504062F041F0882332F0660F771F881F83
:102BC00091505040C1F793950C94121686957795C5
:102BD00067959F5FD9F7F7CFDF93CF931F930F933D
:102BE0008B01EC01E1EDF0E00E9423160E949716A4
:102BF0009801AE018B01EC0160E070E080E89FE39A
:102C00000E9422130E947E189801AE010F911F911D
:102C1000CF91DF910C94C61797F99F6780E870E019
:102C200060E008959F3F31F0915020F487957795AB
:102C30006795B795880F911D9695879597F9089593
:102C40009FEF80EC0895DF93CF931F930F93FF9234
:102C5000EF92DF927B018C01689406C0DA2EEF01BF
:102C60000E94C617FE01E894A591259135914591E2
:102C70005591A6F3EF010E943A13FE019701A801B6
:102C8000DA9469F7DF90EF90FF900F911F91CF9149
:102C9000DF9108959F938F937F936F93FF93EF93AB
:102CA0009B01AC010E94B317EF91FF910E94231684
:102CB0002F913F914F915F910C94B31700240A9488
:102CC0001616170618060906089500240A94121607
:102CD00013061406050608950C9420160E94C416C7
:102CE000D8F3E894E0E0BB279F57F0F02AED3FE0EF
:102CF00049EC06C0EE0FBB0F661F771F881F28F038
:102D0000B23A62077307840728F0B25A620B730B5A
:102D1000840BE3959A9572F7803830F49A95BB0F3F
:102D2000661F771F881FD2F790480C941416092E3F
:102D30000394000C11F4882352F0BB0F40F4BF2B16
:102D400011F460FF04C06F5F7F4F8F4F9F4F089556
:102D5000EF93E0FF07C0A2EA2AED3FE049EC5FEB0A
:102D60000E943A130E9497160F90039401FC90580A
:102D7000E9EFF0E00C944A1657FD9058440F551FA8
:102D800059F05F3F71F04795880F97FB991F61F0ED
:102D90009F3F79F087950895121613061406551F64
:102DA000F2CF4695F1DF08C0161617061806991FD0
:102DB000F1CF86957105610508940895E894BB27C5
:102DC00066277727CB0197F908959B01AC0160E056
:102DD00070E080E89FE30C94AF140C940C160C94F4
:102DE00012160E94C416D8F39923C9F3940F511DEB
:102DF000A3F39150504094F059F0882332F0660FBD
:102E0000771F881F91505040C1F79E3F51052CF706
:102E1000880F911D9695879597F908955F3FACF0BF
:102E2000983E9CF0BB27869577956795B79508F4F3
:102E3000B1609395C1F7BB0F58F711F460FFE8CF6D
:102E40006F5F7F4F8F4F9F4FE3CF0C94DF160E9431
:102E5000371729ED3BE54EED5EE30C94B31716F002
:102E60000C9412160C94201668940C940C160E9464
:102E7000C416A8F39923C1F3AEF3DF93CF931F9346
:102E80000F93FF92C92FDD2788232AF02197660F21
:102E9000771F881FDAF720E030E040E85FEB9FE320
:102EA000883920F0803E38F021968F770E942313D6
:102EB000E7E1F1E004C00E942313E4E4F1E00E94A2
:102EC00023168B01BE01EC01FB2E6F57710975951E
:102ED000771F880B990B0E945D1528E132E741E3CB
:102EE0005FE30E94C617AF2D9801AE01FF900F91CE
:102EF0001F91CF91DF910E943A130C949716FA011B
:102F0000DC01AA0FBB1F9B01AC01BF5728F422278D
:102F100033274427507820C0B75190F4AB2F0024BA
:102F2000469537952795011CA395D2F3002071F0A3
:102F3000220F331F441FB395DAF30ED00C942213E3
:102F400061307105A0E88A07B94630F49B01AC01F5
:102F50006627772788279078309621F02083318361
:102F60004283538308950E94C6170C9497160E94BB
:102F70005E1638F00E94651620F0952311F00C942F
:102F80000C160C94201611240C94DF160E94BC160B
:102F900070F3959FC1F3950F50E0551F629FF001AC
:102FA000729FBB27F00DB11D639FAA27F00DB11DC5
:102FB000AA1F649F6627B00DA11D661F829F22274E
:102FC000B00DA11D621F739FB00DA11D621F839FD5
:102FD000A00D611D221F749F3327A00D611D231FAB
:102FE000849F600D211D822F762F6A2F11249F57F9
:102FF00050409AF0F1F088234AF0EE0FFF1FBB1FFC
:10300000661F771F881F91505040A9F79E3F5105BA
:1030100080F00C940C160C94DF165F3FE4F3983E9E
:10302000D4F3869577956795B795F795E7959F5F64
:10303000C1F7FE2B880F911D9695879597F90895F6
:10304000FA01EE0FFF1F309621053105A1F1611540
:10305000710561F48038BFE39B0749F168949038AB
:10306000810561F08038BFEF9B0741F099234AF555
:10307000FF3FE1053105210519F1E8940894E79532
:10308000D901AA2329F4AB2FBE2FF85FD0F310C0CB
:10309000FF5F70F4A695E0F7F73950F019F0FF3AAA
:1030A00038F49F779F930DD00F9007FC90580895A8
:1030B00046F00C94201660E070E080E89FE30895ED
:1030C0004FE79F775F934F933F932F930E9437175C
:1030D0002F913F914F915F910E94B3170C94291546
:1030E0009F930E946E160F9007FCEE5F0C94A8163B
:1030F00019F416F40C9420160C9412160E94C4169F
:10310000B8F39923C9F3B6F39F57550B87FF0E9475
:10311000E7180024A0E640EA90018058569597955C
:1031200028F4805C660F771F881F20F0261737076A
:10313000480730F4621B730B840B202931294A2B7A
:10314000A69517940794202531254A2758F7660F2E
:10315000771F881F20F026173707480730F4620BC7
:10316000730B840B200D311D411DA09581F7B90112
:10317000842F9158880F9695879508959B01AC01EF
:103180000C94B317DF93D92F0E946E16E695D7954E
:103190002AED3FE049E45FE3B33A6207730784072F
:1031A0009507D7953AF0A2EA49EC90680E943A1345
:1031B0000E949716E1E7F1E00E944A16DD0F13F036
:1031C0000E94E516DD0F0BF49058DF9108959150A1
:1031D0005040660F771F881FD2F70895EE0FFF1F2C
:1031E0000590F491E02D0994EF920F931F93CF93E4
:1031F000DF93E80134E047FD34E1042E000C550B69
:1032000057FF03C0519541955109E32E022F242FFA
:10321000AE010E946E19CE01DF91CF911F910F91E7
:10322000EF900895662777270C94CD1AFC01882724
:103230009927E89421912032E9F3293010F02E30BB
:10324000C8F32B3241F02D3239F4689404C00E9447
:103250006619820F911D219120532A30C0F31EF46C
:10326000909581959F4F089591110C94F51C803293
:1032700019F089508550C8F70895FB01DC018D9144
:10328000059080190110D9F3990B0895FB01DC0119
:103290000D900020E9F7119701900D920020E1F7C1
:1032A0000895FB01DC0101900D920020E1F70895E3
:1032B000FB01DC014150504030F08D9101908019AC
:1032C00019F40020B9F7881B990B08957AE0979FAD
:1032D000902D879F802D910D11240895A9E0B0E0D5
:1032E000E4E7F9E10C944A1D6A01F22EB02E102F8A
:1032F000FBE3AF2EA01608F41BE31F5F012F27E0AE
:10330000AE014F5F5F4F0E941D1CBC018981982F49
:103310009970913009F43FC09BE2E1FC04C09E2DFE
:103320009170E0FC3AC05E2D5071E82FE87083FF89
:1033300046C084E0911101C083E0EF2DE81B8F159A
:1033400008F0E0E0D6018E2F20E2552351F19923B9
:1033500029F0D6019C93C60101966C0196012D5F60
:103360003F4FE2FE24C08EE4D6018C9391E4119687
:103370009C93119712968C93D9018E2F90E2811114
:103380001BC0E20FF32FF11D10828EEF9FEF2996E5
:10339000ECE00C94661D9DE2C6CF90E2C4CF2D9365
:1033A00081508111FCCFCE0ED11CE0E0D0CF8EE653
:1033B000D6018C9391E6DBCF9D938150E0CF482FCF
:1033C000447082FF3DC084E0911101C083E08F15FD
:1033D00010F4EF2DE81BD6018E2F20E2552309F1C2
:1033E000992329F0D6019C93C60101966C019601A0
:1033F0002D5F3F4FE2FE1BC089E4D6018C938EE423
:1034000011968C93119786E412968C93D9018E2F86
:1034100090E2882309F4B5CF9D938150FACF2D9384
:1034200081508111FCCFCE0ED11CE0E0D9CF89E6CE
:10343000D6018C938EE611968C93119786E6E4CF95
:103440009B0177FF02C030E020E0A1E0B0E09111E5
:1034500002C0B0E0A0E0F9013196AE0FBF1F8B2C87
:10346000912CBB2009F461C05401EFEFAE1ABE0AE3
:10347000AA0DBB1DFA161B0619F014F04F2D4A1B9E
:10348000511188C0E3FC59C07601A42FB0E2A1110C
:103490004FC0C40ED11C992309F45BC040E0D60193
:1034A0001196F60190836D01552309F448C0012F50
:1034B000060F9A81582F507184FF03C0913309F48D
:1034C000015010160CF047C0093008F008E0EEE299
:1034D000FE2E5B01A01AB108850191948194910898
:1034E0002F3F320729F4D601FC92F60131966F0185
:1034F0006217730794F1021713077CF5DB01A21B17
:10350000B30BAA24A394B12CAC0EBD1EAA0DBB1DF7
:1035100011968C9121503109D60111962815390543
:10352000F4F0F60180836D01DBCFB12CA12CA0CF8C
:10353000F701B1937F01A150AACF9111B0CFD6016D
:10354000942F50E302C05D9391509111FCCFC40EB3
:10355000D11C40E0ACCF01E0BACF80E3DBCF6217F3
:10356000730731F4963388F4953311F4552369F0D9
:10357000F6018083FD01842F90E2811108C0A40F21
:10358000B11D1C9290E080E002CF81E3F1CF9193D6
:103590008150F3CF911183CF8ACFB0E0A0E0E3ED6B
:1035A000FAE10C944A1D5C017B016115710519F06B
:1035B000DB018D939C9385010F5F1F4FF501D08137
:1035C0008D2F90E00E9434196C01892BB9F5DD3202
:1035D000B9F50F5F1F4FD5011196DC91C1E058017D
:1035E000F1E0AF1AB10843E050E06CE971E0C501C9
:1035F0000E94F81C892B69F5680182E0C80ED11C75
:1036000045E050E067E971E0C6010E94F81C892B93
:1036100021F4680197E0C90ED11CE114F10419F0FE
:10362000D701CD92DC9260E070E080E89FEFC1119D
:10363000FFC060E070E080E89FE7FAC05801BBCFB0
:10364000DB3229F485010E5F1F4FF501D181C0E007
:10365000C6CF43E050E064E971E0C5010E94F81C68
:10366000892BE9F0F80110E000E020E030E0A9014A
:103670005F01B0ED8B2E8D0E89E08815C8F19C2E70
:10368000689491F88C2F8870C2FF16C0811102C017
:103690000F5F1F4F3196D501DC91C92DE9CFE114A1
:1036A000F10429F00E5F1F4FF7011183008360E0E2
:1036B00070E080EC9FE7BCC0882311F00150110935
:1036C000A5E0B0E00E94391D9B01AC01220F331F21
:1036D000441F551F280D311D411D511D283999E9E1
:1036E0003907490799E15907A8F2C6609C2ED2CF45
:1036F000AEEF8A1206C0C3FD3CC09C2E689493F8BE
:10370000C9CFDF7DD534A9F580818D3239F4C06110
:10371000DF011296818162E070E006C0DF018B322A
:10372000C1F3119661E070E080535D01A61AB70AFB
:103730008A30F8F4E0E8CE16ECE0DE065CF4B60180
:10374000660F771F660F771FC60ED71ECC0CDD1CC9
:10375000C80ED11C5D01FFEFAF1ABF0A8C918053D8
:103760008A30A8F1C4FF03C0D194C194D1080C0DD4
:103770001D1DC1FF09C0E114F10431F081E0A81A58
:10378000B108D701AD92BC92CA01B9010E945B1584
:10379000C370C33009F490584B015C0120E030E065
:1037A000A9010E94101D882309F440C0CBECD1E090
:1037B00017FF05C0119501951109C3EBD1E06E010A
:1037C000B8E1CB1AD10880E2E82EF12C0FC0D50168
:1037D000B1CFFE0125913591459154910E191F09E4
:1037E000C501B4010E94B3174B015C01D501C401AE
:1037F0000E151F0574F72497F594E794CC16DD0693
:10380000A9F78A2F880F8B2F881F8F3F49F020E060
:1038100030E0A901C501B4010E94101D811106C04C
:1038200082E290E09093950280939402C501B401E6
:10383000CDB7DEB7ECE00C94661D283008F027E029
:103840003327DA01990F311D87FD916000966105DC
:10385000710539F432602E5F3D9330E32A95E1F72C
:1038600008959F3F30F080387105610509F03C5F95
:103870003C5F3D93913008F08068911DDF93CF93BA
:103880001F930F93FF92EF92192F987F9695E92F30
:1038900096959695E90FFF27E75DFD4F992733270A
:1038A000EE24FF24A701E70105900894079428F46B
:1038B000360FE71EF81E491F511D660F771F881F20
:1038C000991F0694A1F70590079428F4E70EF81EB7
:1038D000491F561FC11D770F881F991F661F069429
:1038E000A1F70590079428F4F80E491F561FC71F2B
:1038F000D11D880F991F661F771F0694A1F70590A9
:10390000079420F4490F561FC71FD81F990F661F31
:10391000771F881F0694A9F784911095177041F0BE
:10392000D695C79557954795F794E7941A95C1F79B
:10393000EFECF1E0689415901591359165919591B2
:1039400005907FE27395E118F10A430B560BC90B02
:10395000D009C0F7E10CF11E431F561FC91FD01D2F
:103960007EF4703311F48A95E6CFE894015030F07C
:10397000080F0AF40027021708F4202F2395022FBE
:103980007A3328F079E37D932A95E9F710C07D9387
:103990002A9589F606949795679537951795179404
:1039A000E118F10A430B560BC90BD00998F0239587
:1039B0007E9173957A3308F070E37C932013B8F707
:1039C0007E9170617D9330F0839571E37D9370E318
:1039D0002A95E1F71124EF90FF900F911F91CF915D
:1039E000DF91992787FD9095089599278827089555
:1039F000FB01DC014150504088F08D9181341CF076
:103A00008B350CF4805E659161341CF06B350CF4E1
:103A1000605E861B611171F3990B0895881BFCCFC2
:103A20000E94151D08F481E00895990F0008550FB4
:103A3000AA0BE0E8FEEF16161706E807F907C0F034
:103A400012161306E407F50798F0621B730B840B3C
:103A5000950B39F40A2661F0232B242B252B21F416
:103A600008950A2609F4A140A6958FEF811D811DB6
:103A700008950E947B1DA59F900DB49F900DA49F5B
:103A8000800D911D112408952F923F924F925F92C5
:103A90006F927F928F929F92AF92BF92CF92DF925E
:103AA000EF92FF920F931F93CF93DF93CDB7DEB7C3
:103AB000CA1BDB0B0FB6F894DEBF0FBECDBF099457
:103AC0002A88398848885F846E847D848C849B84AE
:103AD000AA84B984C884DF80EE80FD800C811B81BC
:103AE000AA81B981CE0FD11D0FB6F894DEBF0FBEEB
:103AF000CDBFED010895A29FB001B39FC001A39F68
:103B0000700D811D1124911DB29F700D811D112416
:083B1000911D0895F894FFCF08
:103B18006173696E280061636F7328006174616E58
:103B280028007371727428006C6F6728006C6E2807
:103B380000655E2800636272742800616273280061
:103B480066616374280064656728007261642800F0
:103B58004D656D6F727920636C65617265640045AF
:103B68006E7465722065787072657373696F6E3AEA
:103B780000322E373138323800416464656420746D
:103B88006F206D656D6F7279005375627472616331
:103B98007465642066726F6D206D656D00332E311B
:103BA8003431353900312F28005368696674206D27
:103BB8006F6465204F4E005368696674206D6F64AA
:103BC80065204F464600416C706861206D6F6465E2
:103BD800204F4E00416C706861206D6F6465204F06
:103BE80046460057656C636F6D65202100202020D4
:103BF8002020202020202020202020202000526566
:103C080073756C743A006173696E0061636F730059
:103C18006174616E00795E7800434C520031305E09
:103C28000065006162730063627274005B00646522
:103C38006700726164006D6F640066616374005DA3
:103C480000484558004445430042494E004F4354FC
:103C5800004D43004253006C6F67006C6E00655E58
:103C680000E2889A00CF800078C2B20078C2B30020
:103C7800312F7800290045585000414E53004D2BF4
:083C8800004D2D004D5200001B
:00000001FF
