:100000000C9448020C9465020C9465020C946502F1
:100010000C9465020C9465020C9465020C946502C4
:100020000C9465020C9465020C9465020C946502B4
:100030000C9465020C9465020C9465020C946502A4
:100040000C9465020C9465020C9465020C94650294
:100050000C9465020C9465020C9465020C94650284
:100060000C9465020C9465024E414E494E49545918
:10007000494E46CDCCCC3D0AD7233C17B7D1387773
:10008000CC2B329595E6241FB14F0A000020410089
:1000900000C84200401C4620BCBE4CCA1B0E5AAED3
:1000A000C59D7400407A10F35A00A0724E180900E2
:1000B00010A5D4E80000E87648170000E40B5402CD
:1000C0000000CA9A3B000000E1F505000080969808
:1000D00000000040420F000000A086010000001058
:1000E0002700000000E8030000000064000000009A
:1000F000000A00000000000100000000002C76D87B
:1001000088DC674F0823DFC1DFAE59E1B1B796E560
:10011000E3E453C63AE651997696E8E6C28426EBC4
:10012000898C9B62ED407C6FFCEFBC9C9F40F2BAD7
:10013000A56FA5F490055A2AF75C936B6CF9676D6F
:10014000C11BFCE0E40D47FEF520E6B500D0ED90C4
:100150002E0300943577050080841E080000204E91
:100160000A000000C80C333333330F986E1283112A
:1001700041EF8D2114893BE65516CFFEE6DB18D101
:10018000844B381BF77C1D901DA4BBE424203284D3
:10019000725E228100C9F124ECA1E53D27496E661B
:1001A000696E697479004572726F72004D6F6420D8
:1001B0006279207A65726F206572726F720044698D
:1001C00076206279207A65726F206572726F720094
:1001D0007371727428006C6F672800322E373138C3
:1001E000323800332E31343135390074616E2800D5
:1001F000636F73280073696E28004D5200456E745A
:1002000065722065787072657373696F6E3A00531A
:100210007562747261637465642066726F6D206DBF
:10022000656D004D2D00456E7465722065787072A5
:10023000657373696F6E3A00416464656420746F1E
:10024000206D656D6F7279004D2B00414E53004556
:100250005850002900312F2800312F78005E3300DC
:1002600078C2B3005E320078C2B200332E3134312E
:10027000353900CF80002800737172742800E2883D
:100280009A00655E2800655E006C6E28006C6E004A
:100290006C6F6728006C6F67004253005E007461EA
:1002A0006E280074616E00636F732800636F7300C3
:1002B00073696E280073696E00456E7465722065FF
:1002C000787072657373696F6E3A004D656D6F7209
:1002D0007920636C6561726564004D43004F43543F
:1002E0000042494E0044454300484558005D0066C1
:1002F000616374280066616374006D6F64007261ED
:1003000064280072616400646567280064656700A2
:100310005B006362727428006362727400616273CE
:10032000280061627300322E37313832383138009C
:10033000650031305E0031305E00456E74657220BC
:1003400065787072657373696F6E3A00434C520042
:10035000795E78006174616E28006174616E00617D
:10036000636F73280061636F73006173696E2800A7
:100370006173696E00456E74657220657870726590
:100380007373696F6E3A00526573756C743A00202E
:10039000202020202020202020202020202020007D
:1003A000456E7465722065787072657373696F6EDF
:1003B0003A00456E74657220657870726573736972
:1003C0006F6E3A00416C706861206D6F6465204FFC
:1003D000464600416C706861206D6F6465204F4E29
:1003E00000456E7465722065787072657373696F0D
:1003F0006E3A005368696674206D6F6465204F46DD
:1004000046005368696674206D6F6465204F4E0026
:10041000456E7465722065787072657373696F6E6E
:100420003A0057656C636F6D652021005F016401C0
:1004300069016E0172013A01760178017C01810146
:10044000830187018B018F01940196019A019E011E
:10045000A201A601600165016A013C01A901AC018C
:10046000B001B301B6013801BA01BD01C101C50136
:10047000C901CB01CF01D301D601D9013738392BBE
:10048000443435362D533132332A41302E3D2F43FB
:1004900011241FBECFEFD8E0DEBFCDBF11E0A0E03A
:1004A000B1E0E0E5FFE402C005900D92AC3DB1077C
:1004B000D9F722E0ACEDB1E001C01D92A031B20746
:1004C000E1F70E94481C0C94A6270C940000CA0176
:1004D000B9010895EF92FF920F931F93C801B701DE
:1004E0001F910F91FF90EF900895CA01B9019058A4
:1004F0000895CA01B9010E945F1E9B01AC0160E032
:1005000070E080E89FE30E94D01E08959B01AC013B
:100510000E942F2020E030E040E85FE30E945F1E51
:100520009B01AC0160E070E080E89FE30E94D01E78
:100530000895CA01B90190580895EF92FF920F9360
:100540001F93C801B7011F910F91FF90EF9008957D
:100550004F925F926F927F928F929F92AF92BF92D3
:10056000CF92DF92EF92FF920F931F93CF93DF937F
:10057000CDB7DEB762970FB6F894DEBF0FBECDBF22
:1005800069837A838B839C8329013A01ED86FE86F9
:100590000F87188BDE82CD824B015C01DA8AC98A13
:1005A000AEC0A3019201C501B401E989FA89099598
:1005B0002AE037ED43E25CE30E942F206D837E83C7
:1005C0008F8398872AE037ED43EA5BE3C501B401E6
:1005D0000E945F1E6B017C0120E030E040E05FE3A1
:1005E0006D817E818F8198850E942F20A3019201C9
:1005F0000E945F1E9B01AC01C701B601E989FA891F
:1006000009952AE037ED43E25CE30E942F206983DD
:100610007A838B839C8320E030E040E05FE30E949C
:100620002F20A30192010E945F1E9B01AC01C70114
:10063000B601E989FA8909952AE037ED43E25CE3DE
:100640000E942F206B017C012AE037ED43E25CE33E
:10065000C501B4010E945F1E4B015C01A701960118
:10066000C301B2010E945F1E9B01AC01C501B40130
:10067000E989FA89099569877A878B879C87298117
:100680003A814B815C81CA01B9010E945F1E2D81B4
:100690003E814F8158850E945F1E69837A838B83D8
:1006A0009C83A7019601C701B6010E945F1E9B01B2
:1006B000AC0169817A818B819C810E945F1E6B01F4
:1006C0007C012AE037ED43E25CE369857A858B851E
:1006D0009C850E942F209B01AC01C701B6010E949E
:1006E0005F1E20E030E040EC50E40E94D01E9B01F1
:1006F000AC01C301B2010E945F1E2B013C012D859C
:100700003E854F855889C501B4010E945E1E6B016C
:100710007C012CEA35EC47E257E30E942A201816A8
:100720000CF43FCF2CEA35EC47E257EBC701B6019A
:100730000E94CB1E87FD35CFC301B20162960FB672
:10074000F894DEBF0FBECDBFDF91CF911F910F9107
:10075000FF90EF90DF90CF90BF90AF909F908F90E1
:100760007F906F905F904F9008952F923F924F929D
:100770005F926F927F928F929F92AF92BF92CF9231
:10078000DF92EF92FF920F931F93CF93DF93CDB73A
:10079000DEB7AC970FB6F894DEBF0FBECDBF2B010E
:1007A0003C012D833E834F835887E986FA860B8769
:1007B0001C87A9A6BAA6CBA6DCA6140198C1E98419
:1007C000FA840B851C852D813E814F815885C3019C
:1007D000B201F10109952AE037ED43E25CE30E94A2
:1007E0002F206D8F7E8F8F8F98A3E984FA840B85DD
:1007F0001C852D813E814F815885C301B20123960E
:10080000EEADFFAD239709952AE037ED43E25CE3B7
:100810000E942F2069A37AA38BA39CA320E030E041
:1008200040E05FE30E942F2029853A854B855C8557
:100830000E945F1E6D877E878F87988B20E030E057
:1008400040E05FE36D8D7E8D8F8D98A10E942F20FB
:100850002D813E814F8158850E945F1E4B015C01B6
:100860002AE037ED43EA5BE3C301B2010E945F1E59
:1008700069837A838B839C83ED84FE840F8518893A
:10088000A5019401F10109952AE037ED43E25CE30B
:100890000E942F206D8B7E8B8F8B988FED84FE8432
:1008A0000F851889A501940169817A818B819C81CA
:1008B0002396EEADFFAD239709952AE037ED43E28D
:1008C0005CE30E942F206D877E878F87988B20E0C6
:1008D00030E040E05FE30E942F2029853A854B8578
:1008E0005C850E945F1E698B7A8B8B8B9C8B20E0D2
:1008F00030E040E05FE36D897E898F89988D0E94AA
:100900002F202D813E814F8158850E945F1E4B0113
:100910005C01E988FA880B891C89AC019B0169811B
:100920007A818B819C81F10109952AE037ED43E2C0
:100930005CE30E942F20698F7A8F8B8F9C8FE988D0
:10094000FA880B891C89A501940169817A818B81C0
:100950009C812396EEADFFAD239709952AE037EDF4
:1009600043E25CE30E942F2069837A838B839C831C
:100970009B01AC0169857A858B859C850E945F1EF1
:10098000698B7A8B8B8B9C8B298D3A8D4B8D5C8DF3
:100990006D817E818F8198850E945F1E4B015C0175
:1009A0002AE037ED43E25CE3C301B2010E945F1E1F
:1009B0002B013C01E988FA880B891C89A501940167
:1009C000F10109956DA37EA38FA398A7E988FA8802
:1009D0000B891C89A5019401C301B2012396EEADD8
:1009E000FFAD239709954B015C012D893E894F8905
:1009F000588DCA01B9010E945F1E2D8D3E8D4F8D0D
:100A000058A10E945F1E6B017C01298D3A8D4B8D90
:100A10005C8DCA01B9010E945F1E9B01AC01C70138
:100A2000B6010E945F1E6B017C012AE037ED43E2B4
:100A30005CE36DA17EA18FA198A50E942F209B0150
:100A4000AC01C701B6010E945F1E20E030E040EC1F
:100A500050E40E94D01E9B01AC016D817E818F818C
:100A600098850E945F1E6D837E838F8398872D8576
:100A70003E854F855889CA01B9010E945F1E29A190
:100A80003AA14BA15CA10E945F1E6B017C012981F0
:100A90003A814B815C81CA01B9010E945F1E9B01B2
:100AA000AC01C701B6010E945F1E6B017C012AE008
:100AB00037ED43E25CE3C501B4010E942F209B01A6
:100AC000AC01C701B6010E945F1E20E030E040EC9F
:100AD00050E40E94D01E9B01AC0169857A858B850C
:100AE0009C850E945F1E69877A878B879C8729A5D2
:100AF0003AA54BA55CA5C301B2010E945E1E6B0125
:100B00007C012FE632E143E85AE30E942A201816BE
:100B10000CF455CE2FE632E143E85AEBC701B6019B
:100B20000E94CB1E87FD4BCE6D817E818F81988583
:100B3000AC960FB6F894DEBF0FBECDBFDF91CF915C
:100B40001F910F91FF90EF90DF90CF90BF90AF90EB
:100B50009F908F907F906F905F904F903F902F90DD
:100B600008954F925F926F927F928F929F92AF9271
:100B7000BF92CF92DF92EF92FF920F931F93CF938A
:100B8000DF93CDB7DEB766970FB6F894DEBF0FBE22
:100B9000CDBF2B013C014130510509F4EBC042307F
:100BA000510509F4B1C04330510509F4F5C0443092
:100BB000510509F42AC14530510561F0463051050F
:100BC00009F03CC129E23CE543E150E40E94D01E1B
:100BD0002B013C0120E030E0A901C301B2010E94D9
:100BE000CB1E18160CF0AAC020E030E040E85FE30E
:100BF000C301B2010E94CB1E87FD41C320E030E05B
:100C000040E85FE3C301B2010E945E1E2AE037EDB7
:100C100043E25CE30E94D01E0E94421F8B01161625
:100C200017060CF08BC01A821982812C912C54016A
:100C3000C12CD12C30E8E32E3FE3F32E90E080E08E
:100C40009E838D83A70196016AE077ED83E29CE3A2
:100C50000E94D01E69837A838B839C832AE037EDC0
:100C600043EA5BE3C701B6010E945F1E9B01AC0132
:100C70006AE077ED83E29CE30E94D01E2B013C01E9
:100C80002AE037ED43E25CE3C701B6010E945F1E34
:100C90006B017C01A3019201C301B2010E945F1E9E
:100CA0002B013C0129813A814B815C810E945F1EAE
:100CB000A30192010E945F1E2B013C01A701960136
:100CC0006AE077ED83E29CE30E94D01E9B01AC01B9
:100CD000C301B2010E945F1E20E030E040EC50E40E
:100CE0000E94D01E9B01AC01C501B4010E945F1E91
:100CF0004B015C01AD81BE811196BE83AD830A17A5
:100D00001B0709F09FCF1DC020E030E0A9010E9421
:100D1000CB1E882399F020E030E0A901C301B20185
:100D20000E942A2018160CF4FCC120E030E0A90132
:100D3000C301B2010E94CB1E87FDC4C1812C912C3E
:100D40005401C501B40166960FB6F894DEBF0FBE1C
:100D5000CDBFDF91CF911F910F91FF90EF90DF906A
:100D6000CF90BF90AF909F908F907F906F905F904B
:100D70004F900895A7E6CA2EA2E0DA2E8C017B01DF
:100D800020E030E040E85FE360E070E0CB010E94EB
:100D9000A8024B015C01D5CF20E030E0A9010E9400
:100DA000CB1E882309F462C120E030E0A901C30111
:100DB000B2010E942A2018160CF4CDC120E030E0C8
:100DC000A901C301B2010E94CB1E87FFB7CF630107
:100DD0005201D7FAD094D7F8D09489E992E09F9342
:100DE0008F934DE9842E42E0942EE12CF12C870163
:100DF00020E030E040E85FE3C801B7010E94B5039E
:100E00004B015C010F900F909CCF43E050E00E949B
:100E1000B1056B017C0120E030E0A9010E94CB1EEE
:100E2000811172C180E091E09F938F930E941F21F6
:100E30000F900F90812C912C540183CF4730510596
:100E400009F41BC14830510509F090C120E030E0A1
:100E500040E85FEB0E94CB1E87FD70CF20E030E0C2
:100E600040E85FE3C301B2010E942A2018160CF487
:100E700065CF20E030E0A901C301B2010E942A2021
:100E800087FD1DC22AE037ED43E25CE3C301B201F6
:100E90000E94D01E0E94421F8B0180E090E0A0E8DB
:100EA000BFE38D839E83AF83B887101611060CF0C5
:100EB00045CF1A821982812C912C540124013501CD
:100EC000B0E0A0E0BE8BAD8BA3019201C301B201E3
:100ED0000E942F209B01AC0160E070E080E89FE35E
:100EE0000E945E1E47E050E00E94B10569877A8744
:100EF0008B879C872AE037ED43E25CE36D817E813E
:100F00008F8198850E942F2069837A838B839C83AD
:100F100020E030E040E05FE30E942F20A301920137
:100F20000E945F1E9B01AC010E942F209B01AC011F
:100F300060E070E080E89FE30E945E1E6B017C0130
:100F400047E050E00E94B1056D877E878F87988BC0
:100F500047E050E0C701B6010E94B105698B7A8B6A
:100F60008B8B9C8B29813A814B815C81C301B201BF
:100F70000E945F1E2B013C01AC019B010E942F20AF
:100F80009B01AC0160E070E080E89FE30E945E1E80
:100F900047E050E00E94B10569837A838B839C838C
:100FA0002AE037ED43E25CE36D857E858F85988985
:100FB0000E942F209B01AC010E945F1E6B017C01EF
:100FC0002AE037ED43E25CE369857A858B859C8571
:100FD0000E942F209B01AC01C701B6010E945F1E39
:100FE0006B017C012AE037ED43E25CE369897A8991
:100FF0008B899C890E942F209B01AC010E945F1E5F
:101000009B01AC01C701B6010E945F1E6B017C0110
:101010002AE037ED43E25CE369817A818B819C8130
:101020000E942F209B01AC01C701B6010E945F1EE8
:101030002D813E814F8158850E942F2020E030E095
:1010400040EC50E40E94D01E9B01AC01C501B401EC
:101050000E945F1E4B015C018D899E8901969E8BCB
:101060008D8B0817190709F02FCF6BCE812C912C8F
:1010700080E8A82E8FE3B82E64CE20E030E0A901EE
:101080000E94CB1E87FD1BC020E030E0A901C301F8
:10109000B2010E94CB1E882309F450CE29E7C22E4C
:1010A00022E0D22E8301720120E030E040E85FE3CD
:1010B000CA01B9010E94A8024B015C0142CE89E03D
:1010C00091E0B2CE63015201D7FAD094D7F8D09410
:1010D00085E792E09F938F936AE6862E62E0962ED4
:1010E000E12CF12C00E81FE320E030E0A901CA0167
:1010F000B9010E94B5034B015C01B7FAB094B7F88F
:10110000B0940F900F901DCE42E050E0C301B201A9
:101110000E94B105A70196010E94D01E4B015C01FF
:1011200010CE85E792E09F938F93EAE68E2EE2E061
:101130009E2E63015201E12CF12C00E81FE320E018
:1011400030E0A901CA01B9010E94B5034B015C015D
:101150000F900F90F6CD89E992E09F938F935DE910
:10116000852E52E0952E630152013FCE4930510544
:1011700009F476C04A30510509F468C04B30510576
:1011800009F0DCCD20E030E0A9010E94CB1E8823CD
:1011900009F4D4CD20E030E0A901C301B2010E94DE
:1011A0002A2018160CF07EC080E090E0A0E8BFE393
:1011B00089839A83AB83BC8320E030E040E450E431
:1011C000C301B2010E94D01E6B017C01A5E0B0E01A
:1011D000BE83AD83A7019601C701B6010E942F20EF
:1011E000A70196010E942F20A30192010E945E1E7A
:1011F0004B015C0120E030E040E450E4C701B6015F
:101200000E942F20A70196010E942F209B01AC0174
:10121000C501B4010E94D01E9B01AC01C701B601FB
:101220000E945E1E6B017C018D819E8101979E83D1
:101230008D83892B79F629813A814B815C81C701A5
:10124000B6010E942F204B015C017BCD96E8C92E90
:1012500092E0D92E83017B0120E030E0A90128CF64
:1012600048E050E00E94B1059B01AC016BED7FE0CE
:1012700089EC9FE30E945E1E4B015C0162CDA301DD
:10128000920160E070E080E89FE30E94D01E45E09C
:1012900050E00E94B1054B015C01B7FAB094B7F879
:1012A000B0944FCD77FA709477F8709480E090E026
:1012B000A0E8BFEB89839A83AB83BC837DCFC30156
:1012C000B20190582AE037ED43E25CE30E94D01E61
:1012D0000E94421F8B0180E090E0A0E8BFEB8D836D
:1012E0009E83AF83B887E1CDCF92DF92EF92FF92DA
:1012F0000F931F93CF93DF9397FD33C082309105F7
:101300004CF18C010F5F1F4FC12CD12C20E8E22E35
:101310002FE3F22EC2E0D0E0BE010D2E000C880BB0
:10132000990B0E947A1F9B01AC01C701B6010E9474
:101330002F206B017C0121960C171D0769F7C7014F
:10134000B601DF91CF911F910F91FF90EF90DF9049
:10135000CF900895C12CD12C80E8E82E8FE3F82E91
:10136000EECFC12CD12C90ECE92E9FE7F92EE7CFE0
:10137000CF92DF92EF92FF920F931F93CF93DF9361
:101380006B017C018A0157FD1DC060E070E080E8C0
:101390009FE3452B71F0D0E0C0E060E070E080E8B2
:1013A0009FE3A70196010E942F202196C017D10725
:1013B000C1F7DF91CF911F910F91FF90EF90DF90D8
:1013C000CF900895AC019B0160E070E080E89FE35E
:1013D0000E94D01E6B017C01119501951109DBCF94
:1013E000CF93DF93EC019881DA01ED91FC91992381
:1013F000E1F0EF33F105CCF42196B0E0A0E009C0B4
:10140000FA0120813181F901EA0FFB1FEF33F10569
:1014100064F4E60FF71F9083119699919111F0CF24
:10142000EA01E881F981EA0FFB1FDA01ED93FC93F1
:101430006E0F7F1FEB011882DF91CF9108954CE76B
:1014400054E030E020E02115310509F439C0409A1C
:101450002130310509F439C0419A2230310509F4AF
:1014600038C0429A439885E38A95F1F700001899AD
:1014700025C0FA018491199903C0FA01319684912B
:101480001A9903C0FA01329684914E9903C0FA0169
:10149000339684914F9903C0FA0134968491811157
:1014A00008C02F5F3F4F4B5F5F4F2430310509F07D
:1014B000CACF409A419A429A439A089580E0DBCF7E
:1014C0004098419A429A439ACECF4198429A439A81
:1014D000CACF4298439AC7CF2C9887FD42C05A98EA
:1014E00086FF2FC05B9A85FF2FC05C9A84FF2FC0B8
:1014F0005D9A2B9A95E09A95F1F700002B98EFE111
:10150000F3E03197F1F700C0000083FF28C05A9A3A
:1015100082FF23C05B9A81FF1EC05C9A80FF19C0C6
:101520005D9A2B9AF5E0FA95F1F700002B9881501F
:101530008230C8F0E7ECF0E03197F1F700C000002E
:1015400008955B9885FDD1CF5C9884FDD1CF5D98DF
:10155000D0CF5D98E6CF5C98E1CF5B98DCCF5A980E
:10156000D7CF5A9ABDCF8FE39FE10197F1F700C023
:1015700000000895249A239A559A549A539A529A9D
:101580002FEF80E792E0215080409040E1F700C0CB
:1015900000002C985D985C985B9A5A9A2B9A25E0EB
:1015A0002A95F1F700002B988FE19EE40197F1F75F
:1015B00000C000002B9A95E09A95F1F700002B9857
:1015C0008FE99FE00197F1F700C000002B9A95E0AA
:1015D0009A95F1F700002B988FE99FE00197F1F7BA
:1015E00000C000005A982B9A95E09A95F1F70000F8
:1015F0002B988FE99FE00197F1F700C0000088E287
:101600000E946C0A8CE00E946C0A86E00E946C0AC0
:1016100081E00E946C0A82E00E946C0A8FE39FE1E5
:101620000197F1F700C0000008952C9A87FD40C093
:101630005A9886FF2CC05B9A85FF2CC05C9A84FF69
:101640002CC05D9A2B9A95E09A95F1F700002B98A3
:10165000EFE1F3E03197F1F700C0000083FF26C00F
:101660005A9A82FF21C05B9A81FF19C05C9A80FD63
:1016700019C05D982B9AF5E0FA95F1F700002B98C8
:1016800087EC90E00197F1F700C0000008955B98A7
:1016900085FDD4CF5C9884FDD4CF5D98D3CF5C9882
:1016A00080FFE7CF5D9AE6CF5B98DECF5A98D9CF1F
:1016B0005A9ABFCFEF92FF920F931F93CF93DF936E
:1016C000DC01EC91E356E23108F056C0EA018B01EF
:1016D0007C010E2E000CFF0BE059F44F0C94B5204A
:1016E000FE0BBC0B3A0CBC0BBC0BBC0BBC0BBC0B01
:1016F000BC0B760CBC0BBC0BBC0BB20CBC0BEE0CCD
:10170000820BC30B65EF71E088EE91E00E9403212C
:101710008091E801688179818823D9F06F33710560
:10172000C4F4E9EEF1E007C028813981620F731F2C
:101730006F33710574F4600F711FDB018C93BF016F
:10174000685E714081918111EFCF88819981680F26
:10175000791F79836883600F711FFB01108280916C
:10176000E801882339F0C9EED1E00E94150B899178
:101770008111FBCFD7011C92DF91CF911F910F9167
:10178000FF90EF9008956BEE71E088EE91E00E947B
:1017900003218091E801688179818823D9F06F3332
:1017A0007105C4F4E9EEF1E007C028813981620FC8
:1017B000731F6F33710574F4600F711FDB018C931D
:1017C000BF01685E714081918111EFCF888199815D
:1017D000680F791F79836883600F711FFB01108286
:1017E0008091E801882331F2C9EED1E00E94150B07
:1017F00089918111FBCFD7011C92BECF60EF71E0C0
:1018000088EE91E00E9403218091E801688179814E
:101810008823D9F06F337105C4F4E9EEF1E007C015
:1018200028813981620F731F6F33710574F4600F63
:10183000711FDB018C93BF01685E71408191811142
:10184000EFCF88819981680F791F79836883600F52
:10185000711FFB0110828091E801882309F48ACF6F
:10186000C9EED1E00E94150B89918111FBCFD70100
:101870001C9282CF6BED71E088EE91E00E94032113
:101880008091E801688179818823D9F06F337105EF
:10189000C4F4E9EEF1E007C028813981620F731FBB
:1018A0006F33710574F4600F711FDB018C93BF01FE
:1018B000685E714081918111EFCF88819981680FB5
:1018C000791F79836883600F711FFB0110828091FB
:1018D000E801882309F44ECFC9EED1E00E94150B30
:1018E00089918111FBCFD7011C9246CF66ED71E043
:1018F00088EE91E00E9403218091E801688179815E
:101900008823D9F06F337105C4F4E9EEF1E007C024
:1019100028813981620F731F6F33710574F4600F72
:10192000711FDB018C93BF01685E71408191811151
:10193000EFCF88819981680F791F79836883600F61
:10194000711FFB0110828091E801882309F412CFF6
:10195000C9EED1E00E94150B89918111FBCFD7010F
:101960001C920ACF63EE71E088EE91E00E940321A1
:101970008091E801688179818823D9F06F337105FE
:10198000C4F4E9EEF1E007C028813981620F731FCA
:101990006F33710574F4600F711FDB018C93BF010D
:1019A000685E714081918111EFCF88819981680FC4
:1019B000791F79836883600F711FFB01108280910A
:1019C000E801882309F4D6CEC9EED1E00E94150BB8
:1019D00089918111FBCFD7011C92CECE60ED71E0D1
:1019E00088EE91E00E9403218091E801E881F9816D
:1019F0008823B1F0EF33F1059CF4A9EEB1E003C008
:101A0000EF33F1056CF4E00FF11F8083FD01E85E18
:101A1000F1408D9168817981E60FF71F8111F0CF38
:101A2000F983E883E00FF11F10828091E801882399
:101A300009F4A0CEC9EED1E00E94150B8991811165
:101A4000FBCFD7011C9298CE2F923F924F925F927C
:101A50006F927F928F929F92AF92BF92CF92DF92BE
:101A6000EF92FF920F931F93CF93DF93CDB7DEB723
:101A700028970FB6F894DEBF0FBECDBF98878F832F
:101A800044E050E065E271E00E941121892B09F4E5
:101A9000A8C144E050E06BE271E08F8198850E941C
:101AA0001121892B09F41DC144E050E061E371E08C
:101AB0008F8198850E941121892B09F41FC244E06F
:101AC00050E065E171E08F8198850E941121892B9A
:101AD00009F461C243E050E06AE171E08F819885CA
:101AE0000E941121892B09F4E9C145E050E06EE123
:101AF00071E08F8198850E941121892B09F497C28A
:101B000045E050E064E271E08F8198850E941121E8
:101B1000892B09F4ACC245E050E06AE271E08F81A4
:101B200098850E941121892B09F455C245E050E0A7
:101B300060E371E08F8198850E941121892B09F45F
:101B4000B2C243E050E066E371E08F8198850E9465
:101B500011218C01892B09F4C2C243E050E06AE3F1
:101B600071E08F8198850E9411218C01892B09F4E5
:101B7000F8C244E050E06EE371E08F8198850E94E6
:101B80001121892B09F419C345E050E063E471E0A9
:101B90008F8198850E941121892B09F476C345E035
:101BA00050E069E471E08F8198850E941121892BB2
:101BB00009F499C342E050E06FE471E08F819885A9
:101BC0000E941121892B09F420C442E050E062E513
:101BD00071E08F8198850E941121892B09F478C4C6
:101BE00044E050E065E571E08F8198850E94112105
:101BF000892B09F4C5C444E050E06AE571E08F81A7
:101C000098850E941121892B09F48AC4812C912C7A
:101C100054015BE2598375016401EF81F88570809E
:101C200071100BC089C02F8138852F5F3F4F3887D7
:101C30002F83F9017080772081F1072D072C000C8C
:101C4000110BC8010E94F120892B69F7005311097B
:101C50000A30110518F0FEE27F12D9C28F819885F3
:101C60000E94ED204B015C01EF81F8852081222349
:101C7000A1F0822F022E000C990BC0970A9718F042
:101C80002E3209F0C4C22F8138852F5F3F4F38872D
:101C90002F83F90120812111ECCF59815B3209F4A6
:101CA000ABC30CF4E2C289818F3209F491C38E3543
:101CB00009F461C38D3209F0B0CF312CA501940134
:101CC000C701B6010E945E1E6B017C01332009F43E
:101CD000A4CF2F8138852F5F3F4F38872F833982DC
:101CE0009CCF8F81988504960E94ED20EF81F88526
:101CF0002481222379F0293269F03596FC83EB8325
:101D000002C0293239F0EB81FC812191FC83EB8305
:101D10002111F7CF2BED3FE049E450E40E942F2042
:101D200020E030E044E353E40E94D01E43E050E062
:101D30000E94B1056B017C01C092DC01D092DD01F3
:101D4000E092DE01F092DF01A7019601C701B60122
:101D50000E949C2081110AC146015701E894B7F8FE
:101D60002FEF3FEF4FE75FE7C501B4010E949C20D2
:101D7000811171C02FEF3FEF4FE75FE7C501B4015D
:101D80000E94CB1E18160CF066C0EDE9F1E08491BC
:101D9000882371F02EE931E03C832B830E94150BE0
:101DA000EB81FC8184913196FC83EB838111F6CF2A
:101DB00028960FB6F894DEBF0FBECDBFDF91CF914E
:101DC0001F910F91FF90EF90DF90CF90BF90AF9059
:101DD0009F908F907F906F905F904F903F902F904B
:101DE00008958F81988504960E94ED20EF81F885F3
:101DF0002481222379F0293269F03596FC83EB8324
:101E000002C0293239F0EB81FC812191FC83EB8304
:101E10002111F7CF2BED3FE049E450E40E942F2041
:101E200020E030E044E353E40E94D01E42E050E062
:101E30000E94B1056B017C017FCF80E090E0A0E8BB
:101E4000BFE38093DC019093DD01A093DE01B093AA
:101E5000DF016C017D0108EE11E024E048E0C701DC
:101E6000B6010E94CF20F80101900020E9F73297D7
:101E70008081803369F40E171F0728F00CC031E011
:101E8000E83EF30741F03197118280818033B9F346
:101E90008E3209F410828091E801882309F488CFFA
:101EA00049EE51E05C834B830E94150BEB81FC8172
:101EB0008191FC83EB838111F7CF7ACF8F81988555
:101EC00003960E94ED20EF81F8852381222379F08B
:101ED000293269F03496FC83EB8302C0293239F051
:101EE000EB81FC812191FC83EB832111F7CF45E04D
:101EF00050E00E94B1056B017C011ECF8F81988557
:101F000004960E94ED20EF81F8852481222379F048
:101F1000293269F03596FC83EB8302C0293239F00F
:101F2000EB81FC812191FC83EB832111F7CF2BED19
:101F30003FE049E450E40E942F2020E030E044E3F9
:101F400053E40E94D01E44E050E00E94B1056B01B2
:101F50007C01F2CE80E090E0A0ECBFE78093DC0152
:101F60009093DD01A093DE01B093DF01E6EAF1E09A
:101F70008491882309F41CCF27EA31E03C832B832A
:101F80000E94150BEB81FC8184913196FC83EB83DD
:101F90008111F6CF0DCF8F81988504960E94ED2098
:101FA000EF81F8852481222379F0293269F0359672
:101FB000FC83EB8302C0293239F0EB81FC81219153
:101FC000FC83EB832111F7CF46E050E00E94B1057E
:101FD0006B017C01B1CE8F81988505960E94ED2022
:101FE000EF81F8852581222379F0293269F0369630
:101FF000FC83EB8302C0293239F0EB81FC81219113
:10200000FC83EB832111F7CF49E050E00E94B1053A
:1020100020E030E044E353E40E942F202BED3FE02A
:1020200049E450E40E94D01E6B017C0185CE8F8173
:10203000988505960E94ED20EF81F8852581222361
:1020400079F0293269F03696FC83EB8302C029329D
:1020500039F0EB81FC812191FC83EB832111F7CFD7
:1020600047E050E00E94B1056B017C0165CE8F8195
:10207000988505960E94ED20EF81F8852581222321
:1020800079F0293269F03696FC83EB8302C029325D
:1020900039F0EB81FC812191FC83EB832111F7CF97
:1020A00048E050E0B3CF8F81988505960E94ED20DF
:1020B000EF81F8852581222379F0293269F036965F
:1020C000FC83EB8302C0293239F0EB81FC81219142
:1020D000FC83EB832111F7CF4AE050E097CF8F814B
:1020E000988503960E94ED20EF81F88523812223B5
:1020F00079F0293269F03496FC83EB8302C02932EF
:1021000039F0EB81FC812191FC83EB832111F7CF26
:102110000E94421F7C836B8377FD98C08B819C81DA
:10212000892B09F48ACE74E5872E78EF972E7DE20D
:10213000A72E70E4B72EC12CD12C60E8E62E6FE3F9
:10214000F62EA5019401C701B6010E942F206B0154
:102150007C010F5F1F4FEB81FC810E171F0789F772
:10216000EBCD8F81988503960E94ED200E94421F3F
:102170007C836B8377FDA9C08B819C81892B09F4BB
:102180005CCE812C912C40E2A42E41E4B42EC12CD3
:10219000D12C30E8E32E3FE3F32EA5019401C701D3
:1021A000B6010E942F206B017C010F5F1F4FEB8156
:1021B000FC810E171F0789F7BFCD8F819885049684
:1021C0000E94ED206B017C01EF81F88584818823DA
:1021D00079F0893269F03596FC83EB8302C089324D
:1021E00039F0EB81FC818191FC83EB838111F7CF86
:1021F00020E030E0A901C701B6010E942A2018168C
:102200000CF49ACDF7FAF094F7F8F09495CDEF81AD
:10221000F885308086ED830D823008F426C1FFE218
:102220003F1609F422C12EE5321609F41EC1832D92
:10223000877F853209F419C1332009F408C24F8120
:1022400058854F5F5F4F58874F83E7CC442755270A
:10225000461B570B5C834B83E2EB8E2EEAE59E2EEA
:10226000ECEBAE2EEEE3BE2E66CF553209F40EC176
:10227000312C5A3209F0D1CCA5019401C701B60125
:102280000E942F206B017C0121CD8F8198850596BE
:102290000E94ED20EF81F8852581222379F02932F3
:1022A00069F03696FC83EB8302C0293239F0EB816A
:1022B000FC812191FC83EB832111F7CF4BE050E0AF
:1022C0000E94B1056B017C0137CD44275527461B81
:1022D000570B5C834B835DEC852E5CEC952EA92C13
:1022E0005DE3B52E54CF8F81988505960E94ED2031
:1022F0000E94421F9B01EF81F8854581442379F0BC
:10230000493269F03696FC83EB8302C0493239F0DA
:10231000EB81FC814191FC83EB834111F7CF37FDC9
:1023200019CE223031050CF488CD8B010F5F1F4F81
:10233000C12CD12C20E8E22E2FE3F22E22E030E057
:102340003C832B834B815C81BA01550F880B990B21
:102350000E947A1F9B01AC01C701B6010E942F2089
:102360006B017C018B819C8101969C838B83801700
:10237000910741F7E1CC312CC501B4010E94421F05
:102380006B837C838D839E836B807C8077FC2FC1E5
:102390006114710409F424C15C2C4D2CEA822F2CA9
:1023A00010E000E0C12CD12C90E8E92E9FE3F92E3B
:1023B000252D342D4A81522DC701B6010E942F20B0
:1023C0006B017C010F5F1F4F0615170589F77ECC47
:1023D000312C20E030E0A901C501B4010E94CB1EE0
:1023E000882309F443C1A5019401C701B6010E94E5
:1023F000D01E6B017C016ACCA5019401C701B60116
:102400000E945F1E6B017C0108CC8F81988502962B
:102410000E94ED200E94421FEF81F8852281222335
:1024200079F0293269F03396FC83EB8302C02932BC
:1024300039F0EB81FC812191FC83EB832111F7CFF3
:10244000072E000C880B990B0E947A1F6B017C01F0
:10245000AC019B010E942F209B01AC01C701B6017A
:102460000E942F206B017C0167CCF981FB3209F4BB
:10247000D5C00CF4CCC029812F3209F4AACF2E3557
:1024800009F47ACF2D3209F024CC18CC312C20E07D
:1024900030E0A901C501B4010E94CB1E882309F4D4
:1024A000C6C0C701B6010E94421F8B01C501B4011D
:1024B0000E94421FAB01C801BA010E94A120BC01C9
:1024C000990F880B990B0E947A1F6B017C01FECB40
:1024D0008F81988502960E94ED200E94421FEF8115
:1024E000F8852281222379F0293269F03396FC8322
:1024F000EB8302C0293239F0EB81FC812191FC830E
:10250000EB832111F7CF072E000C880B990B0E944B
:102510007A1F9B01AC010E942F206B017C010CCC27
:102520008F81988504960E94ED200E94421FEF81C2
:10253000F8852481222379F0293269F03596FC83CD
:10254000EB8302C0293239F0EB81FC812191FC83BD
:10255000EB832111F7CF072E000C880B990B0E94FB
:102560007A1F2BED3FE049E450E40E942F2020E049
:1025700030E044E353E40E94D01E6B017C01DCCBCD
:102580008F81988504960E94ED200E94421FEF8162
:10259000F8852481222379F0293269F03596FC836D
:1025A000EB8302C0293239F0EB81FC812191FC835D
:1025B000EB832111F7CF24EB269FA001279F500D1D
:1025C0001124BA01550F880B990B0E947A1F2BED2D
:1025D0003FE049E450E40E94D01E6B017C01ACCB8B
:1025E000C12CD12C80E8E82E8FE3F82E6FCBA70109
:1025F000960160E070E080E89FE30E94D01E562EB6
:10260000472E8A83292E719461947108C9CEF532C0
:1026100009F43DCFFA3209F42FCE5BCBA50194012A
:10262000C701B6010E945F1E6B017C014FCB2CEAF3
:1026300031E03C832B8302C00E94150BEB81FC81AF
:1026400084913196FC83EB838111F6CFB1CB398134
:102650003B3221F3DCF049814F3209F4BACE4E35DA
:1026600009F48ACE4D3209F0D8CA28CB4EEB51E09E
:102670005C834B8302C00E94150BEB81FC8184912B
:102680003196FC83EB838111F6CF92CB353209F47E
:10269000FECE3A3209F0C1CAA5019401C701B601C4
:1026A0000E942F206B017C01B8CAAF92BF92CF92DB
:1026B000DF92EF92FF920F931F93CF93DF93FC0172
:1026C000A0810A2E000CBB0BF12CE12C10E000E0E5
:1026D00030E020E0E701C458DB4FFE01E20FF31FBA
:1026E000E491EA171B06E1F02F5F3F4F25303105DB
:1026F000A1F70F5F1F4FF5E0EF0EF11C043011053D
:1027000039F71092E7011092E601DF91CF911F9106
:102710000F91FF90EF90DF90CF90BF90AF90089512
:10272000EA017B016C01F801EE0FFF1FEE0FFF1FA6
:10273000E00FF11FE20FF31FEE0FFF1FE45DFB4FF1
:102740000591149160E773E0C8010E94FA20892B7B
:1027500009F424C165E673E0C8010E94FA20892BC0
:1027600009F4A8C06AE573E0C8010E94FA20892B29
:1027700009F4DBC060E573E0C8010E94FA20892BF0
:1027800009F448C16CE473E0C8010E94FA20892B67
:1027900009F47EC166E373E0C8010E94FA20892B28
:1027A00009F43CC160E373E0C8010E94FA20892B60
:1027B00009F48AC162E273E0C8010E94FA20892B01
:1027C00009F4BCC168E173E0C8010E94FA20892BBA
:1027D00009F4F2C160E173E0C8010E94FA20892B7C
:1027E00009F4E6C16CE073E0C8010E94FA20892B6D
:1027F00009F41CC263E073E0C8010E94FA205C0186
:10280000892B09F449C26AEF72E0C8010E94FA20DC
:10281000892B09F481C265EF72E0C8010E94FA2099
:102820005C01892B09F47FC26DEE72E0C8010E9441
:10283000FA20892B09F4C8C269EE72E0C8010E942F
:10284000FA20892B09F46EC065EE72E0C8010E947F
:10285000FA20892B09F466C061EE72E0C8010E947B
:10286000FA20892B09F45EC06DED72E0C8010E9468
:10287000FA20892B09F456C06AED72E0C8010E9463
:10288000FA20892B09F03DCF1092E0011092E1016E
:102890001092E2011092E30181E00E946C0ACBECFD
:1028A000D2E0FE0184912196882309F477C20E9428
:1028B000150BF7CF6FE573E088EE91E00E940321DE
:1028C0008091E801688179818823D9F06F3371059F
:1028D000C4F4E9EEF1E007C028813981620F731F6B
:1028E0006F33710574F46E0D7F1DDB018C93BF0196
:1028F000685E714081918111EFCF88819981680F65
:10290000791F798368836E0D7F1DFB011082809192
:10291000E801882339F0C9EED1E00E94150B8991B6
:102920008111FBCFD6011C92ECCE64E573E088EEFA
:1029300091E00E9403218091E801688179818823D8
:10294000D9F06F337105C4F4E9EEF1E007C02881D6
:102950003981620F731F6F33710574F46E0D7F1D23
:10296000DB018C93BF01685E714081918111EFCFD3
:1029700088819981680F791F798368836E0D7F1D27
:10298000FB0110828091E801882361F2C9EED1E059
:102990000E94150B89918111FBCFC4CF6AE673E0C9
:1029A00088EE91E00E9403218091E801688179819D
:1029B0008823D9F06F337105C4F4E9EEF1E007C064
:1029C00028813981620F731F6F33710574F46E0DA6
:1029D0007F1DDB018C93BF01685E71408191811185
:1029E000EFCF88819981680F791F798368836E0D95
:1029F0007F1DFB0110828091E801882309F492CFAA
:102A0000C9EED1E00E94150B89918111FBCFD6014F
:102A10001C9277CE8EE5D6018C9373CE62E373E081
:102A200088EE91E00E9403212091E801888199813C
:102A30002223D9F08F339105C4F4E9EEF1E007C009
:102A400048815981840F951F8F33910574F48E0D41
:102A50009F1DDC012C93CF01885E914021912111B3
:102A6000EFCF28813981820F931F998388838E0D40
:102A70009F1DFC0110828091E801882309F452CF48
:102A8000C9EED1E00E94150B89918111FBCF4ACF8D
:102A900081E00E946C0AEAE3F3E08491882351F01C
:102AA0000BE313E00E94150BF80184910F5F1F4F99
:102AB0008111F8CF80EC0E946C0A19821882D7012C
:102AC0001C92F60110821DCE66E273E088EE91E062
:102AD0000E9403212091E801888199812223D9F065
:102AE0008F339105C4F4E9EEF1E007C048815981C4
:102AF000840F951F8F33910574F48E0D9F1DDC019B
:102B00002C93CF01885E914021912111EFCF288134
:102B10003981820F931F998388838E0D9F1DFC013D
:102B200010828091E801882309F4FCCEC9EED1E03F
:102B30000E94150B89918111FBCFF4CE6DE173E0FA
:102B400088EE91E00E9403212091E801888199811B
:102B50002223D9F08F339105C4F4E9EEF1E007C0E8
:102B600048815981840F951F8F33910574F48E0D20
:102B70009F1DDC012C93CF01885E91402191211192
:102B8000EFCF28813981820F931F998388838E0D1F
:102B90009F1DFC0110828091E801882309F4C2CEB8
:102BA000C9EED1E00E94150B89918111FBCFBACEFD
:102BB0008BE5D6018C93A5CD62E173E088EE91E0C0
:102BC0000E9403212091E801888199812223D9F074
:102BD0008F339105C4F4E9EEF1E007C048815981D3
:102BE000840F951F8F33910574F48E0D9F1DDC01AA
:102BF0002C93CF01885E914021912111EFCF288144
:102C00003981820F931F998388838E0D9F1DFC014C
:102C100010828091E801882309F484CEC9EED1E0C6
:102C20000E94150B89918111FBCF7CCE67E073E088
:102C300088EE91E00E9403212091E801888199812A
:102C40002223B9F08F339105A4F4E9EEF1E08E0D63
:102C50009F1DDC012C93CF01885E9140219122239E
:102C600009F455C048815981840F951F8F33910510
:102C700074F3998388838E0D9F1DFC0110828091CF
:102C8000E801882309F44ECEC9EED1E00E94150B6D
:102C900089918111FBCF46CE6EEF72E088EE91E014
:102CA0000E9403214091E8014423D1F12881398118
:102CB000C9012F333105B4F4E9EEF1E006C0950106
:102CC000280F391F2F3331056CF42E0D3F1DD9010C
:102CD0004C93CF01885E91405C014191888199813C
:102CE0004111EDCF8A0D9B1D998388838E0D9F1D09
:102CF000DC011C928091E801882309F413CEC9EE0F
:102D0000D1E00E94150B89918111FBCF0BCE288158
:102D10003981820F931FADCF85E2F6018083F1CC1C
:102D200088819981DFCF6FEE72E088EE91E00E949A
:102D300003214091E801442309F455C028813981D9
:102D4000C9012F333105ACF4E9EEF1E02E0D3F1D42
:102D5000D9014C93CF01885E91405C0141918881FB
:102D60009981442331F09501280F391F2F33310504
:102D70006CF38A0D9B1D998388838E0D9F1DDC014A
:102D80001C928091E801882309F4CCCDC9EED1E0F2
:102D90000E94150B89918111FBCFC4CDFFEF23ED6C
:102DA00080E3F15020408040E1F700C0000081E066
:102DB0000E946C0AC9EBD2E0FE018491219688231F
:102DC00039F00E94150BF8CF8DE5F601808399CC80
:102DD00080EC0E946C0AE7018991882309F4A2CD56
:102DE0000E94150BF9CF88819981C3CF8F929F9252
:102DF000AF92BF92CF92DF92EF92FF920F931F9309
:102E0000CF93DF93CDB7DEB7C054D1090FB6F89496
:102E1000DEBF0FBECDBF6A01FC01A0810A2E000CEF
:102E2000BB0B50E040E0F12CE12C30E020E08A01C7
:102E300004581B4FF801E20FF31FE491EA171B0639
:102E400031F12F5F3F4F25303105A1F7EFEFEE1A3B
:102E5000FE0A4B5F5F4FF4E0EF16F10431F710927A
:102E6000E5011092E401C05CDF4F0FB6F894DEBFBD
:102E70000FBECDBFDF91CF911F910F91FF90EF90CB
:102E8000DF90CF90BF90AF909F908F9008955B019F
:102E90004C01F701EE0FFF1FEE0FFF1FEE0DFF1DA0
:102EA000E20FF31FEE0FFF1FEC5AFB4F0591149139
:102EB00065EB72E0C8010E94FA20892B09F43CC13D
:102EC0006CEA72E0C8010E94FA20892B09F4B3C0B1
:102ED00063EA72E0C8010E94FA20892B09F4EDC070
:102EE0006CE972E0C8010E94FA20892B09F467C1DD
:102EF00069E972E0C8010E94FA20892B09F463C1D4
:102F000065E972E0C8010E94FA20892B09F45FC1CB
:102F10006DE872E0C8010E94FA20892B09F49BC178
:102F200066E872E0C8010E94FA20892B09F4D7C133
:102F30006EE772E0C8010E94FA20892B09F40FC2E3
:102F400066E772E0C8010E94FA20892B09F447C2A3
:102F500063E772E0C8010E94FA20892B09F443C29A
:102F600067E672E0C8010E94FA207C01892B09F40F
:102F7000BCC260E672E0C8010E94FA207C01892B85
:102F800009F472C269E572E0C8010E94FA207C016E
:102F9000892B09F403C463E572E0C8010E94FA209A
:102FA000892B09F4F7C36FE472E0C8010E94FA208C
:102FB000892B09F4C5C36BE472E0C8010E94FA20B2
:102FC000892B09F49FC368E472E0C8010E94FA20CB
:102FD000892B09F426C363E272E0C8010E94FA203B
:102FE000892B09F4F3C26AEF71E0C8010E94FA204C
:102FF000892B09F034CF6091E0017091E10180915B
:10300000E2019091E30108EE11E022E048E00E9425
:10301000CF20F80101900020E9F7329780818033BA
:1030200009F0AEC221E0E83EF20709F008F4ABC2B5
:1030300031971182F3CF67EA72E088EE91E00E9447
:1030400003218091E801882309F445C1D6016D91DF
:103050007C916F337105D4F4E9EEF1E008C0D6013C
:103060002D913C91620F731F6F3371057CF46A0DD3
:103070007B1DDB018C93BF01685E714081918111E2
:10308000EECFF60180819181680F791FD6016D9393
:103090007C936A0D7B1DFB0110828091E8018823DF
:1030A00049F009EE11E00E94150BD8018D918D01B8
:1030B0008111F9CFF4011082D2CE6EE972E088EE70
:1030C00091E00E9403218091E801F6016081718105
:1030D0008823E9F06F337105D4F4E9EEF1E008C01C
:1030E000D6012D913C91620F731F6F3371057CF4F3
:1030F0006A0D7B1DDB018C93BF01685E714081917D
:103100008111EECFF60180819181680F791FD60180
:103110006D937C936A0D7B1DFB0110828091E80109
:10312000882341F209EE11E00E94150BD8018D9120
:103130008D018111F9CFBECF60EB72E088EE91E096
:103140000E9403218091E801882309F480C0D60100
:103150006D917C916F337105D4F4E9EEF1E008C014
:10316000D6012D913C91620F731F6F3371057CF472
:103170006A0D7B1DDB018C93BF01685E71408191FC
:103180008111EECFF60180819181680F791FD60100
:103190006D937C936A0D7B1DFB0110828091E80189
:1031A000882309F487CF09EE11E00E94150BD8019E
:1031B0008D918D018111F9CFF401108250CE8EE5F1
:1031C000F40180834CCE84E4D4018C9348CE60E932
:1031D00072E088EE91E00E9403212091E801F6015F
:1031E000808191812223E9F08F339105D4F4E9EEB7
:1031F000F1E008C0D6014D915C91840F951F8F338B
:1032000091057CF48A0D9B1DDC012C93CF01885E17
:10321000914021912111EECFF60120813181820F61
:10322000931FD6018D939C938A0D9B1DFC011082E8
:103230008091E801882309F43DCF09EE11E00E9456
:10324000150BD8018D918D018111F9CF33CFF60186
:10325000608171819CCF69E872E088EE91E00E9404
:1032600003212091E801F601808191812223E9F078
:103270008F339105D4F4E9EEF1E008C0D6014D9109
:103280005C91840F951F8F3391057CF48A0D9B1DF3
:10329000DC012C93CF01885E914021912111EECF6A
:1032A000F60120813181820F931FD6018D939C936B
:1032B0008A0D9B1DFC0110828091E801882309F48E
:1032C000F9CE09EE11E00E94150BD8018D918D0108
:1032D0008111F9CFEFCEF60160817181D7CE62E81E
:1032E00072E088EE91E00E9403212091E801F6014E
:1032F000808191812223E9F08F339105D4F4E9EEA6
:10330000F1E008C0D6014D915C91840F951F8F3379
:1033100091057CF48A0D9B1DDC012C93CF01885E06
:10332000914021912111EECFF60120813181820F50
:10333000931FD6018D939C938A0D9B1DFC011082D7
:103340008091E801882309F4B5CE09EE11E00E94CE
:10335000150BD8018D918D018111F9CFABCE68E7A6
:1033600072E088EE91E00E9403212091E801F601CD
:10337000808191812223E9F08F339105D4F4E9EE25
:10338000F1E008C0D6014D915C91840F951F8F33F9
:1033900091057CF48A0D9B1DDC012C93CF01885E86
:1033A000914021912111EECFF60120813181820FD0
:1033B000931FD6018D939C938A0D9B1DFC01108257
:1033C0008091E801882309F475CE09EE11E00E948E
:1033D000150BD8018D918D018111F9CF6BCE88E24B
:1033E000F40180833CCD6BE672E088EE91E00E94B0
:1033F00003212091E801222309F4BAC0D6018D915E
:103400009C918F339105D4F4E9EEF1E008C0D60128
:103410004D915C91840F951F8F3391057CF48A0D3B
:103420009B1DDC012C93CF01885E914021912111DD
:10343000EECFF60120813181820F931FD6018D934B
:103440009C938A0D9B1DFC0110828091E8018823CA
:1034500009F430CE09EE11E00E94150BD8018D91D0
:103460008D018111F9CF26CE6DE572E088EE91E0F5
:103470000E9403214091E801442309F47DC0F60134
:1034800020813181C9012F333105BCF4E9EEF1E02F
:1034900006C09701280F391F2F33310574F42A0D08
:1034A0003B1DD9014C93CF01885E91407C01419135
:1034B000D6018D919C914111ECCF8E0D9F1DF6018F
:1034C000918380838A0D9B1DDC011C928091E80111
:1034D000882309F4EFCD09EE11E00E94150BF801E5
:1034E00081918F018111F9CFE5CD64E672E088EE1C
:1034F00091E00E9403214091E8014423A9F1D60103
:103500002D913C91C9012F333105B4F4E9EEF1E07E
:103510002A0D3B1DD9014C93CF01885E91407C015F
:103520004191D6018D919C91442331F09701280F50
:10353000391F2F33310564F38E0D9F1DF6019183E2
:1035400080838A0D9B1DDC011C928091E8018823F9
:1035500009F4B0CD09EE11E00E94150BF80181913C
:103560008F018111F9CFA6CDF60180819181E4CF41
:10357000F6018081918162CFD6018D919C919DCF82
:103580008E3209F4108208EE11E0F801CF01885E56
:1035900091402191D6014D915C91840F951FD501E9
:1035A000A80FB91F222329F08F33910514F42C930F
:1035B000EDCFF601918380831C92D8018D918D010E
:1035C000882309F477CD0E94150BF7CFB501CE0102
:1035D00001960E940A21CE0101960E94ED209B01D6
:1035E000AC016091E0017091E1018091E201909164
:1035F000E3010E945E1E6093E0017093E1018093FD
:10360000E2019093E30181E00E946C0A0FE012E076
:10361000F80184910F5F1F4F882371F10E94150BF1
:10362000F7CFB501CE0101960E940A21CE01019685
:103630000E94ED209B01AC016091E0017091E101DD
:103640008091E2019091E3010E945F1E6093E0018E
:103650007093E1018093E2019093E30181E00E9485
:103660006C0A08E312E0F80184910F5F1F4F882372
:10367000D1F00E94150BF7CFFFEF23ED80E3F1505F
:1036800020408040E1F700C0000081E00E946C0A09
:103690000DEF11E0F80184910F5F1F4F8823D1F0E7
:1036A0000E94150BF7CFFFEF23ED80E3F150204090
:1036B0008040E1F700C0000081E00E946C0A06E251
:1036C00012E0F80184910F5F1F4F882379F00E9468
:1036D000150BF7CF80EC0E946C0AD5018D915D012E
:1036E000882309F4E7CC0E94150BF7CF80EC0E94E9
:1036F0006C0AD5018D915D01882309F4DBCC0E9411
:10370000150BF7CF6091DC017091DD018091DE0136
:103710009091DF0108EE11E022E048E00E94CF2006
:10372000F80101900020E9F732978081803361F43D
:1037300021E0E83EF20759F050F031971182F5CFC1
:1037400085E4F40180838BCB8E3209F4108208EE7D
:1037500011E0F801CF01885E91402191D6014D9191
:103760005C91840F951FD501A80FB91F222329F062
:103770008F33910514F42C93EDCFF6019183808360
:103780001C92D8018D918D01882309F493CC0E945D
:10379000150BF7CF89E2D4018C9361CB65E572E01C
:1037A00088EE91E00E9403214091E8014423F1F06A
:1037B000F60120813181C9012F333105D4F4E9EEBE
:1037C000F1E02A0D3B1DD9014C93CF01885E914059
:1037D0007C014191D6018D919C91442351F0970138
:1037E000280F391F2F33310564F303C0D6018D91A3
:1037F0009C918E0D9F1DF601918380838A0D9B1DE8
:10380000DC011C928091E801882309F453CC09EE75
:1038100011E00E94150BF80181918F018111F9CF00
:1038200049CCCF93DF93EC018881882331F0219636
:103830000E94150B89918111FBCFDF91CF910895E3
:10384000CF93DF93EC012196FC018491882339F01A
:103850000E94150BFE01849121968111F9CFDF9111
:10386000CF91089581E00C946C0A389A399A3A9A6B
:103870003B9A409A419A429A439A209821982298DA
:1038800056985798289A299A2A9A5E9A5F9A089584
:10389000CF93DF93CDB7DEB7C354D1090FB6F894F9
:1038A000DEBF0FBECDBF1A821982FE0133968EE3B2
:1038B000DF011D928A95E9F723961FAE1EAE23976E
:1038C0000E94BA0A0E94351CE2E2F4E08491882347
:1038D00051F003E214E00E94150BF80184910F5F90
:1038E0001F4F8111F8CFFFEF27EA41E6F15020404A
:1038F0004040E1F700C0000081E00E946C0AE0E176
:10390000F4E08491882351F001E114E00E94150B4A
:10391000F80184910F5F1F4F8111F8CF80EC0E9456
:103920006C0A81EEE82E83E0F82E92EBC92E93E02C
:10393000D92E20EAA22E23E0B22E3FE8832E33E0D8
:10394000932E47E8642E43E0742E55E7452E53E04E
:10395000552E0E941F0A24968FAF24978823C9F3FF
:10396000833531F1813409F4E5C0833409F43DC174
:1039700023962EAD3FAD2397843409F46EC08D336A
:1039800009F459C12F3331050CF46AC0FFEF25EA61
:103990004EE0F15020404040E1F700C000000E949E
:1039A0001F0A24968FAF2497882399F28335D1F686
:1039B00081E090E02091E6013091E701232B11F0A6
:1039C00090E080E09093E7018093E60181E00E941F
:1039D0006C0A8091E6019091E701E2E0F4E0892B26
:1039E00011F4E3EFF3E08F010F5F1F4F8491882301
:1039F00041F00E94150BF80184910F5F1F4F811158
:103A0000F8CFFFEF23ED40E3F15020404040E1F7D5
:103A100000C0000081E00E946C0AF70184918823B5
:103A200051F002EE13E00E94150BF80184910F5F34
:103A30001F4F8111F8CF80EC0E946C0A8981882386
:103A400009F4A4CF8E010E5F1F4F0E94150BD80101
:103A50008D918D018111F9CF99CF12161306CCF1FA
:103A60008091E6019091E701892B09F0D8C08091FF
:103A7000E4019091E501AE014F5B5F4FBE016F5FC6
:103A80007F4F892B09F4ABC0CE018D5B9F4F0E9405
:103A9000F61624968FAD2497882309F477CF2396C2
:103AA0004EAD5FAD23979A012F5F3F4F23963FAFF7
:103AB0002EAF239761E070E06C0F7D1F460F571FFC
:103AC000DA018C93260F371FF90110820E94150B23
:103AD0005DCF2150310923963FAF2EAF239741E0B0
:103AE00050E04C0F5D1F240F351FD9011C9280EC54
:103AF0000E946C0AF4018491882351F000E913E0DC
:103B00000E94150BF80184910F5F1F4F8111F8CFB0
:103B100080EC0E946C0A8981882309F437CF8E01DA
:103B20000E5F1F4F0E94150BD8018D918D018111E1
:103B3000F9CF2CCF81E090E02091E4013091E501B4
:103B4000232B11F090E080E09093E5018093E40155
:103B500081E00E946C0A8091E4019091E501E3ED1F
:103B6000F3E0892B11F4E4ECF3E08F010F5F1F4FBA
:103B70008491882341F00E94150BF80184910F5F16
:103B80001F4F8111F8CFFFEF23ED40E3F1502040AC
:103B90004040E1F700C0000081E00E946C0AF6019D
:103BA0008491882351F003EB13E00E94150BF80178
:103BB00084910F5F1F4F8111F8CF80EC0E946C0A37
:103BC0008981882309F4E2CE8E010E5F1F4F0E9487
:103BD000150BD8018D918D018111F9CFD7CECE0172
:103BE0008D5B9F4F0E945A0B54CF81E00E946C0A5C
:103BF000F5018491882351F001EA13E00E94150B2E
:103C0000F80184910F5F1F4F8111F8CF80EC0E9463
:103C10006C0A23961FAE1EAE23971982B7CEAE0153
:103C20004F5B5F4FBE016F5F7F4FCE018D5B9F4F3C
:103C30000E9455132ECFE1E0F0E0EC0FFD1F2E0F98
:103C40003F1FD9011C9281E00E946C0AF30184910C
:103C5000882351F008E813E00E94150BF8018491C5
:103C60000F5F1F4F8111F8CF80EC0E946C0ACE01CC
:103C700001960E94240D23961FAE1EAE2397198233
:103C8000FFEF2BE742E9F15020404040E1F700C050
:103C9000000081E00E946C0AF2018491882351F0B7
:103CA00006E713E00E94150BF80184910F5F1F4F88
:103CB0008111F8CF80EC0E946C0A68CE5058BB2767
:103CC000AA270E94761E0C94F01F0E94E21F38F073
:103CD0000E94E91F20F039F49F3F19F426F40C9458
:103CE000DF1F0EF4E095E7FB0C94D91FE92F0E942B
:103CF000012058F3BA17620773078407950720F06D
:103D000079F4A6F50C9423200EF4E0950B2EBA2F2F
:103D1000A02D0B01B90190010C01CA01A0011124D1
:103D2000FF27591B99F0593F50F4503E68F11A167D
:103D3000F040A22F232F342F4427585FF3CF46950E
:103D400037952795A795F0405395C9F77EF41F1630
:103D5000BA0B620B730B840BBAF09150A1F0FF0FFA
:103D6000BB1F661F771F881FC2F70EC0BA0F621FE6
:103D7000731F841F48F4879577956795B795F795D6
:103D80009E3F08F0B0CF9395880F08F09927EE0F6B
:103D90009795879508950E94B51F08F481E00895CE
:103DA0000E94E41E0C94F01F0E94E91F58F00E942C
:103DB000E21F40F029F45F3F29F00C94D91F511104
:103DC0000C9424200C94DF1F0E94012068F3992397
:103DD000B1F3552391F3951B550BBB27AA27621707
:103DE0007307840738F09F5F5F4F220F331F441F14
:103DF000AA1FA9F335D00E2E3AF0E0E832D0915048
:103E00005040E695001CCAF72BD0FE2F29D0660F34
:103E1000771F881FBB1F261737074807AB07B0E877
:103E200009F0BB0B802DBF01FF2793585F4F3AF07D
:103E30009E3F510578F00C94D91F0C9424205F3FCD
:103E4000E4F3983ED4F3869577956795B795F79503
:103E50009F5FC9F7880F911D9695879597F90895EB
:103E6000E1E0660F771F881FBB1F62177307840787
:103E7000BA0720F0621B730B840BBA0BEE1F88F796
:103E8000E09508950E94491F6894B1110C94242074
:103E900008950E94092088F09F5798F0B92F99271C
:103EA000B751B0F0E1F0660F771F881F991F1AF025
:103EB000BA95C9F714C0B13091F00E942320B1E047
:103EC00008950C942320672F782F8827B85F39F046
:103ED000B93FCCF3869577956795B395D9F73EF4BE
:103EE00090958095709561957F4F8F4F9F4F089566
:103EF000E89409C097FB3EF4909580957095619584
:103F00007F4F8F4F9F4F9923A9F0F92F96E9BB2739
:103F10009395F695879577956795B795F111F8CFB5
:103F2000FAF4BB0F11F460FF1BC06F5F7F4F8F4F20
:103F30009F4F16C0882311F096E911C0772321F016
:103F40009EE8872F762F05C0662371F096E8862FAE
:103F500070E060E02AF09A95660F771F881FDAF705
:103F6000880F9695879597F90895990F0008550F32
:103F7000AA0BE0E8FEEF16161706E807F907C0F0EF
:103F800012161306E407F50798F0621B730B840BF7
:103F9000950B39F40A2661F0232B242B252B21F4D1
:103FA00008950A2609F4A140A6958FEF811D811D71
:103FB000089597F99F6780E870E060E008959FEFAB
:103FC00080EC089500240A941616170618060906B0
:103FD000089500240A94121613061406050608957F
:103FE000092E0394000C11F4882352F0BB0F40F407
:103FF000BF2B11F460FF04C06F5F7F4F8F4F9F4F47
:10400000089557FD9058440F551F59F05F3F71F0C8
:104010004795880F97FB991F61F09F3F79F087952F
:104020000895121613061406551FF2CF4695F1DFB8
:1040300008C0161617061806991FF1CF8695710548
:10404000610508940895E894BB2766277727CB017C
:1040500097F908950E94B51F08F48FEF08950E9404
:1040600042200C94F01F0E94E21F38F00E94E91FCA
:1040700020F0952311F00C94D91F0C94DF1F11240C
:104080000C9424200E94012070F3959FC1F3950F9A
:1040900050E0551F629FF001729FBB27F00DB11DCC
:1040A000639FAA27F00DB11DAA1F649F6627B00D5C
:1040B000A11D661F829F2227B00DA11D621F739F45
:1040C000B00DA11D621F839FA00D611D221F749F53
:1040D0003327A00D611D231F849F600D211D822F9A
:1040E000762F6A2F11249F5750409AF0F1F08823C1
:1040F0004AF0EE0FFF1FBB1F661F771F881F9150EE
:104100005040A9F79E3F510580F00C94D91F0C94A4
:1041100024205F3FE4F3983ED4F386957795679526
:10412000B795F795E7959F5FC1F7FE2B880F911D17
:104130009695879597F908950E94B51F880B990B5E
:10414000089597FB072E16F4009407D077FD09D049
:104150000E94BB2007FC05D03EF4909581959F4FAF
:104160000895709561957F4F0895EE0FFF1F05909C
:10417000F491E02D0994AA1BBB1B51E107C0AA1FB3
:10418000BB1FA617B70710F0A61BB70B881F991FF8
:104190005A95A9F780959095BC01CD010895EF92AD
:1041A0000F931F93CF93DF93E80134E047FD34E191
:1041B000042E000C550B57FF03C051954195510932
:1041C000E32E022F242FAE010E940F23CE01DF9198
:1041D000CF911F910F91EF900895662777270C9448
:1041E0006E2491110C949626803219F089508550D6
:1041F000C8F70895FB01DC018D910590801901102D
:10420000D9F3990B0895FB01DC0105900D92002074
:10421000E1F70895FB01DC0101900D920020E1F728
:104220000895FB01DC014150504030F08D91019028
:10423000801919F40020B9F7881B990B0895B0E094
:10424000A0E0E5E2F1E20C947027AE014B5F5F4F16
:10425000FA0161917191AF0180910A0290910B0274
:104260000E943521E2E00C948C27ABE0B0E0EBE358
:10427000F1E20C9460277C013B018A01FC0117826A
:104280001682838181FFC8C1CE0101965C01F701CE
:104290009381F30193FD859193FF81913F018823E1
:1042A00009F453C1853239F493FD859193FF8191CF
:1042B0003F01853229F4B70190E00E94C726E7CF7D
:1042C000912C212C312CFFE1F31538F08B3211F1B8
:1042D00090F4803209F1833229F137FC3CC020EDA3
:1042E000280F2A3050F536FE20C08AE0989E200D17
:1042F0001124922E06C08D3291F0803371F76894AC
:1043000030F8F30193FD859193FF81913F01811175
:10431000DACF21C0689431F8689432F8F2CF68940B
:1043200033F8EFCF689434F8ECCFEAE02E9E200DFE
:104330001124222E689435F8E4CF8E3229F436FC0D
:1043400004C1689436F8DDCF8C3619F4689437F8D8
:10435000D8CF8836B1F2982F9F7D95549330E0F0F6
:104360008336A1F18337C1F1833509F063C0280199
:10437000F2E04F0E511CF801C080D180692D70E031
:1043800036FC02C06FEF7FEFC6010E94B1264C01E0
:10439000689437F882010AC00C5F1F4FFFE3F9836E
:1043A00088248394912C6501E89437F833FE2DC05E
:1043B000522C8114910471F5552009F468CFB7018E
:1043C00080E290E00E94C7265A94F6CFF8018081DF
:1043D00089830E5F1F4FE4CF2801F2E04F0E511C7E
:1043E000F801C080D180692D70E036FC02C06FEF0B
:1043F0007FEFC6010E94BC264C018201D5CFB701D8
:1044000080E290E00E94C7262A942814190409F03B
:10441000B0F7CECFF60137FC859137FE81916F0161
:10442000B70190E00E94C72651105A94F1E08F1A0C
:104430009108BFCF843619F0893609F077C0F801AA
:1044400037FE6BC060817181828193810C5F1F4F49
:10445000F32DFF763F2E97FF09C0909580957095BC
:1044600061957F4F8F4F9F4F689437F82AE030E077
:10447000A5010E94F726C82ECA188C2C432C36FEA4
:104480000CC0E89440F8C91440F434FE05C032FC76
:1044900003C0F32DFE7E4F2E892C44FE95C0FE01F5
:1044A000EC0DF11D8081803309F087C0242D297E19
:1044B000422E842D8870582E43FC95C040FE8FC03C
:1044C0009C2C821418F42C0C922C981844FE91C049
:1044D000B70180E390E00E94C72642FE09C088E74A
:1044E00090E041FE02C088E590E0B7010E94C72637
:1044F000C91408F48AC0CA94D12C9FEFC91AD90AEA
:10450000CA0CDB1CF60182916F01B70190E00E949A
:10451000C726AC14BD04B1F74FCF60817181072E5F
:10452000000C880B990B0E5F1F4F92CFD32CE89491
:10453000D4F82AE030E0853739F1232D297FD22EB7
:104540008F3601F148F48835A9F0F701868197810B
:104550002B96E2E10C947C27803749F08837A9F745
:10456000D4FE02C06894D2F820E130E00DC0689417
:10457000D4F8F6CF34FE03C0822F8660D82E20E117
:1045800032E002C028E030E0F801D7FE0FC06081C1
:104590007181828193810C5F1F4FA5010E94F726D4
:1045A000C82ECA183D2CE89437F867CF6081718116
:1045B00090E080E00E5F1F4FF0CF42FC02C083947A
:1045C00078CF8394839475CF842D867809F471CF46
:1045D000F6CFB70180E290E00E94C7268394821450
:1045E000C0F3512C73CF522C5818821408F46ECF9C
:1045F000F8CF842D867809F47BCF8BE241FE80E2F0
:1046000047FC8DE2B70190E071CFB70180E390E005
:104610000E94C7269A946CCF8FEF9FEF99CFA9E0A5
:10462000B0E0E5E1F3E20C9466276A01F22EB02EC9
:10463000102FFBE3AF2EA01608F41BE31F5F012F22
:1046400027E0AE014F5F5F4F0E94BE25BC0189810C
:10465000982F9970913009F43FC09BE2E1FC04C0AF
:104660009E2D9170E0FC3AC05E2D5071E82FE870ED
:1046700083FF46C084E0911101C083E0EF2DE81B69
:104680008F1508F0E0E0D6018E2F20E2552351F17E
:10469000992329F0D6019C93C60101966C019601DD
:1046A0002D5F3F4FE2FE24C08EE4D6018C9391E44F
:1046B00011969C93119712968C93D9018E2F90E2AC
:1046C00081111BC0E20FF32FF11D10828EEF9FEFBF
:1046D0002996ECE00C9482279DE2C6CF90E2C4CFED
:1046E0002D9381508111FCCFCE0ED11CE0E0D0CFB4
:1046F0008EE6D6018C9391E6DBCF9D938150E0CF7F
:10470000482F447082FF3DC084E0911101C083E0D6
:104710008F1510F4EF2DE81BD6018E2F20E25523C4
:1047200009F1992329F0D6019C93C60101966C01E9
:1047300096012D5F3F4FE2FE1BC089E4D6018C93AA
:104740008EE411968C93119786E412968C93D9017E
:104750008E2F90E2882309F4B5CF9D938150FACF34
:104760002D9381508111FCCFCE0ED11CE0E0D9CF2A
:1047700089E6D6018C938EE611968C93119786E686
:10478000E4CF9B0177FF02C030E020E0A1E0B0E081
:10479000911102C0B0E0A0E0F9013196AE0FBF1F49
:1047A0008B2C912CBB2009F461C05401EFEFAE1AA1
:1047B000BE0AAA0DBB1DFA161B0619F014F04F2DE8
:1047C0004A1B511188C0E3FC59C07601A42FB0E206
:1047D000A1114FC0C40ED11C992309F45BC040E065
:1047E000D6011196F60190836D01552309F448C056
:1047F000012F060F9A81582F507184FF03C0913307
:1048000009F4015010160CF047C0093008F008E018
:10481000EEE2FE2E5B01A01AB1088501919481940D
:1048200091082F3F320729F4D601FC92F601319608
:104830006F016217730794F1021713077CF5DB0110
:10484000A21BB30BAA24A394B12CAC0EBD1EAA0DBF
:10485000BB1D11968C9121503109D6011196281556
:104860003905F4F0F60180836D01DBCFB12CA12C6A
:10487000A0CFF701B1937F01A150AACF9111B0CF82
:10488000D601942F50E302C05D9391509111FCCF5B
:10489000C40ED11C40E0ACCF01E0BACF80E3DBCF47
:1048A0006217730731F4963388F4953311F4552366
:1048B00069F0F6018083FD01842F90E2811108C028
:1048C000A40FB11D1C9290E080E002CF81E3F1CFF4
:1048D00091938150F3CF911183CF8ACFB0E0A0E0C4
:1048E000E4E7F4E20C9466275C017B016115710535
:1048F00019F0DB018D939C9385010F5F1F4FF5012C
:10490000D0818D2F90E00E94F1206C01892BB9F5A8
:10491000DD32B9F50F5F1F4FD5011196DC91C1E073
:104920005801F1E0AF1AB10843E050E060E770E0F1
:10493000C5010E949926892B69F5680182E0C80E9D
:10494000D11C45E050E06BE670E0C6010E9499265C
:10495000892B21F4680197E0C90ED11CE114F10400
:1049600019F0D701CD92DC9260E070E080E89FEF13
:10497000C111FFC060E070E080E89FE7FAC0580115
:10498000BBCFDB3229F485010E5F1F4FF501D181CA
:10499000C0E0C6CF43E050E068E670E0C5010E9489
:1049A0009926892BE9F0F80110E000E020E030E0E2
:1049B000A9015F01B0ED8B2E8D0E89E08815C8F13D
:1049C0009C2E689491F88C2F8870C2FF16C08111BC
:1049D00002C00F5F1F4F3196D501DC91C92DE9CF81
:1049E000E114F10429F00E5F1F4FF70111830083DA
:1049F00060E070E080EC9FE7BCC0882311F00150BC
:104A00001109A5E0B0E00E9455279B01AC01220FDF
:104A1000331F441F551F280D311D411D511D2839BD
:104A200099E93907490799E15907A8F2C6609C2E10
:104A3000D2CFAEEF8A1206C0C3FD3CC09C2E689454
:104A400093F8C9CFDF7DD534A9F580818D3239F453
:104A5000C061DF011296818162E070E006C0DF0173
:104A60008B32C1F3119661E070E080535D01A61AAC
:104A7000B70A8A30F8F4E0E8CE16ECE0DE065CF423
:104A8000B601660F771F660F771FC60ED71ECC0CB8
:104A9000DD1CC80ED11C5D01FFEFAF1ABF0A8C915F
:104AA00080538A30A8F1C4FF03C0D194C194D108C7
:104AB0000C0D1D1DC1FF09C0E114F10431F081E0AE
:104AC000A81AB108D701AD92BC92CA01B9010E94DF
:104AD000781FC370C33009F490584B015C0120E08B
:104AE00030E0A9010E94CB1E882309F440C0CFE921
:104AF000D0E017FF05C0119501951109C7E8D0E076
:104B00006E01B8E1CB1AD10880E2E82EF12C0FC07B
:104B1000D501B1CFFE0125913591459154910E19E2
:104B20001F09C501B4010E942F204B015C01D50172
:104B3000C4010E151F0574F72497F594E794CC165D
:104B4000DD06A9F78A2F880F8B2F881F8F3F49F02A
:104B500020E030E0A901C501B4010E94CB1E811103
:104B600006C082E290E090930F0280930E02C5018E
:104B7000B401CDB7DEB7ECE00C948227283008F002
:104B800027E03327DA01990F311D87FD91600096E8
:104B90006105710539F432602E5F3D9330E32A954B
:104BA000E1F708959F3F30F080387105610509F005
:104BB0003C5F3C5F3D93913008F08068911DDF932E
:104BC000CF931F930F93FF92EF92192F987F969593
:104BD000E92F96959695E90FFF27E350FF4F992708
:104BE0003327EE24FF24A701E701059008940794DA
:104BF00028F4360FE71EF81E491F511D660F771F58
:104C0000881F991F0694A1F70590079428F4E70ED2
:104C1000F81E491F561FC11D770F881F991F661F59
:104C20000694A1F70590079428F4F80E491F561F23
:104C3000C71FD11D880F991F661F771F0694A1F704
:104C40000590079420F4490F561FC71FD81F990FCE
:104C5000661F771F881F0694A9F784911095177017
:104C600041F0D695C79557954795F794E7941A95CF
:104C7000C1F7E3EAF0E068941590159135916591DC
:104C8000959105907FE27395E118F10A430B560B5D
:104C9000C90BD009C0F7E10CF11E431F561FC91FF5
:104CA000D01D7EF4703311F48A95E6CFE89401505C
:104CB00030F0080F0AF40027021708F4202F23957C
:104CC000022F7A3328F079E37D932A95E9F710C013
:104CD0007D932A9589F6069497956795379517954C
:104CE0001794E118F10A430B560BC90BD00998F041
:104CF00023957E9173957A3308F070E37C932013AB
:104D0000B8F77E9170617D9330F0839571E37D9368
:104D100070E32A95E1F71124EF90FF900F911F9116
:104D2000CF91DF91992787FD90950895992788273E
:104D30000895FB01DC014150504088F08D91813491
:104D40001CF08B350CF4805E659161341CF06B3582
:104D50000CF4605E861B611171F3990B0895881B3A
:104D6000FCCFFC010590615070400110D8F7809590
:104D700090958E0F9F1F0895FC0161507040019027
:104D80000110D8F7809590958E0F9F1F08950F936F
:104D90001F93CF93DF93182F092FEB018B8181FD98
:104DA00009C01FEF0FEF812F902FDF91CF911F913F
:104DB0000F91089582FF14C02E813F818C819D81C7
:104DC000281739073CF4E881F981CF0101969983CE
:104DD000888310838E819F8101969F838E83E3CF8A
:104DE000E885F985812F0995892BA1F3DACFFA019E
:104DF000AA27283051F1203181F1E8946F936E7F1A
:104E00006E5F7F4F8F4F9F4FAF4FB1E03ED0B4E00A
:104E10003CD0670F781F891F9A1FA11D680F791F4B
:104E20008A1F911DA11D6A0F711D811D911DA11D5C
:104E300020D009F468943F912AE0269F112430196C
:104E4000305D3193DEF6CF010895462F4770405D07
:104E50004193B3E00FD0C9F7F6CF462F4F70405DB6
:104E60004A3318F0495D31FD4052419302D0A9F711
:104E7000EACFB4E0A6959795879577956795BA950B
:104E8000C9F700976105710508959B01AC010A2ED1
:104E900006945795479537952795BA95C9F7620FA8
:104EA000731F841F951FA01D08950E949727A59F1B
:104EB000900DB49F900DA49F800D911D1124089515
:104EC0002F923F924F925F926F927F928F929F921A
:104ED000AF92BF92CF92DF92EF92FF920F931F9308
:104EE000CF93DF93CDB7DEB7CA1BDB0B0FB6F894B9
:104EF000DEBF0FBECDBF09942A88398848885F84F9
:104F00006E847D848C849B84AA84B984C884DF8069
:104F1000EE80FD800C811B81AA81B981CE0FD11D4D
:104F20000FB6F894DEBF0FBECDBFED010895A29F6E
:104F3000B001B39FC001A39F700D811D1124911D6D
:104F4000B29F700D811D1124911D0895F894FFCF1B
:104F5000496E66696E697479004D61746820657286
:104F6000726F722E006C6F6728006C6E2800737170
:104F7000727428006173696E280061636F73280082
:104F80006174616E2800655E280031305E006162E8
:104F90007328006362727428006661637428005E7F
:104FA00033005E3200646567280072616428006126
:104FB00073696E0061636F73006174616E00795E86
:104FC0007800434C52006500616273006362727442
:104FD000005B0064656700726164006D6F64006669
:104FE000616374005D0048455800444543004249F0
:104FF0004E004F4354004D43004253006C6F670016
:105000006C6E00655E00E2889A00CF800078C2B2C4
:105010000078C2B300312F78002900455850004174
:0C5020004E53004D2B004D2D004D520052
:00000001FF
